:020000040800F2
:10000000000002205909000855090008754200083F
:1000100055090008550900085509000800000000AE
:10002000000000000000000000000000550900086A
:10003000550900080000000055090008F9410008B2
:100040005509000855090008550900085509000818
:100050005509000855090008550900085509000808
:10006000550900085509000855090008013E000817
:100070000D3E0008792B0008193E0008253E0008B7
:100080008DE300082D3300085509000855090008C4
:1000900055090008550900085509000855090008C8
:1000A00055090008550900085509000855090008B8
:1000B00061D700086DD7000879D7000861330008C0
:1000C000550900086D33000855090008D1CF000814
:1000D000DDCF0008C1E10008F1E1000825E20008D9
:1000E00055090008550900080000000055090008DE
:1000F0005509000855090008550900085509000868
:10010000550900085509000885D70008E9CF0008FF
:1001100059E200088DE20008550900085509000859
:1001200055090008550900080DD0000841D0000805
:10013000C1E30008550900085509000855090008E1
:1001400000000000000000000000000000000000AF
:10015000550900085509000855090008C1E20008C2
:100160007933000855090008094200082D420008AB
:1001700055090008514200085509000855090008B2
:100180005509000855090008F5E2000825E30008B4
:10019000F5CF000801D000085509000855090008EE
:1001A00055090008550900085509000855090008B7
:1001B000213B0008550900085509000855090008A9
:1001C0005509000855090008550900085509000897
:1001D0005509000855090008550900085509000887
:1001E0005509000855090008550900085509000877
:1001F0005509000855090008550900085509000867
:100200005509000855090008550900085509000856
:100210005509000855090008550900085509000846
:10022000550900085509000855090008000000009C
:10023000550900085509000800000000550900088C
:100240005509000855090008550900085509000816
:100250005509000855090008550900085509000806
:1002600055090008550900085509000855090008F6
:10027000550900085509000859E30008000000006E
:10028000550900085509000855090008000000003C
:08029000000000005509000800
:1002980010B5054C237833B9044B13B10448AFF3B8
:1002A80000800123237010BD4004002400000000DA
:1002B800B823010808B5034B1BB103490348AFF342
:1002C800008008BD0000000044040024B823010891
:1002D80081F0004102E000BF83F0004330B54FEAEF
:1002E80041044FEA430594EA050F08BF90EA020F5C
:1002F8001FBF54EA000C55EA020C7FEA645C7FEAEF
:10030800655C00F0E2804FEA5454D4EB5555B8BF11
:100318006D420CDD2C4480EA020281EA030382EA82
:10032800000083EA010180EA020281EA0303362D14
:1003380088BF30BD11F0004F4FEA01314FF4801CE7
:100348004CEA113102D0404261EB410113F0004FF9
:100358004FEA03334CEA133302D0524263EB4303B0
:1003680094EA050F00F0A780A4F10104D5F1200E4E
:100378000DDB02FA0EFC22FA05F2801841F10001A9
:1003880003FA0EF2801843FA05F359410EE0A5F17D
:1003980020050EF1200E012A03FA0EFC28BF4CF0AE
:1003A800020C43FA05F3C01851EBE37101F0004564
:1003B80007D54FF0000EDCF1000C7EEB00006EEB71
:1003C8000101B1F5801F1BD3B1F5001F0CD34908FB
:1003D8005FEA30004FEA3C0C04F101044FEA445252
:1003E80012F5800F80F09A80BCF1004F08BF5FEAD9
:1003F800500C50F1000041EB045141EA050130BDB9
:100408005FEA4C0C404141EB0101013C28BFB1F5CA
:10041800801FE9D291F0000F04BF01460020B1FA15
:1004280081F308BF2033A3F10B03B3F120020CDAE8
:100438000C3208DD02F1140CC2F10C0201FA0CF0C6
:1004480021FA02F10CE002F11402D8BFC2F1200C2B
:1004580001FA02F120FA0CFCDCBF41EA0C019040E1
:10046800E41AA2BF01EB0451294330BD6FEA04042A
:100478001F3C1CDA0C340EDC04F11404C4F1200215
:1004880020FA04F001FA02F340EA030021FA04F327
:1004980045EA030130BDC4F10C04C4F1200220FA7E
:1004A80002F001FA04F340EA0300294630BD21FABC
:1004B80004F0294630BD94F0000F83F4801306BF82
:1004C80081F480110134013D4EE77FEA645C18BF76
:1004D8007FEA655C29D094EA050F08BF90EA020F0D
:1004E80005D054EA000C04BF1946104630BD91EA05
:1004F800030F1EBF0021002030BD5FEA545C05D108
:100508004000494128BF41F0004130BD14F5800446
:100518003CBF01F5801130BD01F0004545F0FE41BA
:1005280041F470014FF0000030BD7FEA645C1ABFEF
:10053800194610467FEA655C1CBF0B46024650EA26
:10054800013406BF52EA033591EA030F41F4002152
:1005580030BD00BF90F0000F04BF0021704730B5D8
:100568004FF4806404F132044FF000054FF00001AD
:1005780050E700BF90F0000F04BF0021704730B56E
:100588004FF4806404F1320410F0004548BF404243
:100598004FF000013EE700BF42004FEAE2014FEA98
:1005A80031014FEA02701FBF12F07F4393F07F4F73
:1005B80081F06051704732F07F4208BF704793F076
:1005C8007F4F04BF41F40021704730B54FF4607489
:1005D80001F0004521F000411CE700BF50EA01028C
:1005E80008BF704730B54FF000050AE050EA010235
:1005F80008BF704730B511F0004502D5404261EBA5
:1006080041014FF4806404F132045FEA915C3FF4E5
:10061800D8AE4FF003025FEADC0C18BF03325FEA82
:10062800DC0C18BF033202EBDC02C2F1200300FA33
:1006380003FC20FA02F001FA03FE40EA0E0021FA58
:1006480002F11444BDE600BF53B94AB9002908BFF6
:1006580000281CBF4FF0FF314FF0FF3000F074B995
:10066800ADF1080C6DE904CE00F006F8DDF804E001
:10067800DDE9022304B070472DE9F047089D0446E0
:100688008E46002B4DD18A42944669D9B2FA82F23D
:1006980052B101FA02F3C2F1200120FA01F10CFA79
:1006A80002FC41EA030E94404FEA1C48210CBEFBB1
:1006B800F8F61FFA8CF708FB16E341EA034306FB3A
:1006C80007F199420AD91CEB030306F1FF3080F0C9
:1006D8001F81994240F21C81023E63445B1AA4B216
:1006E800B3FBF8F008FB103344EA034400FB07F7B8
:1006F800A7420AD91CEB040400F1FF3380F00A81F9
:10070800A74240F207816444023840EA0640E41BED
:1007180000261DB1D4400023C5E900433146BDE899
:10072800F0878B4209D9002D00F0EF800026C5E93B
:10073800000130463146BDE8F087B3FA83F6002E53
:100748004AD18B4202D3824200F2F980841A61EBCB
:10075800030301209E46002DE0D0C5E9004EDDE7E9
:1007680002B9FFDEB2FA82F2002A40F09280A1EBD1
:100778000C014FEA1C471FFA8CFE0126200CB1FB26
:10078800F7F307FB131140EA01410EFB03F088421F
:1007980008D91CEB010103F1FF3802D2884200F2AC
:1007A800CB804346091AA4B2B1FBF7F007FB10113E
:1007B80044EA01440EFB00FEA64508D91CEB0404DC
:1007C80000F1FF3102D2A64500F2BB800846A4EB37
:1007D8000E0440EA03409CE7C6F12007B34022FA22
:1007E80007FC4CEA030C20FA07F401FA06F31C4351
:1007F800F9404FEA1C4900FA06F3B1FBF9F8200C5E
:100808001FFA8CFE09FB181140EA014108FB0EF0A3
:10081800884202FA06F20BD91CEB010108F1FF3AF3
:1008280080F08880884240F28580A8F102086144FF
:10083800091AA4B2B1FBF9F009FB101144EA01410D
:1008480000FB0EFE8E4508D91CEB010100F1FF34B8
:100858006CD28E456AD90238614440EA0840A0FB50
:100868000294A1EB0E01A142C846A64656D353D026
:100878005DB1B3EB080261EB0E0101FA07F722FA4A
:1008880006F3F1401F43C5E9007100263146BDE873
:10089800F087C2F12003D8400CFA02FC21FA03F3D6
:1008A800914001434FEA1C471FFA8CFEB3FBF7F057
:1008B80007FB10360B0C43EA064300FB0EF69E427C
:1008C80004FA02F408D91CEB030300F1FF382FD215
:1008D8009E422DD9023863449B1B89B2B3FBF7F6BD
:1008E80007FB163341EA034106FB0EF38B4208D996
:1008F8001CEB010106F1FF3816D28B4214D9023ED7
:100908006144C91A46EA004638E72E46284605E7F4
:100918000646E3E61846F8E64B45A9D2B9EB0208C5
:1009280064EB0C0E0138A3E74646EAE7204694E755
:100938004046D1E7D0467BE7023B614432E7304688
:1009480009E76444023842E7704700BFFEE700BF8A
:100958000B480C4A904203D0121A0B4911F0E6F9E1
:100968000A480B4A904203D0121A002111F0ECF900
:1009780003F0A6FE11F0B6F900F0BAF9FEE700BFE1
:100988000000002440040024E82301084004002457
:10099800803D0024704700BF704700BF002A65D023
:1009A8002DE9F0470F4690460026314DDFF8CCA0E0
:1009B800DFF8CC902DED028B2E4CDFED2F8A2046F0
:1009C80010F0EAFBB0EE408A04F1280010F0E4FBD6
:1009D80004F1500038EE008A10F0DEFBF0EE086AF1
:1009E8007C3454ED017A38EE000AAC4280EE267A67
:1009F800E7EE278AE3D1DAF80030012B2FD0022B5B
:100A08001AD0A3B199ED000AD7E9002368EE808ACD
:100A180002EB860203EB86030136C2ED008AB0457D
:100A2800C3ED008AC8D1BDEC028BBDE8F087F1EEBA
:100A3800087AC8EEA78AE5E7B5EE007AF1EE006A13
:100A4800F0EE477AE8EE877AF8FE678A77EEE88A6A
:100A5800F0EEE88A78EEC78A68EEA68AD2E7B0EEAA
:100A6800680A10F021FFF0EE408ACBE7704700BF1C
:100A7800840700249C04002400000000840700244C
:100A88005C040024413970B50446062900F29980B7
:100A9800DFE801F0192E43586D820400012500F1AA
:100AA8008C0615F07D0320464FF001014FEA4505FD
:100AB80008BF204604F1140408BF194602F0EAF9F9
:100AC800A642EED170BD012500F18C0615F0770322
:100AD80020464FF001014FEA450508BF204604F1C2
:100AE800140408BF194602F0D5F9A642EED170BD2C
:100AF800012500F18C0615F07F0320464FF0010117
:100B08004FEA450508BF204604F1140408BF1946FA
:100B180002F0C0F9A642EED170BD012500F18C06A5
:100B280015F0390320464FF001014FEA450508BF8B
:100B3800204604F1140408BF194602F0ABF9A64296
:100B4800EED170BD012500F18C0615F03F0320465B
:100B58004FF001014FEA450508BF204604F114048F
:100B680008BF194602F096F9B442EED170BD0125CE
:100B780000F18C0615F0790320464FF001014FEA89
:100B8800450508BF204604F1140408BF194602F0C1
:100B980081F9A642EED170BD012500F18C0615F051
:100BA800710320464FF001014FEA450508BF204672
:100BB80004F1140408BF194602F06CF9A642EED1FC
:100BC80070BD00F18C0520461434002102F062F952
:100BD800A542F8D176E700BF70B5A4B00F4D11203B
:100BE80024AE02AC01E055F8040BC0B200F0DAFA0A
:100BF800034620461134ADF80430019901F054FD44
:100C0800B442F0D10822042305480DEB020101F09B
:100C180059FD034801F03AFF24B070BDB81D010822
:100C280078040024F0B52F4B00262F4C2DED048BB3
:100C380085B0B0EE408A04F53A7704AD0FCB05E9EC
:100C48000F00354607EE906AB2EE089AB0EE000A39
:100C5800F8EEE79ADFED257A69EEA77AC7EE898A7A
:100C6800F0EE680A10F08CFC28EE000A204684EDAD
:100C7800020A10F073FCF0EE407AC9EE890AC4ED5E
:100C8800067AB0EE000A10F07BFC28EE000A04F1A8
:100C9800280084ED0C0A10F061FCF0EE407AF0EECA
:100CA800680AB0EE000AC4ED107A10F069FC28EE6C
:100CB800000A04F150007C3404ED090A10F04EFCDF
:100CC80004ABBC4204ED050A03EB850305F10105FD
:100CD80053F8103C05F003051E44B3D105B0BDEC34
:100CE800048BF0BD601D01089C04002448E17A3F94
:100CF8002DE9F04FCD48CE4C2DED048BC9B004F54D
:100D08003A7A00F04DFA0021C84800F0D1FAFFF70E
:100D180063FFC64800F060FAF7EE007AF0EE408A0A
:100D280087EE809A9FEDC38A00264FF07C592046B3
:100D3800C4ED038A012584ED049A4FF07E5784EDB3
:100D4800028AB0EE480AC4F804904FF000086661C1
:100D580010F004FCF0EE407A04F1280084F80080DA
:100D680084F82550B0EE480AC4ED067A84F8245079
:100D78006760C4ED0D8A84ED0E9A84ED0C8AC4F880
:100D88002C90E66310F0EAFBF0EE407A84F82880B5
:100D980004F1500084F84D50B0EE480AC4ED107AC2
:100DA8007C3404F8305C44F8507C44ED088A04ED47
:100DB800079A04ED098A44F8289C44F8186C10F046
:100DC800CDFB04F82C8C04F8075C04F8085C04EDEF
:100DD800050A44F8287C44F8046C5445A2D19FEDD8
:100DE800960A0DF15808FFF71DFF94498F4848AE41
:100DF80000F0EEF9924B0FCB88E80F0020AB1433CC
:100E080000220B20FF219E4243F8102C03F8140CFB
:100E180003F8131C43E90322F1D1454620AC297895
:100E280000236F7820461434012241EA07210093F9
:100E380001F04AFFA64205F10205F0D120AC204698
:100E48001434002102F026F8A642F8D17D4F0DF5A2
:100E5800867B20A8022439790C25FFF713FE7979BF
:100E680058465E4602F016F897ED000AFFF7DAFEDC
:100E78000A238DF810400AA88DF811309FED720AE8
:100E8800049901F0C9FB0B238DF814400EA88DF8C6
:100E980015309FED6D0A059901F0BEFB01238DF811
:100EA800195012A88DF818309FED670A069901F0BD
:100EB800B3FB09238DF81D5040468DF825300323D8
:100EC8008DF8244000258DF820308DF821408DF8CC
:100ED8001C409FED5D0A0799089A099B01F02EFBBB
:100EE800DFF84C910024E1B20134584809F17C093B
:100EF80001F0E2FD062C09ED010AF4D1072153485F
:100F080001F0DAFDF7EE007A514B0AA837EEC00A75
:100F180083ED000A01F09AFB0EA801F097FB12A8D6
:100F280001F094FB9DF83230FF2B00F0FD809DF816
:100F38004230FF2B00F0FC809DF85230FF2B02D18D
:100F48000223444A1360404601F028FB9DF85C30B8
:100F58000BB11F9B1D44002D40F3D8803E4981FBF7
:100F68000521EA17C2EB610202EB4202A5EB8205FA
:100F78005BB307EBC503EC001B79413B062B00F282
:100F8800DB80DFE803F0AD97816B3C2604000DF1B0
:100F980080094FF0010A1AF07D0C48464FF0010114
:100FA8004FEA4A0A08BF484609F1140908BF6146D2
:100FB80001F070FF4E45EED13C445846617901F08E
:100FC80069FF94ED000AFFF72DFE012003F0C0F938
:100FD80086E70DF1800A4FF0010919F0710C5046AF
:100FE8004FF001014FEA490908BF50460AF1140AB7
:100FF80008BF614601F04EFF5645EED1DCE70DF122
:10100800800A4FF0010919F0790C50464FF00101A0
:101018004FEA490908BF50460AF1140A08BF614659
:1010280001F038FF5645EED1C6E700BF6004002442
:101038009C0400240000C8420000DC43A509000805
:10104800701D01080400002400000000780400243A
:101058005C04002484070024ABAAAA2A0DF1800AA4
:101068004FF0010919F03F0C50464FF001014FEACB
:10107800490908BF50460AF1140A08BF614601F041
:1010880009FF5645EED197E70DF1800A4FF00109A7
:1010980019F0390C50464FF001014FEA490908BFD1
:1010A80050460AF1140A08BF614601F0F3FEB24542
:1010B800EED181E70DF1800A4FF0010919F07F0C9C
:1010C80050464FF001014FEA490908BF50460AF15E
:1010D800140A08BF614601F0DDFE5645EED16BE704
:1010E8000DF1800A4FF0010919F0770C50464FF0C6
:1010F80001014FEA490908BF50460AF1140A08BF1E
:10110800614601F0C7FE5645EED155E73FF430AFD2
:101118006D420F4AA2FB0512D20802EB4202A5EB70
:101128008202C2F10C0523E700230A4A13600AE78A
:101138000123084A136006E720AB18461433002140
:10114800039301F0A7FE039B9E42F6D134E700BF4C
:10115800ABAAAAAA8407002408B50C4800230C49A6
:101168000360436103620B4A10F004FA0A4B03F56B
:101178003A717C330022994243F8042CF9D1054A8C
:1011880000200649BDE8084010F0F4B960040024C6
:101198009D090008000000249C040024A1090008FF
:1011A800704700BF1F2882B009D8084B03EB4002E4
:1011B80013F81030507843EA002002B0704701233A
:1011C8000C2043EA002002B0704700BFD41D01087C
:1011D800143001F07FB900BF143001F077B900BFB7
:1011E800F0B5032399B000270125129306462C4B2E
:1011F80009A81595CDE90E7340F20453ADF84030B7
:10120800284BCDE91357099301F04EFE09A801F0C8
:1012180027FF002836D1244B04AF04460090CDF8B0
:1012280042301023394604958DF820301F4BCDE904
:101238001650CDE906506846059302F09FF808233A
:10124800009A01A909A8ADF804508DF80640099440
:101258000295039300F0E4F800230EA938463024E1
:10126800049302F055FE03224FF07E5309A906F1BC
:1012780014000B930C93CDE90942049A01F0EAF8A3
:1012880019B0F0BD40F60132074B169704AFADF820
:1012980024200998CDF84230179500F081F8DBE753
:1012A8000402040403030001040604030704010BF9
:1012B8002DE9F04304462DED028B83B0002948D078
:1012C800012140F2011200230091ADF804208DF8AD
:1012D8000630304A0126304B271D304904F12908D1
:1012E800626040F20272A36040F60663E16004F1B6
:1012F80025092682A4F8252084F82760A4F8293037
:1013080084F82B6003F092F96946054648B304F166
:1013180030008DF8066003F0E7F8072D34D104F1AA
:1013280014052046FFF75CFF284601F0CFF8284651
:10133800B0EE408A01F0C6F8D0ED007AF8EE677A90
:1013480088EE277A84ED0E7A03B0BDEC028BBDE8F7
:10135800F08340F2011300918DF80610ADF80430C7
:10136800B7E704F1300003F0BFF83946204602F031
:101378004FFA484601F098FD404601F095FD04F10A
:10138800120000F077F9CAE73946204602F040FA21
:10139800C5E700BF0508050905070506050A06068D
:1013A80010B584B003460124ADF8040003A8ADF8D5
:1013B8000C30ADF80E4001F077FD214603A801F08E
:1013C8005DFE204602F0C4FF002103A801F056FE8E
:1013D800204602F0BDFF214603A801F04FFE04B0ED
:1013E80010BD00BF10B5C2F3002384B00C46017CC9
:1013F8008DF80D2043EA4402FA2402238DF80C20CC
:1014080003AA009402F050F818B10124204604B051
:1014180010BD04460A2002F09BFF204604B010BD10
:10142800034670B543F8042B044684B007C983E823
:101438000700A37983B91A210B461E22FA252374C3
:101448002046ADF80C20022303AA009502F02CF8E0
:1014580028B1012004B070BD1B210B46EDE70A201E
:1014680002F076FF4FF4B85200950223ADF80C2035
:10147800204603AA217C02F017F80028E9D10A20A7
:1014880002F066FF41F2027200950223ADF80C20CB
:10149800204603AA217C02F007F80028D9D10A20A7
:1014A80002F056FF042200950223ADF80C202046D6
:1014B80003AA217C01F0F8FF0028CAD10A2002F013
:1014C80047FF062200950223ADF80C20204603AA08
:1014D800217C01F0E9FF0028BBD10A2002F038FF87
:1014E80041F2082200950223ADF80C20204603AAF9
:1014F800217C01F0D9FF0028ABD10A20064602F072
:1015080027FF0095022303AA217C2046ADF80C6032
:1015180001F0CAFF00289CD1304602F019FF00955F
:1015280022790C232046002A8DF80C3003AA4FF0AC
:10153800020314BF622142218DF80D10217C01F0B5
:10154800B3FF002885D1304602F002FF2279D4E9A2
:1015580002310B43DBB20AB943F0400362790AB1A6
:1015680043F020030E22FA258DF80D302046009511
:1015780002238DF80C2003AA217C01F095FF002896
:101588007FF467AF0A2002F0E3FE102200950223E1
:10159800ADF80C20204603AA217C01F085FF002825
:1015A8007FF457AF0A2002F0D3FE122100950223E0
:1015B800ADF80C1003AA217C204601F075FF002825
:1015C8007FF447AF0A2002F0C3FE0122092120461A
:1015D800FFF708FF003818BF01203BE7F0B51023DC
:1015E80087B0234C012200250126002702A92046A6
:1015F8000195CDE902234FF48052CDE9046709F043
:10160800CDFD642003F0B8FA02A94FF480522046B9
:10161800CDE9046702261027CDE9026709F0BEFD6F
:101628000322102302A92046CDE902230023042225
:10163800CDE904234FF4805209F0B0FD40F2322383
:10164800042202A9019310232046CDE90223019A1E
:10165800012305924FF48052049309F09FFD40F650
:101668000601204609F0BAFD284607B0F0BD00BFC4
:10167800900700241C4B00221C494FF0400C30B549
:10168800054689B00220596007219A601A62012430
:10169800DA620A224FF4006EDC6006922022CDE95D
:1016A800000104200821CDE9020103201021CDE921
:1016B800040108206946C3E904024FF4C072181DEA
:1016C800C3E906C24FF48052C3E909E209F03CFDC0
:1016D80038B92846FFF782FF003818BF012009B043
:1016E80030BD204609B030BD8C070024404100526F
:1016F800614A0021D0B513688EB00A91002B40F0E2
:10170800B9805E4B01214FF683700C2411600221D1
:10171800D3F8D4200026032742F48052C3F8D420FB
:10172800D3F8D42002F480520092009AD3F8E02033
:1017380042F01002C3F8E020D3F8E02002F01002D3
:101748000192019AD3F8E02042F04002C3F8E02069
:10175800D3F8E02002F040020292029AD3F8E02087
:1017680042F00802C3F8E020D3F8E02002F00802B3
:101778000392039AD3F8E02042F48072C3F8E02081
:10178800D3F8E02002F480720492049AD3F8E0209F
:1017980042F08002C3F8E020D3F8E02002F0800293
:1017A8000592059AD3F8E02042F02002C3F8E02021
:1017B800D3F8E02002F020020692069AD3F8E0203F
:1017C80042F00402C3F8E020D3F8E0300C9403F0B0
:1017D800040307930323079A0B93CDE9080108A98B
:1017E800274805F04FF848F23712022308A9254880
:1017F8000C94CDE90823CDE90A6705F043F84CF2CB
:101808000372022308A920480C94CDE90823CDE9E6
:101818000A6705F037F840F2FF62022308A91B485F
:101828000C94CDE90823CDE90A6705F02BF84FF6AB
:101838000C72022308A916480C94CDE90823CDE9B7
:101848000A6705F01FF84FF63F02022308A911485E
:101858000C94CDE90823CDE90A6705F013F8202296
:10186800022308A90A480C94CDE90A67CDE90823A0
:1018780005F008F80EB0D0BD8807002400440258CF
:101888000010025800180258000C02580020025894
:10189800001C0258001402582DE9F04FDFF810849C
:1018A80006460D46144608F118002DED028B89B046
:1018B80000AF02F025FCD8F8183073B3D8F81C3004
:1018C800D8F80490002B43690BBF4FF0080A4FF07B
:1018D800100A4FF0020B4FF0040BB9F1000F2AD099
:1018E800A200EA46012B02F1070222F00702ADEB43
:1018F800020D6846ADEB020D694600F03F81022BF0
:1019080000F0D680002B6FD02246C847D546243732
:10191800BD46BDEC028BBDE8F08FD8F81C30002B1B
:10192800F5D0D8F804904FF0080A4FF0020B43693D
:10193800B9F1000FD4D1FB61D8F80030BB61002B9E
:10194800E5D0D54802F04EFC6B46BBF1020F78613A
:1019580008EE103AFB6900F083816A465146A2EB13
:10196800C40295466200EA46B2FBFBF2AAEBC40049
:1019780085460AEB8200EE46F861ADEB010DF86989
:101988000EEB820CC7F810C0EC46ADEB010D00EB76
:101998008201CCF80400CCF8081001EB8201386908
:1019A800E946CCF80C1000EB8201CCF800A001EB62
:1019B8008202C9E900E0C9E90212012B00F0648340
:1019C800022B00F06C82002B00F0808162084946EF
:1019D8006046BB69984718EE103A24379D46BD46C5
:1019E800BDEC028BBDE8F08F002C8DD01A46D8EDE7
:1019F8000C6A9FEDB27A8446331D36F922E00CF169
:101A0800080C07EE90EA33F922E00232F8EEE77AA2
:101A1800944267EE877A67EEA67A4CED027A07EE73
:101A280090EAF8EEE77A67EE877A67EEA67A4CEDE9
:101A3800017AE2D8F9612246C847984ED8ED0D6A76
:101A48000020F9692B1D9FED9E7A9FED9E6ADFEDC0
:101A58009E5A22E0F4EEC67AF1EE10FAC0F2C8847B
:101A680047F6FE72D1ED017A45F8202066EEA77A96
:101A7800F4EEC77AF1EE10FA40F2F080F4EEC67A8E
:101A8800F1EE10FAC0F2D58447F6FE7243F8202032
:101A98000230083184427FF639AFD1ED007A66EE24
:101AA800A77AF4EEC77AF1EE10FAD3D83246D9E71E
:101AB800002C3FF429AFD8ED0C6A84469FED787A64
:101AC8000022331D8E4656F822100CF1080C07EE42
:101AD800901A53F822100232F8EEE77A944267EE31
:101AE800877A67EEA67A4CED027A07EE901AF8EE3E
:101AF800E77A67EE877A67EEA67A4CED017AE2D844
:101B080071462246C7F81CE0C847664ED8ED0D6AF4
:101B18000020F9692B1D9FED6A7A9FED6A6ADFF84C
:101B280094C120E0F4EEC67AF1EE10FAC0F279849E
:101B38003246D1ED017A45F8202066EEA77AF4EE18
:101B4800C77AF1EE10FA40F28780F4EEC67AF1EE29
:101B580010FAC0F25E84324643F820200230083181
:101B680084427FF6D3AED1ED007A66EEA77AF4EE22
:101B7800C77AF1EE10FAD5D86246DAE7002C3FF4BE
:101B8800C3AED8ED0C6A86469FED477A4FF0000C3D
:101B9800331D56F82C200EF1080E82F40002A2F52F
:101BA800000207EE902A53F82C200CF1020CF8EEF4
:101BB800E77A82F400026445A2F5000267EE877AAC
:101BC80067EEA67A4EED027A07EE902AF8EEE77AEB
:101BD80067EE877A67EEA67A4EED017AD9D8F96171
:101BE8002246C847314ED8ED0D6A0020F9692B1DF1
:101BF8009FED337A9FED336ADFF8BCC01FE0F4EE47
:101C0800C67AF1EE10FAC0F2FC833246D1ED017AC1
:101C180045F8202066EEA77AF4EEC77AF1EE10FABE
:101C280018D9F4EEC67AF1EE10FAC0F2DA83324629
:101C380043F820200230083184427FF667AED1EDA8
:101C4800007A66EEA77AF4EEC77AF1EE10FAD6D8E3
:101C58006246DBE76246EBE762467DE7324615E718
:101C6800A100D6466208073121F00701ADEB010D4E
:101C7800EA46ADEB010D6946ADEB0E0D0AEB8200AD
:101C8800EC46ADEB0E0D01EB8202F861E946CCE9BA
:101C980000A0C9E9001290E6E00700240280FFFFD7
:101CA800000000300082FF7F0000003482FF7F00C8
:101CB800C4070024007E00807E0080FF00000038FA
:101CC80004FF7FBF04FF7F3F00FEFF46002C00F0AB
:101CD800C982BBF1020FD8F8242000F0FA82796992
:101CE800C7F8049002EB810E5FED0C5A8A00DCF80D
:101CF80008100EF104007A611A46DCF80C303B61DA
:101D0800331DD7F810903D61FD69C7E902CB8C46B9
:101D1800834636F92210D8ED0C7A06EE101A33F9FC
:101D2800221006EE901A3EF92210B8EEC66A07EEA7
:101D3800101AF8EEE66A3BF92210B8EEC77A26EEDA
:101D4800256A66EEA56A27EE257A26EE276A66EEEC
:101D5800A76A27EE277A07EE901A51080232F8EEA2
:101D6800E77A0AEB8100944280ED006A05EB810076
:101D780067EEA57AC0ED006A0CEB810009EB8101E2
:101D880080ED007A98ED0C7A67EE877AC1ED007ADB
:101D9800BFD8D7F804903D69D7E902CB60466208FE
:101DA800BB6949469847D8F82C307A69D8ED0D6A4E
:101DB8001A441FED3D7A1FED3D6A2B1D904602F136
:101DC800040A5FED3F5A0022A84ED9E900EC51E021
:101DD800F4EEC67AF1EE10FAC0F2C78247F6FE704A
:101DE80045F822000CEB0100D0ED007A66EEA77AE8
:101DF800F4EEC77AF1EE10FA4BD9F4EEC67AF1EEAA
:101E080010FAC0F2BA8247F6FE70BBF1020F43F82F
:101E180022002BD0D9F808000844D0ED007A66EEED
:101E2800A77AF4EEC77AF1EE10FA36D9F4EEC67A4C
:101E3800F1EE10FAC0F2CD8247F6FE7048F82200A3
:101E4800D9F80C000144D1ED007A66EEA77AF4EED9
:101E5800C77AF1EE10FA1ED9F4EEC67AF1EE10FA4E
:101E6800C0F2AF8247F6FE714AF82210023294425D
:101E78007FF6B1AD51080EEB81008900D0ED007AF4
:101E880066EEA77AF4EEC77AF1EE10FAA0D83046DB
:101E9800A6E73046B9E73146E6E73046CEE7002CFC
:101EA80000F0E081BBF1020FD8F8243000F0E181A6
:101EB8007A69DCF8081003EB820EC7F804909300E7
:101EC800DFED6B5A0EF1040000227B61DCF80C3068
:101ED8003B61331DD7F810903D61FD69C7E902CB1E
:101EE8008C46834656F82210D8ED0C7A07EE101A65
:101EF80053F82210B8EEC76A07EE101A5EF82210DF
:101F0800F8EEC76A07EE101A26EE256A5BF822106B
:101F1800B8EEC77A66EEA56A26EE276A27EE257A16
:101F280066EEA76A27EE277A07EE901A5108023262
:101F3800F8EEE77A0AEB8100944280ED006A05EB3F
:101F4800810067EEA57AC0ED006A0CEB810009EB11
:101F5800810180ED007A98ED0C7A67EE877AC1ED01
:101F6800007ABFD8D7F804903D69D7E902CB60461C
:101F78006208BB6949469847D8F82C307A69D8ED89
:101F88000D6A1A449FED3E7A9FED3E6A131D9246F4
:101F9800DFF8E4C00022FB612B1D364ED9E9008E24
:101FA8004EE0F4EEC67AF1EE10FAC0F2FC8130464B
:101FB80045F822000EEB0100D0ED007A66EEA77A14
:101FC800F4EEC77AF1EE10FA49D9F4EEC67AF1EEDA
:101FD80010FAC0F2EF813046BBF1020F43F822003D
:101FE8002AD0D9F808000844D0ED007A66EEA77A1E
:101FF800F4EEC77AF1EE10FA35D9F4EEC67AF1EEBE
:1020080010FAC0F2C98130464AF82200D9F80C000B
:102018000144D1ED007A66EEA77AF4EEC77AF1EEC4
:1020280010FA1ED9F4EEC67AF1EE10FAC0F2AD81BC
:102038003146F86940F82210023294427FF6CBAC60
:10204800510808EB81008900D0ED007A66EEA77A86
:10205800F4EEC77AF1EE10FAA3D86046A8E7604616
:10206800BAE76146E5E76046CEE700BF0280FFFFBA
:10207800000000300082FF7F007E008000000034F6
:1020880004FF7FBF04FF7F3F002C00F0EB807A69DC
:102098000021D8F82430C7F8109003EB820ED7F847
:1020A8001C909300FD610EF104021FED0C6A7B6128
:1020B800331D154656F821204808D8ED0C6ABBF1A7
:1020C800020F82F40002A2F5000207EE902A53F8EC
:1020D800212082F40002B8EEE77AA2F5000227EE8A
:1020E800067A07EE902A0AEB8002F8EEE77A27EEE6
:1020F800267A67EE867A82ED007A09EB80024FEA4B
:10210800800067EEA67AC2ED007A27D05EF821201B
:1021180082F40002A2F5000207EE902A55F8212069
:1021280082F40002B8EEE77AA2F5000227EE067AFA
:1021380007EE902ADCF80820F8EEE77A024427EE4A
:10214800267A67EE867A82ED007A98ED0C7ADCF8CA
:102158000C2067EE877A0244C2ED007A02318C4285
:10216800A8D8D7F8109060466208BB694946FD694F
:102178009847D8F82C307A69D8ED0D6A1A441FEDC3
:10218800407A1FED406A131D9246DFF8C4C2002250
:10219800FB612B1DAB4ED9E9008E4EE0F4EEC67AFA
:1021A800F1EE10FAC0F2C580304645F822000EEB79
:1021B8000100D0ED007A66EEA77AF4EEC77AF1EE68
:1021C80010FA49D9F4EEC67AF1EE10FAC0F2BF80DF
:1021D8003046BBF1020F43F822002AD0D9F8080094
:1021E8000844D0ED007A66EEA77AF4EEC77AF1EEED
:1021F80010FA35D9F4EEC67AF1EE10FAC0F2AE80D4
:1022080030464AF82200D9F80C000144D1ED007A92
:1022180066EEA77AF4EEC77AF1EE10FA1ED9F4EE5C
:10222800C67AF1EE10FAC0F28B803146F86940F8B0
:102238002210023294427FF6CEAB510808EB81009F
:102248008900D0ED007A66EEA77AF4EEC77AF1EE4F
:1022580010FAA3D86046A8E76046BAE76146E5E702
:102268006046CEE7224649466046BB699847FFF775
:10227800B2BBC7F810B0002298ED0C6A331DDFED31
:10228800726AD7F81CB0786956F8221007EE901ACF
:1022980053F82210B8EEE77A07EE901A5108023286
:1022A800F8EEE77A27EE267A0AEB810E94420BEBDA
:1022B800810167EEA67A27EE067A67EE867A8EEDBA
:1022C800007AC1ED007ADFD88300D7F810B07B61BF
:1022D8004DE61A46C7F810B098ED0C6A331DDFEDCD
:1022E8005B6AD7F81CB0786936F9221007EE101A25
:1022F80033F9221007EE901AB8EEC77A5108023265
:10230800F8EEE77A27EE267A0AEB810E94420BEB79
:10231800810167EEA67A27EE067A67EE867A8EED59
:10232800007AC1ED007ADFD88300D7F810B07B615E
:1023380034E5F0EE675AFEEEE45A15EE900A34E7FB
:10234800F0EE675AFEEEE45A15EE901A6EE7F0EEDC
:10235800675AFEEEE45A15EE900A3AE7F0EE675A2D
:10236800FEEEE45A15EE900A4BE767EEA57AFDEE0D
:10237800E77A17EE900A00B232E567EEA57AFDEE2D
:10238800E77A17EE900A00B23FE5F0EE675AFEEEE4
:10239800E05A15EE901A4CE6F0EE675AFEEEE05A57
:1023A80015EE900A30E6F0EE675AFEEEE05A15EEAA
:1023B800900AFDE5F0EE675AFEEEE05A15EE900A37
:1023C8000AE667EEA57AFDEEE77A17EE901A09B2EB
:1023D8004AE567EEA57AFDEEE77A17EE900A00B2B5
:1023E8002CE5F0EE675AFEEEE45A15EE902A1FE44B
:1023F80067EEA57AFDEEE77A17EE902A12B2FFF79C
:1024080031BBF0EE675AFEEEE45A15EE902AFFF75C
:10241800FDBBF0EE675AFEEEE05A15EE902AFFF784
:102428009BBBF0EE675AFEEEE05A15EE902AFFF7D6
:1024380080BB67EEA57AFDEEE77A17EE902A12B216
:10244800FFF724BB82FF7F00000000300000003847
:102458007E0080FF30B5184C154685B0046004F145
:10246800080EEC460FC98EE80F00D4ED047AF5EE9D
:10247800C07A8CE80F00F1EE10FA1ADDB7EE006AA8
:1024880094ED057A27EE277AC6EE276A84ED0D7A51
:10249800C4ED0C6A6DB1204640F8185F01F030FEBB
:1024A800064903690020064A2162A262E36005B07A
:1024B80030BD012005B030BDC40700240020003025
:1024C8000000003000680830704700BF006818300E
:1024D80001F076BE30B5046883B00D46E3694BB1B0
:1024E800A3680020E26A616A9B00009004F11C0066
:1024F80001F008FEA3680748A26A9B00216A0090C1
:1025080004F1180001F0FEFD0020C4E9005003B0FA
:1025180030BD00BFA118000810B4074B4FF07E5122
:1025280030240022032019619C60D8605DF8044BB8
:102538005961C3E906227047C407002430B585B045
:1025480004460025ADF80C10ADF80820ADF80430AD
:1025580001F0FCFEBDF80C204FF48073206004F1FC
:1025680018002283BDF808206383E383A2832571C2
:1025780000F09AFC04F11C0000F096FC9FED060A9E
:10258800019904F1080000F047F84FF6FF736562FF
:10259800238405B030BD00BF00000000F8B5044634
:1025A80001F0D4FE002623682671834205D104F188
:1025B8000800BDE8F84000F049B8012794F8205019
:1025C800206004F11800BD40277100F049FD6DB28C
:1025D800284394F82150BD4084F8200004F11C00E1
:1025E80000F03EFD94F820306DB2666203F00303FC
:1025F8002843022BC0B284F8210009D000F0030060
:102608000228D4D1002BD2D14FF0FF336362CEE73A
:102618008307CCD16762CAE770B5044682B0C1F3BC
:102628000726CDB2ADF8041001F090FE4FF4807289
:102638004FF001232060A01DA571A280E671A36060
:1026480002B0BDE8704000F02FBC00BF38B50446AA
:1026580001F07CFE002223682271834210D00122FF
:10266800A57AE37A954020602271A01D6DB243B926
:1026780000F0F6FC40B22843C0B27F28A0720AD00E
:1026880038BD00F0EDFCB0FA80F040092843C0B234
:102698007F28A072F4D101F059FE07EE900AF8EEF7
:1026A800677AC4ED037A38BD82B04FF0000C03237B
:1026B800ADF80410BDF8042080F810C002804380F3
:1026C80002B070472DE9F04FBE4E00258FB0BE4CCA
:1026D800037006F1400342600746019288462022B3
:1026E80029463046C4F85831C4F85461CDE9035539
:1026F800CDE90555CDE90755CDE90955CDE90B5586
:102708000FF022FB2022294604F59970C4F82151C4
:10271800C4F82551C4F82951C4F82D510FF014FB01
:10272800019B84F8385284F820317A68002A5FD0F7
:102738002B464146B64604F5907599464FF0010A76
:1027480003EB0310D1F800B0D1F804800133D1F8BD
:1027580008C02218CE6844F800B0C2F80480C2F855
:1027680008C0D660087C2EF8029B10740A7C05F815
:10277800012F002A69D07A68113184F838A29A4268
:10278800DED84FF4802291489DF8043008214FF09C
:1027980000084FF00009C4F874310023C4E9570257
:1027A8000122C4F8643184F87031C4E95A2194F8DC
:1027B8003812C4E9608981B3C4F88821002284F8FA
:1027C800713184F878313B78C4E96322A3B30122DC
:1027D80000200121013B84F89421C4E96801082BF9
:1027E8002CD8DFE803F0ABB0B5BABFC4C9CFD60068
:1027F8009DF804300121C4F86421C4F874314FF401
:10280800802384F87021714AC4E9572308230022E1
:10281800C4E95A130023C4E960230123002284F881
:102828007131002384F878310323C4F888313B7868
:10283800C4E96322002BCAD184F89431644802F0B9
:10284800D3FD034638B1FFBEFEE77A6811319A42DC
:102858003FF676AF95E703A95D48039302F022FFA0
:102868000546002868D1022240F2FF73CDE908230B
:1028780000230422CDE90A2394F82031002B00F02C
:10288800D5804FF0060921E0022B00F08980012B4A
:1028980040F0C4809AF80130012B00F0C180002B71
:1028A8004C4B18BF002306A94948CDE9063902F068
:1028B800C7F9002840F0BF80013594F82031EDB207
:1028C800AB4240F2B380444B53F825902FB207EB4C
:1028D800071704EB070A504600F0E6FA05EB051364
:1028E80023441B7C042B7DDC022B00F3918000F039
:1028F8008D806319002283F81021E35D002BC3D17A
:102908009AF80130062B00F08580072B00F08A80AA
:10291800022B00F09680032B00F09580002B00F02E
:102928009680012B00F09180042B00F09280052BFB
:102938002A4B18BF0023B6E7FFBEFEE70322402359
:10294800C4E966237AE707226023C4E9662375E7AA
:102958000F228023C4E9662370E71F22A023C4E95D
:1029680066236BE73F22C023C4E9662366E77F221C
:10297800E023C4E9662361E7FF224FF48073C4E9CA
:1029880066235BE740F2FF124FF49073C4E96623B5
:1029980054E740F2FF324FF4A073C4E966234DE7D1
:1029A8009AF80130042B37D0052B3DD0002B40D0AE
:1029B800012B42D0022B42D0032B094B18BF002316
:1029C80071E700BF004000300008002400200240EA
:1029D8005C0900240002B025141E01080000B84F4D
:1029E8000020903603233E1D04EB05084FF0000B32
:1029F800264488F8103130460BF1010B00F054FAE8
:102A080098F8103104365B45F5DC76E70123EAE7F0
:102A18000223E8E7104B46E7104B44E7002342E760
:102A28000F4B40E70F4B3EE70F4B3CE70FB0BDE8BD
:102A3800F08F0E4B37E7FFBEFEE70D4B33E70D4B2C
:102A480031E70D4B2FE70D4B2DE70D4B2BE70D4BCA
:102A580029E70D4B27E700BF0800900C1000C010B5
:102A68002000F0148000501D000180210004002A7D
:102A78000008302E001060320040C03A0080F03E5E
:102A880000005247000021430000844B38B5094C30
:102A980040F2FF724FF0011104F5AE75284602F0BE
:102AA800AFFD94F82021D4F854112846BDE83840E9
:102AB80002F01ABB00080024064B0F29D3F8543142
:102AC80098BF03EB41031B8800EE103ABBEEC80A1F
:102AD800704700BF00080024214B02689A4200D0CA
:102AE8007047204A00232048D2F8D81030B51F4C30
:102AF80041F0200183B0C4F8C001092004F5E07555
:102B0800C4E971034FF48060C2F8D810D2F8D82015
:102B18004FF40061C4E9733094F8380202F02002DF
:102B2800C4F8D4114FF40051984201922846C4F8D1
:102B3800D811C4E97833019B14BF00234FF4807384
:102B4800C4F8DC3102F0D4FF08B1FFBEFEE704F59B
:102B5800AE73C4F8A851C4F8F83103B030BD00BF53
:102B680000200240004402584000024000080024AF
:102B7800014803F035BB00BFC009002402682DE9F5
:102B8800F84F4B4B9A4201D0BDE8F88F494D95F864
:102B98003832002BF8D095F82031002B77D000245C
:102BA80005F10C0905F5997605F59077A04613E02F
:102BB80003F0010117F811BCA9F1080000F05EFA52
:102BC800BBF1010F25D895F82031013409F111091D
:102BD8000236A2B293422BD917F8012F002AF4D05B
:102BE800D5F854310021327833F81400D5F858312B
:102BF80003EB041323F81200338801339BB23380AC
:102C08005FFA83FA3A789A42D2D88A46A6F80080C0
:102C1800D0E7CAF34001A9F1040000F02FFABBF194
:102C2800020FCAF38001CED0484600F027FACAE75F
:102C3800002395F83802204909229842C5F8C8317E
:102C48004FF48060C5F8C011C5F8C4214FF4006185
:102C58004FF40052C5F8CC3108BF4FF48073C5F863
:102C6800D821C5E9740100221448C5E97732C5F8AE
:102C7800E42102F03DFF08B1FFBEFEE795F82021F0
:102C8800D5F854110E48BDE8F84F02F02DBA0A499C
:102C980009224FF48060C5F8C831C5E970124FF4B5
:102CA80000614FF40052C5E97330C5E97512DAE7DF
:102CB800002002400008002440000240C00900240F
:102CC8005C090024704700BF10B592B0ADF804103D
:102CD8000180C9B2149C0B29C460C0E901233FD00C
:102CE80090F801C0BCF10F0F3AD8022A3FD0032A4E
:102CF80002D0012A00D000220E92012B02D0022B12
:102D080018BF0023022C0F932CD0032C2AD0012C9F
:102D180028D000230A29109327D85C4A02EB812285
:102D280002610A2914D8DFE801F0A39587796B5D61
:102D38004F4133250600564BD3F8E01041F480612B
:102D4800C3F8E010D3F8E03003F480630C930C9BD5
:102D580001230DA9104603FA0CF30D9303F092FD1D
:102D680012B010BD0A291094D7D90022D8E7112231
:102D78000E92C2E7464BD3F8E01041F40071C3F855
:102D8800E010D3F8E03003F400730B930B9BDFE7FC
:102D98003F4BD3F8E01041F48071C3F8E010D3F84A
:102DA800E03003F480730A930A9BD1E7384BD3F8D9
:102DB800E01041F08001C3F8E010D3F8E03003F0F0
:102DC80080030993099BC3E7314BD3F8E01041F026
:102DD8004001C3F8E010D3F8E03003F04003089353
:102DE800089BB5E72A4BD3F8E01041F02001C3F85F
:102DF800E010D3F8E03003F020030793079BA7E720
:102E0800234BD3F8E01041F01001C3F8E010D3F8D9
:102E1800E03003F010030693069B99E71C4BD3F8A8
:102E2800E01041F00801C3F8E010D3F8E03003F0F7
:102E380008030593059B8BE7154BD3F8E01041F089
:102E48000401C3F8E010D3F8E03003F0040304935E
:102E5800049B7DE70E4BD3F8E01041F00201C3F864
:102E6800E010D3F8E03003F002030393039B6FE70D
:102E7800074BD3F8E01041F00101C3F8E010D3F894
:102E8800E03003F001030293029B61E7000002585F
:102E98000044025801230A464178006903FA01F107
:102EA80089B203F0FDBE00BF8378022B30B504461B
:102EB8008FB037D0032B33D0012B31D000230A93A6
:102EC800E378012B2AD0022B28D000230B93002370
:102ED80020460C9301F02EFD0546204601F032FDF8
:102EE80023780990082B13D8DFE803F01F324558E0
:102EF8006B7E91A40500594BD3F8E02042F4807210
:102F0800C3F8E020D3F8E03003F480730893089BFB
:102F180009A9284603F0B6FC0FB030BD0B93D6E7DD
:102F28000A93CDE711230A93CAE74C4B09A928460F
:102F3800D3F8E02042F00102C3F8E020D3F8E030F3
:102F480003F001030093009B03F09CFC0FB030BD1D
:102F5800424B09A92846D3F8E02042F00202C3F800
:102F6800E020D3F8E03003F002030193019B03F063
:102F780089FC0FB030BD394B09A92846D3F8E020A9
:102F880042F00402C3F8E020D3F8E03003F0040371
:102F98000293029B03F076FC0FB030BD2F4B09A9BA
:102FA8002846D3F8E02042F00802C3F8E020D3F81E
:102FB800E03003F008030393039B03F063FC0FB0B6
:102FC80030BD264B09A92846D3F8E02042F010026C
:102FD800C3F8E020D3F8E03003F010030493049B17
:102FE80003F050FC0FB030BD1C4B09A92846D3F89C
:102FF800E02042F02002C3F8E020D3F8E03003F0EC
:1030080020030593059B03F03DFC0FB030BD134B27
:1030180009A92846D3F8E02042F04002C3F8E0208E
:10302800D3F8E03003F040030693069B03F02AFC34
:103038000FB030BD094B09A92846D3F8E02042F06B
:103048008002C3F8E020D3F8E03003F08003079350
:10305800079B03F017FC0FB030BD00BF00440258B7
:1030680038B5054601F066FC0446284601F06AFCBE
:1030780001462046BDE8384003F00CBE70B5064650
:103088000D4601F057FC0446304601F05BFC2A1E51
:103098000146204618BF0122BDE8704003F000BE7B
:1030A8000023122270B586B0CDE902230493036889
:1030B800032B01D804230593061D841D304601F017
:1030C80039FC0546304601F03DFC034601A9284677
:1030D800019303F0D7FB204601F02CFC0346204661
:1030E8001C4601F02FFC01A903462046019303F07A
:1030F800C9FB06B070BD00BF634A0368934210B5B0
:103108008CB028D0614A934258D0614A934200F06B
:103118009480604A934201D00CB010BD5E4C5F4869
:10312800D4F8E03043F00203C4F8E030D4F8E030DB
:1031380003F002030A930A9BFFF7B2FFD4F8F430B6
:1031480043F08003C4F8F430D4F8F43003F080037B
:103158000B930B9BE0E7504C5148D4F8E03043F018
:103168000203C4F8E030D4F8E03003F0020301931E
:10317800019BFFF795FFD4F8E83000221F2043F4A5
:1031880000131146C4F8E830D4F8E83003F400130B
:103198000293029BD4F8D83043F00103C4F8D83026
:1031A800D4F8D83003F001030393039B02F0EEFA3E
:1031B8001F200CB0BDE8104002F026BB364C394841
:1031C800D4F8E03043F08003C4F8E030D4F8E030BD
:1031D80003F080030493049BD4F8E03043F0020327
:1031E800C4F8E030D4F8E03003F002030593059BFF
:1031F800FFF756FFD4F8E8300022212043F480037B
:103208001146C4F8E830D4F8E83003F48003069394
:10321800069BD4F8D83043F00103C4F8D830D4F86A
:10322800D83003F001030793079B02F0AFFA21207F
:103238000CB0BDE8104002F0E7BA1B48FFF730FFBA
:10324800154B00224820D3F8E840114644F4000406
:10325800C3F8E840D3F8E84004F400040894089C54
:10326800D3F8D84044F00104C3F8D840D3F8D83094
:1032780003F001030993099B02F088FA48200CB077
:10328800BDE8104002F0C0BA0054004000580040A9
:10329800005C0040001C005800440258C80C002480
:1032A800400A0024180B0024F00B00242DE9F043F9
:1032B8001A4B87B000254FF010099E46EC46184B74
:1032C800FF22E04667461A700EF118060EF1300428
:1032D800CDE90055CDE90255ADF80090BCE80F00E6
:1032E800CDE90455AEE80F009CE803000095ADF861
:1032F80000908EE80300B8E80F000FC69CE80300B2
:103308000095ADF8009086E803000FCF0FC49CE845
:10331800030084E8030007B0BDE8F08364000024DC
:103328003C0A002410B5EFF3108472B6084B1A78E3
:10333800120602D504B962B610BD1B78D82205481A
:103348005BB202FB0300143002F04AFFF2E700BF51
:103358003C0A0024400A0024014804F039BB00BF9D
:10336800CC0A0024014804F033BB00BFA40B00249E
:10337800014804F02DBB00BF7C0C00242DE9F0436C
:103388000F68D8243F4D85B007FB04F4032F05EBE5
:103398000403036040DCCB680E46012B3CD84DD0BB
:1033A8004FF0D808B646DFF8FC9008FB0758BEE88F
:1033B8000F00C446ACE80F00DEF800300DF1100E27
:1033C800CCF80030D8F808C099E80F000EE90F00D3
:1033D8000EEB8703BCF1010F53F8103CC8F88C3092
:1033E80031D0BCF1020F42D0BCF1000F35D0317C96
:1033F8008C34D823002201202C4403FB07534900B6
:10340800C3E92602C3F894102046C3E92822C3E979
:103418002A2204F0CFF818B1012005B0BDE8F083E6
:103428000146204604F0E0FA0028F5D1014620467E
:1034380004F004FB003818BF0120EEE70B7C103BBA
:10344800672BADD9E8E701F0EFF80F4B98420CBFB6
:103458000E4B0F4BC8F89030C9E701F0E5F80A4B5E
:1034680098420CBF0B4B0C4BC8F89030BFE701F0EB
:10347800DBF8054B98420CBF084B094BC8F8903055
:10348800B5E700BF400A0024000E27072D0FB03013
:103498003211D0205F4390608A62E030200BA01088
:1034A8001A098010801D01082DE9F041D0F800802C
:1034B80082B00D4617461E4608F18C04204604F0DB
:1034C8008FFA2028FAD1D8F80C3073B96D0020464D
:1034D800089C33463A46A9B2009404F0C1F8003873
:1034E80018BF012002B0BDE8F081089B324639467A
:1034F800204604F089F9F2E7044B10221A7483F885
:10350800E82083F8C02183F898227047400A0024F5
:1035180030B5002395B04FF48071062204460B9312
:1035280006921393CDE90C13CDE90E33CDE911338F
:1035380001F07CF807282BD004F1100541F28832FD
:1035480006A9284605F08CF828B10123184684F806
:103558005C3015B030BD0222022306A92846CDE909
:10356800002310220123CDE9022300224FF4800317
:10357800CDE9042305224FF0807306926A460F9323
:1035880041F2883305F0D8F90028DED115B030BDF6
:103598000323012084F85C3015B030BD0000000022
:1035A80070B50023A4B04FF080724FF480750446C4
:1035B800ADF806300D93CDE910320122CDE90E5356
:1035C800CDE91223CDE91433002943D0F02300F1CB
:1035D800100508AEADF80630C02341F288323146F6
:1035E8002846089305F03CF828B10123184684F8CA
:1035F8005C3024B070BD41F288320DF106012846D6
:1036080005F098F803460028EFD105224FF48071A1
:103618001E93284616924FF080721B9321931F9297
:1036280002AA9FED1F7BCDE91C13CDE922338DED56
:10363800027B9FED1D7B41F2883316A98DED047B3B
:103648009FED1B7B8DED067B05F076F90028CCD12C
:1036580024B070BD00F1100508AE612341F2883234
:1036680031462846089304F0FBFF0028BDD141F2FB
:1036780088320DF10601284605F0DAF80028B4D1A1
:10368800BDF80630204623F0780343F04003ADF838
:103698000630FFF73DFF00289ED0A6E7AFF3008075
:1036A8000000000001000000100000000100000000
:1036B80000000000000040002DE9F04F00234FF407
:1036C800807501264FF0807804462DED028BABB053
:1036D8008DF8073013932193299314950E96CDF8FE
:1036E8005C80CDE91533CDE91863CDE91A33CDE90E
:1036F8002253CDE92433CDE9273306231C9300F068
:1037080095FF072808D004F1100741F288321CA958
:10371800384604F0A5FF40B10123184684F85C3010
:103728002BB0BDEC028BBDE8F08F4FF0020A4FF0D2
:10373800020B4FF0050941F2883308AA1CA9384644
:10374800CDF89480CDF870909FED2D8BCDE908AB26
:103758004FF0000A4FF4800B8DED0A8BCDE90CABCE
:1037680005F0EAF80028D7D141F2883238460EA988
:1037780004F076FF0028CFD1402341F288320DF1C2
:10378800070138468DF8073004F0D4FF0028C3D16C
:1037980041F288330EA902AA3846CDF83890CDF800
:1037A8005C809FED197B8DED048BCDE906AB8DED2B
:1037B800027B05F0C1F803460028ADD1CDF8709022
:1037C8004FF00109CDF894804FF00008219308AA22
:1037D80029931CA938462295CDE92333CDE927330F
:1037E80041F288338DED0A8BCDE90CABCDE9088920
:1037F80005F0A2F8002893D0304684F85C608FE783
:10380800100000000100000040000000400000001F
:103818002DE9F043624CA3B00D46046000F006FFAA
:10382800072800F0A980286823466968AA6807C3A2
:103838001E46AB8926F8043B3046257B677B04F09F
:10384800F1FEE0B9574B012D4FF00108E06123610B
:1038580014BF4FF480134FF40003C4E9058893FAAA
:10386800A3F3B3FA83F34FF48079013BC4F82490AF
:10387800C4E90B003046236204F068FE38B1012227
:10388800134684F85C20184623B0BDE8F08366230D
:103898000B90139041F2883206A90693CDE90C905B
:1038A800CDE90E00CDE91100304604F0D9FE00281C
:1038B800E5D1992341F2883206A93046069304F0EF
:1038C800CFFE0028DBD105231C9019906A4614937B
:1038D8004FF08073219014A91D9341F288339FED16
:1038E8002A7BCDE91A90CDE91F008DED007B9FED75
:1038F800287B30468DED027B9FED277B8DED047B89
:1039080005F01AF80028BAD129462046FFF748FEE4
:103918000028B4D12046FFF7CFFE03460028AED1D9
:10392800002FB0D1189330460027002606AA14A904
:10393800CDF86890CDE91F33EB2314934FF440631F
:103948001B934FF4005317934FF440431C93A02349
:103958001693062319934FF0805321934FF0407329
:10396800CDE906671D9305F05FF8034600288AD065
:10397800434684F85C8086E701230322184684F8CE
:103988005C2023B0BDE8F0830000000001000000C7
:1039980010000000010000000000000000004000CE
:1039A800A00D0024005000522DE9F04F8FB0414B7C
:1039B8000024026800AF9A427C63C7E90944C7E95A
:1039C8000B4403D03C37BD46BDE8F08F3A4B40F678
:1039D80009213A48EB46D3F8D42007F11C0607F131
:1039E800220A4FF0020942F480424FF00308C3F85C
:1039F800D420D3F8D42002F48042BA60BA68D3F84D
:103A0800E02042F04002C3F8E020D3F8E02002F0C2
:103A18004002FA60FA68D3F8E02042F02002C3F8C6
:103A2800E020D3F8E02002F020023A613A69D3F8A6
:103A3800E02042F01002C3F8E020D3F8E02002F0C2
:103A480010027A617A69D3F8E02042F00202C3F8E2
:103A5800E020D3F8E030F86103F002033984BB6159
:103A6800174B7B60BB697B6853F8040F7B6000F0E1
:103A780061FF7B680546186800F064FF16F8013B93
:103A8800786207F124012846C7F830807B63C7E9CC
:103A98000A9402F0F7FE5645E5D100225C20114653
:103AA80001F074FE5C2001F0AFFE3C37DD46BD46F8
:103AB800BDE8F08F00500052004402580A0A090974
:103AC800FC0D0024114B02689A4200D07047104A3E
:103AD80070B5D2F8D4300F4C23F4804304F11806A3
:103AE800C2F8D43054F8040F00F024FF05462068CB
:103AF80000F028FF0146284603F004F8B442F1D14B
:103B08005C20BDE8704001F08DBE00BF005000523F
:103B180000440258FC0D0024014805F011B800BF0C
:103B2800B00D0024084B1A1D981D03F1080110B4AC
:103B38009C1C9A6603F10A02C3E91834C3E91B0105
:103B48005DF8044B5A677047A00D002438B5036828
:103B580071B9026A00F1280500F5AC74012A0CBF9E
:103B6800002140218BBB1D4B5722C0F858310DE076
:103B7800426A00F1C00500F5E874012A0CBF002173
:103B88004021EBB1164B5A22C0F8D0310023204611
:103B9800C4E901214FF480524FF48061636262618D
:103BA8004FF48042C4E903314FF48073C4E906231B
:103BB8004FF40033236201F09BFF58B1FFBEFEE7CC
:103BC800084B5822C0F8D031E0E7074B5922C0F81B
:103BD8005831DBE7C5E92044A56338BD1000024031
:103BE8007000024028000240580002402DE9F043CE
:103BF800821D05468BB0031D05F10A010830CDE989
:103C0800052305F10C02AB69CDE907010992002BE8
:103C18003DD0EB69B3FA83F84FEA58180123022222
:103C280005AE0AAF4FF006090393CDE9012356F814
:103C3800044B2B792278934216D02B68F3B1012BD1
:103C480002D1F2B10A230493204600F07BFE03461A
:103C58002046009300F06EFE694602F013FEBE4255
:103C6800E5D10BB0BDE8F083697963789942E4D176
:103C7800B8F1000FF3D02B68002BE0D1CDF81090ED
:103C8800E2E76378022B14BF0A230823DBE74FF02F
:103C98000108C3E7534A0368934230B505468BB021
:103CA80055D02032934252D04F4A934204D020320A
:103CB800934201D00BB030BD4C4C4D48D4F8E030A5
:103CC80043F00103C4F8E030D4F8E03003F0010316
:103CD8000593059BD4F8E03043F00803C4F8E030BE
:103CE800D4F8E03003F008030693069BD4F8E030DC
:103CF80043F04003C4F8E030D4F8E03003F0400368
:103D08000793079BD4F8F03043F40003C4F8F0306D
:103D1800D4F8F03003F400030893089BFFF766FF1C
:103D2800D4F8D830296843F001032F4A3048C4F842
:103D3800D830891AD4F8D83018BF012103F001030C
:103D48000993099B0BB0BDE83040FFF7FFBE274C35
:103D58002848D4F8E03043F00103C4F8E030D4F840
:103D6800E03003F001030093009BD4F8E03043F007
:103D78001003C4F8E030D4F8E03003F010030193E6
:103D8800019BD4F8E03043F04003C4F8E030D4F8A5
:103D9800E03003F040030293029BD4F8F03043F480
:103DA8008003C4F8F030D4F8F03003F480030393B0
:103DB800039BFFF71BFFD4F8D830296843F00103B1
:103DC800084A0C48C4F8D830891AD4F8D83018BF33
:103DD800012103F001030493049B0BB0BDE83040BC
:103DE800FFF7B4BE04580140045C01400044025887
:103DF80074100024180E0024014802F0F1B900BF25
:103E0800700F0024014802F0EBB900BFE80F00244E
:103E1800014802F0E5B900BFCC110024014802F0C6
:103E2800DFB900BF441200241A4A0368934210B451
:103E38000BD02032934208D0174A934216D0203232
:103E4800934213D05DF8044B7047144B0022D3F80B
:103E58005442C3F85822002CF4D0D3F84802D3E9CE
:103E6800931223465DF8044B520818470B4B002267
:103E7800D3F8B044C3F8B424002CE3D0D3F8AC246E
:103E8800D3F8A814D3F8A404520823465DF8044BC9
:103E9800184700BF04580140045C0140180E002474
:103EA800184A0368934210B40BD02032934208D0CA
:103EB800154A934217D02032934214D05DF8044B30
:103EC8007047124BD3E994245208C3F85822002CA7
:103ED800F4D0D3E99201234601EB820100EB820082
:103EE8005DF8044B1847094BD3F8AC24D3F8B04419
:103EF8005208C3F8B424002CE0D0D3F8A814D3F89F
:103F0800A404E8E704580140045C0140180E0024AA
:103F18002DE9F04F0C684FF41776754F87B004FB06
:103F280006F6012C07EB060AC0F800A000F3A080F3
:103F38000D468E464FF00008D44669A3D3E9002306
:103F480069A1D1E90001CDE9022306ABCAF8508284
:103F580003EB8403CDE9040153F810BC53F8083C83
:103F6800CAE992880193BEE80F00ACE80F00BEE8EA
:103F78000F00ACE80F00019B9EE80300CAF828B0C8
:103F8800CAF8C0308CE803002B69042B0CD8DFE892
:103F980003F0737D879103004FF41773554A03FBB1
:103FA80004739A64C3F8E020AA692B6A002A43D0F4
:103FB800002B4FF4177308BF022203FB047318BFCA
:103FC8000322DA6201221A63EA696B6A002A40D185
:103FD800191E4FF4177318BF012103FB0473C3E9BB
:103FE80031126B69022B05D8434A12F80380434A01
:103FF80052F823904FF4177306F1280042464946B9
:1040080003FB04740023384463646363E365C4F802
:10401800DC30C4F8CC30C4F8F430C4E90F33C4E958
:104028001533C4E93533C4E93B33022306F02AFECD
:10403800002849D0FFBEFEE7191E4FF4177318BFBA
:10404800012103FB0473C3E90B12EA696B6A002AB6
:10405800BED0002B4FF4177308BF022203FB047372
:1040680018BF0322C3F8C4200122C3F8C820B8E748
:10407800012007B0BDE8F08F4FF417734FF4FA52E0
:1040880003FB04739A64C3F8E0208DE74FF41773B9
:104098004FF47A5203FB04739A64C3F8E02083E771
:1040A8004FF417734FF4FA4203FB04739A64C3F88E
:1040B800E02079E74FF417734BF6803203FB047363
:1040C8009A64C3F8E0206FE706F1C0000223424675
:1040D8004946384406F0D6FD0028CAD0FFBEFEE7A0
:1040E80004580140045C014024580140245C01400C
:1040F800180E002400770100541E0108581E0108FC
:104108000068704770B5046882B015460E46C4F85A
:104118005032C4E99212069AC4F85422A269012ABC
:1041280026D0626A012A9AB211D0294604F1C00049
:10413800019206F063FE236A019A012B10D02946EA
:1041480004F1280006F05AFE002002B070BD04F108
:10415800C000019206F0E4FE236A019A012BEED119
:10416800314604F1280006F0DBFE002002B070BDE5
:10417800226A012A9AB211D0294604F12800019234
:1041880006F03CFE636A019A012B10D0294604F11F
:10419800C00006F033FE002002B070BD04F1280014
:1041A800019206F0BDFE636A019A012BEED13146F9
:1041B80004F1C00006F0B4FE002002B070BD00BFDC
:1041C80003681B69042B05D8044A02EB830393EDAB
:1041D800000A70479FED020A704700BF641E01087D
:1041E80000803B470368D3F858027047704700BF08
:1041F80008B500F0AFFCBDE8084001F08FBB00BF78
:10420800064808B503680BB102F04EFD0448036880
:104218001BB1BDE8084003F03DBC08BDE016002412
:10422800D8120024064808B503680BB102F03CFD1B
:10423800044803681BB1BDE8084003F02BBC08BD67
:10424800E0160024D8120024064808B503680BB10C
:1042580002F02AFD044803681BB1BDE8084003F0DA
:1042680019BC08BDE0160024D8120024364BDA6ABF
:10427800520062D59A6A9A6A9A6A9B6A180600D5A9
:1042880000BE314B9B6A990600D500BE2E4B9B6A37
:10429800DA0600D500BE2C4B9B6A1B0700D500BE72
:1042A800294B9B6A980700D500BE274B9B6AD90704
:1042B80000D500BE244B9B6A1A0400D500BE224BD1
:1042C8009B6A9B0400D500BE1F4B9B6AD80400D58F
:1042D80000BE1D4B9B6A190500D500BE1A4B9B6A90
:1042E8005A0500D500BE184B9B6A9B0500D500BE39
:1042F800154B9B6AD80500D500BE134B9B6A9901E4
:1043080000D500BE104B9B6ADA0100D500BE0E4BEB
:104318009B6A1B0300D500BE0B4B9B6A580300D554
:1043280000BE094B9B6A990300D500BE064B9B6AE9
:10433800DA0306D400BE00BEFEE7DB6A9B07FAD5A7
:10434800F8E700BEF6E700BF00ED00E000F00EBCA5
:1043580000F012BC2DE9F041CEB004464C220021F9
:104368000AA80DF0F1FC2022002102A80DF0ECFCB7
:10437800BC2200211EA80DF0E7FC022003F0FEFF7E
:104388002368012B4FF0000354D0534A02250193B0
:10439800C820D16A514B21F00101D162D26A02F0E2
:1043A800010201929A6942F440429A619B6903F4BE
:1043B80040430193019B494A93699B04FCD54849B2
:1043C8000224002201268B6A04274FF0080823F0F4
:1043D800030323438B62052316900AA818934FF40E
:1043E80080331096179419941597CDF86880CDE905
:1043F8001B222122CDE91344CDE90A2304F0A8FCAD
:1044080000B1FEE73F220323294602A8CDE9022393
:1044180000220823CDE9042340224023CDE90623C6
:1044280040234FF48062CDE9082304F0BFFF034620
:10443800B8B1FEE7294A04250093F0209169264B7C
:1044480041F440419161926902F440420092DA6A73
:1044580042F00102DA62DB6A03F001030093009B79
:10446800A9E720224FF4805125934FF440152B9251
:1044780080222D931EA83093269135914FF4807198
:10448800249234920C223394439140F227112092C3
:104498001022CDF884802A971F96CDE92E34CDE9D5
:1044A8003B334FF48033CDE92246319300244693C1
:1044B8000623CDE93E4527934FF48063094C2C939E
:1044C8001E94CDE9281205F0CDF900B1FEE703F0FE
:1044D8007BFF4EB0BDE8F081000400580048025848
:1044E800004402580F130F032DE9F0410D4604460E
:1044F80084B0D1E9000184E8030000F0FBFAAE794A
:10450800002E37D06F460AF045F8FEF7CFFE08F0C8
:104518001BFD09F0D3FD2B79002B54D16B799BB18E
:10452800BFF34F8FBFF36F8F3C4B0022C3F850226D
:10453800BFF34F8FBFF36F8F5A6942F400325A614D
:10454800BFF34F8FBFF36F8F4FF0FF32002300246C
:1045580000253946324802928DF80C30CDE90045E5
:1045680009F012F92E4809F077F908F01DF904B09E
:10457800BDE8F08120466F46FFF7ECFE012401F00C
:104588007BF94FF040534FF4807838460193254B20
:10459800ADF80040CDE9023801F08CF919224FF04E
:1045A800404338468DF80F40ADF80D808DF8014036
:1045B8008DF80A608DF80820019301F07BF904203A
:1045C80001F068F99FE7154C0023C4F88430BFF365
:1045D8004F8FD4F8803043F6E07EC3F3C906C3F3A7
:1045E8004E334FEA431C0CEA0E00334640EA83720E
:1045F800013BC4F860225A1CF8D1ACF1200C1CF124
:10460800200FF0D1BFF34F8F636943F480336361A8
:10461800BFF34F8FBFF36F8F80E700BF00ED00E05F
:10462800D01200240E00010304F0F0BF1C4B9B685D
:1046380003F17842B2F5003F25D3B3F5803F20D38C
:1046480003F16042B2F5003F1FD303F15C42B2F5BB
:10465800002F1CD303F17042B2F5902F19D303F148
:104668004842B2F5803F16D303F18042B2F1806F21
:1046780013D303F1E043B3F5000F2CBF0820072044
:1046880070470120704700207047022070470320C0
:10469800704704207047052070470620704700BF08
:1046A80000ED00E003480023034A044903600CF0CE
:1046B80061BF00BFD012002400000024F5410008AB
:1046C80010B4204C0022204B83B0D4F888101F4827
:1046D80041F47001C4F8881019681D4C41F00101BB
:1046E80019601A61196808401A4918609A61DA61F4
:1046F8001A629A62DA621A635A639A63DA631A640C
:104708005A64186820F4802018601A66D3F8DC20F0
:1047180042F06042C3F8DC20D3F8DC300193019BFF
:1047280023681940B1F1005F03D20B4B0122C3F893
:104738000821044B4FF000629A6003B05DF8044B07
:10474800704700BF00ED00E0004402587FEDF6EA34
:104758000010005C0000FFFF0080005100F571713F
:10476800D0F8040407F008BCC1EBC10300EB8303D5
:10477800D0F80404D3F8082207F02CBCC1EBC1031D
:1047880000EB8303D0F804049A6C07F061BC00BF07
:10479800D0F8040407F000BDC16810B5044619B18B
:1047A800022900D0FEE70121D4F8040407F0DEFC5A
:1047B800D4F80404BDE8104007F0B0BC10B50446B6
:1047C800D0F8040407F0D6FC2268D2F8003E43F083
:1047D8000103C2F8003E236A23B1034A136943F078
:1047E8000603136110BD00BF00ED00E0D0F804041B
:1047F80007F0CABCD0F8040407F0DEBCD0F8040403
:1048080007F0D8BCD0F8040407F0D8BCD0F80404EA
:1048180007F0D6BC9446D0F898021A4608B5634605
:1048280003F09CFC032802D8024B185C08BD022048
:1048380008BD00BF881E0108D0F8980208B503F02B
:104848001BFD032802D8024B185C08BD022008BDD6
:10485800881E0108D0F8980208B503F051FD032816
:1048680002D8024B185C08BD022008BD881E01084A
:104878000A06D0F8983206D4C1EBC10103EB8101D6
:1048880091F8FE01704701F07F01C1EBC10103EB14
:10489800810191F83E007047D0F8980208B503F0FE
:1048A80047FC032802D8024B185C08BD022008BD4B
:1048B800881E0108D0F8980208B503F0B5FC032853
:1048C80002D8024B185C08BD022008BD881E0108EA
:1048D800D0F8980208B503F07FFC032802D8024BF1
:1048E800185C08BD022008BD881E0108D0F8C00267
:1048F80007F014BFD0F8C00207F028BFD0F8C002F4
:1049080007F030BF704700BFD0F8C00207F016BFED
:10491800D0F8C00207F016BFD0F8D00308B502F0EF
:1049280083FD032802D8024B185C08BD022008BD8D
:104938008C1E0108024B027853F82200704700BF12
:10494800B01E0108024B427833F81200704700BFCE
:10495800901E01088CB00A2814D8DFE800F015234F
:10496800313F4D5B6977859306004D4BD3F8E020C6
:1049780042F48062C3F8E020D3F8E03003F48063A7
:104988000B930B9B0CB07047454BD3F8E02042F0DB
:104998000102C3F8E020D3F8E03003F001030193EB
:1049A800019BEFE73E4BD3F8E02042F00202C3F848
:1049B800E020D3F8E03003F002030293029BE1E722
:1049C800374BD3F8E02042F00402C3F8E020D3F8D4
:1049D800E03003F004030393039BD3E7304BD3F891
:1049E800E02042F00802C3F8E020D3F8E03003F0FA
:1049F80008030493049BC5E7294BD3F8E02042F051
:104A08001002C3F8E020D3F8E03003F01003059358
:104A1800059BB7E7224BD3F8E02042F02002C3F809
:104A2800E020D3F8E03003F020030693069BA9E7C3
:104A38001B4BD3F8E02042F04002C3F8E020D3F843
:104A4800E03003F040030793079B9BE7144BD3F830
:104A5800E02042F08002C3F8E020D3F8E03003F011
:104A680080030893089B8DE70D4BD3F8E02042F4B0
:104A78008072C3F8E020D3F8E03003F48073099320
:104A8800099B7FE7064BD3F8E02042F40072C3F895
:104A9800E020D3F8E03003F400730A930A9B71E72F
:104AA80000440258704700BF0F4B1B780BB9012018
:104AB800704710B504464FF47A700C4AB0FBF3F314
:104AC8001068B0FBF3F000F0C1FE0F2C00D808B15D
:104AD800012010BD002221464FF0FF3000F056FEA5
:104AE800034B00201C6010BDB4000024AC0000245F
:104AF800B800002438B50320124D00F035FE124CE2
:104B080004F0B4FB114A12499369C3F30323CB5C45
:104B180003F01F0320FA03F30E202B60926902F0C2
:104B28000F028A5C02F01F02D3402360FFF7BCFF2C
:104B380010B10124204638BD0446FFF7B3FF2046D4
:104B480038BD00BFAC000024B00000240044025867
:104B5800781E0108034A044B11681B780B44136044
:104B6800704700BFA4190024B4000024014B186842
:104B7800704700BFA419002438B50446FFF7F6FFB4
:104B88000546631C02D0044B1B781C44FFF7EEFF5C
:104B9800431BA342FAD338BDB4000024014B186864
:104BA800000C70470010005C704700BF806B08B5B0
:104BB800FFF7FAFF08BD00BF836B5A6D12F0500F64
:104BC8005A6D10B51DD1196842F400725A650A6809
:104BD80012F0080FCA681BD012F4406F0DD1CA68D2
:104BE80094040AD45A6D22F480725A655A6DD1041D
:104BF80003D45A6D42F001025A651846FDF7BEFF0C
:104C080010BDD2060AD4DB6CBDE81040DB6C184737
:104C18009007E7D01846FDF7B1FFF1E71846FEF711
:104C280051F810BD806B08B5436D43F040034365F0
:104C3800836D43F004038365FEF744F808BD00BFA5
:104C4800F0B5002283B0019290F85020012A00F0BC
:104C58001C81034601201A6883F850009468640791
:104C680000F18A800C68C4F31305002D40F08F8092
:104C7800C4F38464A0404D684FF01F0ED6694FEA14
:104C8800951C30430CF00C0CD06105F01F0002F1AC
:104C9800300584400EFA00FE5CF8050020EA0E009C
:104CA80004434CF80540906840076ED4956815F0A9
:104CB800080547D10C68072002F11406B94F4FEADE
:104CC800D45CC4F304540CF0040C00FA04FE8868A5
:104CD80000FA04F45CF8060020EA0E0020434CF8C1
:104CE8000600386800F07040B0F1805F00F0C580C1
:104CF800D068D668C70600F1E880C6F3820648691E
:104D0800760000FA06F60F69042F00F0C18002F160
:104D18006004086854F827C000F0F8400CF0004C14
:104D280040EA0C00304344F82700487E0E69012809
:104D380054F8260008BF4FF0004520F00040054316
:104D480044F826509068C40714D4CE68086806F062
:104D58001807954CD2F8C050FC40C0F31307044024
:104D680025EA07052C43C2F8C040904CA64246D01D
:104D7800002816DB002003E05A6D42F020025A6535
:104D8800002283F8502003B0F0BD9068DAE794FA67
:104D9800A4F5B5FA85F5C4F3846405F01F05A840A9
:104DA80069E783498A4200F0B68001F580718A423A
:104DB80000F0B1807F4D804CA968A46801F0E076CE
:104DC800E44304F00104002C00F0B4807B4CA042C2
:104DD80000F0FC807A4CA04200F01A81794CA04285
:104DE800C8D14902C6D474498A42C3D1AA680020EE
:104DF80022F0E072324342F48002AA60C0E7002F3A
:104E08006AD090FAA0F4B4FA84F4013404F01F04D0
:104E1800092C00F2A48090FAA0F4B4FA84F490FA71
:104E2800A0F5B5FA85F5013401260135A40605F08B
:104E38001F0504F0F84406FA05F52C4390FAA0F093
:104E4800B0FA80F0304400F01F0000EB400000058D
:104E58002043C60D02F11405C0F30450072406F0E0
:104E6800040604FA00F7745924EA07048F6807FA5D
:104E780000F02043705108687AE7D6684869C6F39D
:104E88008206760000FA06F63DE7022003B0F0BD80
:104E9800106E0C6800F0F840A506B0EB846F30D0B7
:104EA800506E00F0F840854226D0906E00F0F84031
:104EB80085422BD0D06E00F0F84085427FF442AF97
:104EC800D06E20F00040D0663CE77608486906F0CE
:104ED800080600FA06F616E7800E441C04F01F06C2
:104EE800092E2DD8A406012004F0F844B04004434C
:104EF80006EB46000005ABE7506E20F00040506618
:104F0800D3E7106E20F000401066C9E7906E20F0DD
:104F180000409066CEE7264C2B4D04F58074A968B6
:104F280054F8F86CA468344301F0E076E44304F0E4
:104F3800010448E75A6D012042F020025A651FE734
:104F480006EB4600A50601241E3805F0F84504FACC
:104F580006F60005354340F00070284379E790FADB
:104F6800A0F5B5FA85F590FAA0F4B4FA84F4013501
:104F780001260134AD0604F01F0405F0F84506FAD1
:104F880004F4254390FAA0F4B4FA84F4344404F009
:104F98001F0404EB4404A4F11E00000540F0007057
:104FA800DBE700BF0010005CFFFF0F000000FF47B9
:104FB800002002400063025800600258000084CBC1
:104FC800000052C70000B8CF0023024008023FF596
:104FD800D1AE17498A427FF4CDAE164AA968126845
:104FE800154821F0E07192093143A0FB020241F417
:104FF80000019209A96052000192019A002A3FF427
:10500800B9AE019A013A0192019A002AF9D1B1E6A2
:1050180011F080707FF4AEAE05498A427FF4AAAEE3
:10502800AA6822F0E072324342F08072AA60A7E6D2
:1050380000600258AC000024632D3E0503689A689E
:10504800D20701D5002070479968214A114270B5EE
:10505800044608D0636D012043F010036365A36D17
:105068000343A36570BD99681A4A0A4042F00102D9
:105078009A60FFF77BFD2368174A054693421ED0C6
:1050880002F5807293421AD0144A9268114E0AE0CF
:105098009A68324042F001029A60FFF767FD401BB0
:1050A8000228D7D823681A68D2070FD49A68D1077C
:1050B800EED5FFF75BFD401B0228F3D9CAE7084A83
:1050C8009268D006E2D0074A9342DFD1002070BD33
:1050D8003F000080C0FFFF7F0020024000630258AD
:1050E80000230240002102402DE9F0413A4D0446D8
:1050F80000680F461646A84219D0384B984216D079
:10510800374DAB688068420716D494F85020012ABE
:1051180012D003F01F080122B8F1090F84F85020BB
:105128000DD90023012084F85030BDE8F0812D4DC1
:10513800AB6880684207E8D50220BDE8F08140F2FC
:10514800212323FA08F3DB4313EA0205E9D12046B9
:10515800FFF774FF002839D1626D234B2168134093
:1051680043F480736365B8F1000F02D01B4B99427A
:1051780003D0636D23F480136365636D13F4805368
:1051880028D0A36D23F00603A365E06C3346174DC2
:105198003A464031C563164D0564164DC5641C2555
:1051A80041F8405C002584F8505051F83C5C45F0CB
:1051B800100541F83C5C00F059FE22680E4B9168DE
:1051C8000B4043F004039360BDE8F08184F850502D
:1051D800BDE8F081A365D8E7002002400021024025
:1051E8000063025800230240FEF0FFFFC14B000895
:1051F800B54B00082D4C0008C0FFFF7F38B5036889
:105208009A68910702D59B68002038BD9A68D20732
:1052180023D59A68044602F00D02012A08D0636D6E
:10522800012043F010036365A36D0343A36538BDF4
:10523800986803210A4A024042F002029A60196003
:10524800FFF794FC054604E0FFF790FC401B02289A
:10525800E5D823689B68DB07F6D4002038BD00BF7B
:10526800C0FFFF7F38B5574A04460368934226D0EB
:1052780002F58072934222D0534B9B6813F4403F4F
:1052880022D004F0ADF963680546B3F5003F00F09D
:105298008880B3F5403F70D0B3F5803F00F081803F
:1052A800FFF77CFC41F2030398422DD8474B9D42FF
:1052B8005DD92268936843F48073936038BD444B8A
:1052C8009B6813F4403FDCD14FF4002005F054FAFA
:1052D80063680546B3F5101F6DD008D8B3F5E01F15
:1052E80055D01AD9B3F5001FDAD14509D8E7B3F577
:1052F800201F4AD0B3F5301FD2D1FFF74FFC41F23F
:105308000303984233D92D0A324B9D421DD8226897
:10531800936823F44073936038BDB3F5801F06D0BB
:105328000AD9B3F5A01F02D0B3F5C01FB8D19B0CA2
:105338005B00B5FBF3F5B3E7B3F5002FF7D023F423
:105348000022B2F5802FF2D0AAE7234B234A2B4440
:1053580093421ED9224B234A2B44934222689368D6
:105368002BD823F4407343F40073936038BD22684C
:10537800936823F48073936038BD8508FFF70EFCAB
:1053880041F203039842BFD890E7C50988E70509A9
:1053980086E72268936823F4407343F4807393602C
:1053A80038BD1B0CB5FBF3F5FFF7F8FB41F203031F
:1053B8009842A9D87AE7850972E743F44073936065
:1053C80038BD00BF0020024000630258002D3101A3
:1053D80000230240105E5F00EFA1A0FF0F5E5F0098
:1053E800DF4341FF1FBCBE0030B5002383B00193EB
:1053F800002800F0D080456D0446002D00F0BA80EA
:10540800226893689B0003D59168714B0B409360A9
:105418009368DD0015D46F4B90686F491B68014095
:105428006E489B0941F08051A0FB030391609B09E2
:105438000193019B2BB1019B013B0193019B002B25
:10544800F9D19368D80024D4636D012543F0100383
:105458006365A36D2B43A365936813F0040F636D15
:105468001DD1D9061BD4636D23F4817343F0020365
:1054780063659368DB0728D4594B9A4217D003F524
:1054880080739A4213D0574B9B68D9071DD4564A4C
:1054980015E09368002513F0040F636DE1D0636D88
:1054A800012543F010032846636503B030BD4C4A1C
:1054B8004E4B92689B681343D80706D44C4A9368AE
:1054C800616823F47C130B439360FFF767FB41F299
:1054D8000303A1689842237F52D894F815C01A0490
:1054E800206B42EA4C3202430A43012B03D1236A60
:1054F800013B42EA4342636A23B103F47873A16A29
:105508000B431A4323683B49D86801400A43DA60D1
:105518009A6812F0040F9A681CD112071AD4D86836
:10552800354A217D024042EA8132E16A0A43DA6063
:1055380094F83820012A3AD01A6922F001021A6137
:105548001A692046616B22F070420A431A61FFF71C
:1055580089FE2368E268012A21D01A6B22F00F0223
:105568001A63636D284623F0030343F00103636560
:1055780003B030BDFDF7B0FAA56584F850503FE799
:105588001029AAD1617D1A0442EA4132216B0A43EB
:1055980042F01C02A9E70125284603B030BD196B6B
:1055A800A26921F00F01013A0A431A63D9E7D4E945
:1055B800102118690A43114901400A43A16C0A43A2
:1055C800E16B42EA014242F001021A61B8E700BF0A
:1055D800C0FFFF5FAC000024C0FFFF6F632D3E05D6
:1055E8000020024000600258006302580021024077
:1055F8000023024003C0F0FFFCBFFFFF1EF800FCC1
:10560800F0B5002383B0019390F85030012B40D0BF
:10561800012304460E46154680F85030FFF7EEFD8C
:10562800E8B9676D05F080421B4B06F480311B4DCD
:105638003B401B4F43F00203636523689E68354077
:1056480015430D4345F000459D609A68002A0FDB1D
:10565800636D23F0030343F00103636503E0636DA7
:1056680043F010036365002384F8503003B0F0BDA5
:10567800019A01320192019ABA42E6D9636D002279
:10568800012023F0120384F8502043F010036365CF
:10569800ECE7022003B0F0BDFDEEFFFFC0FFFE3FC8
:1056A800FF955A55F0B490F850200E68012A49D059
:1056B8000346294A01201C6883F85000944208D008
:1056C8005A6D002142F0200283F850105A65F0BC50
:1056D8007047224DAA6852070AD5A2685A6D012060
:1056E80042F020025A65002283F85020F0BC70472F
:1056F800A06810F00400F1D1C6B1DFF868C04F68A7
:10570800DCF8082022F440423A43CCF80820A46888
:10571800AA682243D40713D48A68DCF80810164311
:105728000F4A0A401643CCF80860DCE70D498A683E
:1057380022F440428A60A068AA680243D00704D5D0
:105748000020D0E70220F0BC70478C683046044A3D
:1057580022408A60C7E700BF0020024000210240C3
:10576800E0F0FFFF0023024006494FF6FF0C00025D
:10577800054BCA6800F4E06002EA0C0210430343D8
:10578800CB60704700ED00E00000FA051B4BDB68BA
:10579800C3F3022300B5C3F1070E03F1040CBEF1F5
:1057A800040F28BF4FF0040EBCF1060F1AD9033BB3
:1057B8004FF0FF3C0CFA03FC22EA0C024FF0FF3CCE
:1057C80000280CFA0EFC21EA0C0101FA03F141EA67
:1057D80002010ADB09010A4BC9B2034483F800132A
:1057E8005DF804FB00221346E8E700F00F0009010A
:1057F800044BC9B2034419765DF804FB00ED00E0E0
:1058080000E100E0FCEC00E0002807DB00F01F01ED
:1058180001234009024A8B4042F82030704700BFFC
:1058280000E100E000280DDB4309012200F01F0021
:105838000549203302FA00F041F82300BFF34F8FE7
:10584800BFF36F8F704700BF00E100E0431EB3F164
:10585800807F0CD24FF0E022002006494FF0F00C78
:105868005361072381F823C09061136170470120B9
:10587800704700BF00ED00E0BFF35F8F044B0021CD
:105888005A6A22F480325A62C3F89410704700BFF3
:1058980000ED00E0064B40F00100C3F894005A6A9E
:1058A80042F480325A62BFF34F8FBFF36F8F704755
:1058B80000ED00E0174A4378C2F89830017821B328
:1058C800436800B5C2F89C30C37A90F80CC01B0638
:1058D80090F80FE043EA0C7390F80AC00B43817B01
:1058E80043EACC4390F80DC043EA8C4390F809C0D2
:1058F80043EA4143017A43EA0E4343EA0C2343EA6D
:105908004103C2F8A0305DF804FBC2F89C10C2F84D
:10591800A010704700ED00E0704700BF08B5FFF722
:10592800FBFF08BD0268344B344930B4344D354C64
:10593800AA4218BF9A420CBF012300238A4208BF1B
:1059480043F001033031A24208BF43F00103303471
:105958008A4208BF43F001033031A24208BF43F036
:10596800010330348A4208BF43F0010301F55C713A
:10597800A24208BF43F0010304F55C748A4208BFE1
:1059880043F001033031A24208BF43F00103303431
:105998008A4208BF43F001033031A24208BF43F0F6
:1059A800010330348A4208BF43F001033031A24278
:1059B80008BF43F001038A4208BF43F0010313B94B
:1059C800114B9A4213D1D3B21049114C103BA1FB91
:1059D80003515F2B0F4BC1F3021103EA0203615C11
:1059E80088BF0433C1658365184630BC704722F010
:1059F800FF038365F8E700BF100002404000024043
:105A08002800024058000240B8040240ABAAAAAAE3
:105A1800E01E010800FCFFFF0368294A294930B449
:105A2800294D2A4CAB4218BF93420CBF01220022D9
:105A38008B4208BF42F001022831A34208BF42F05E
:105A4800010228348B4208BF42F001022831A342E8
:105A580008BF42F001028B4208BF42F0010212B9AE
:105A68001B4A934213D1DBB21A4C1B4A0121083B53
:105A78001A4DA4FB0343456602EB1312C3F3041348
:105A8800920001FA03F30266836630BC7047DAB20B
:105A98001349144C1944103AA829A4FB02234FEACD
:105AA800131300D80833104A03F01F0501210F4CC7
:105AB8001A44A9404466920081660266E5E700BF81
:105AC80008540258305402581C540258445402587E
