:020000040800F2
:1000000000000220FD060008F9060008B9390008C2
:10001000F9060008F9060008F906000800000000CB
:10002000000000000000000000000000F9060008C9
:10003000F906000800000000F9060008A9390008C8
:10004000F9060008F9060008F9060008F906000894
:10005000F9060008F9060008F9060008F906000884
:10006000F9060008F9060008F9060008B13500088D
:10007000BD3500080D250008C9350008D535000834
:10008000F9060008E12A0008F9060008F906000848
:10009000F9060008F9060008F9060008F906000844
:1000A000F9060008F9060008F9060008F906000834
:1000B000F9060008F9060008F9060008152B0008E3
:1000C000F9060008212B0008F906000875C9000888
:1000D000F9060008F9060008F9060008F906000804
:1000E000F9060008F906000800000000F9060008FB
:1000F000F9060008F9060008F906000881C9000899
:10010000F9060008F9060008F9060008F9060008D3
:10011000F9060008F9060008F9060008F9060008C3
:10012000F9060008F9060008F9060008F9060008B3
:10013000F9060008F9060008F9060008F9060008A3
:1001400000000000000000000000000000000000AF
:10015000F9060008F9060008F9060008F906000883
:100160002D2B0008F9060008FD1F000809200008D3
:10017000F906000815200008F9060008F90600082D
:10018000F9060008F9060008F9060008F906000853
:10019000F9060008F9060008F9060008F906000843
:1001A000F9060008F9060008F9060008F906000833
:1001B000D1320008F9060008F9060008F90600081F
:1001C000F9060008F9060008212000082D20000883
:1001D000F906000839200008F9060008F9060008A9
:1001E000F9060008F9060008F9060008F9060008F3
:1001F000F9060008F9060008F9060008F9060008E3
:10020000F9060008F9060008F9060008F9060008D2
:10021000F9060008F9060008F9060008F9060008C2
:10022000F9060008F9060008F906000800000000B9
:10023000F9060008F906000800000000F9060008A9
:10024000F9060008F9060008F9060008F906000892
:10025000F9060008F9060008F9060008F906000882
:10026000F9060008F9060008F9060008F906000872
:10027000F9060008F9060008F90600080000000069
:10028000F9060008F9060008F90600080000000059
:0802900000000000F90600085F
:1002A00010B5054C237833B9044B13B10448AFF3B0
:1002B00000800123237010BD88030024000000008B
:1002C00010FF000808B5034B1BB103490348AFF307
:1002D000008008BD000000008C03002410FF00080F
:1002E00001F0FF01102A2BDB10F0070F08D010F8E7
:1002F000013B013A8B422DD010F0070F42B3F6D1EB
:10030000F0B441EA012141EA014122F007047FF003
:1003100000070023F0E80256083C85EA010586EA5A
:10032000010685FA47F5A3FA87F586FA47F6A5FA96
:1003300087F68EB9EED1F0BC01F0FF0102F00702A2
:1003400032B110F8013B013A83EA010313B1F8D14D
:100350000020704701387047002D06BF354603382E
:10036000073815F0010F07D1013015F4807F02BF67
:10037000013015F4C03F0130F0BC0138704700BFB8
:1003800081F0004102E000BF83F0004330B54FEA46
:1003900041044FEA430594EA050F08BF90EA020FB3
:1003A0001FBF54EA000C55EA020C7FEA645C7FEA46
:1003B000655C00F0E2804FEA5454D4EB5555B8BF69
:1003C0006D420CDD2C4480EA020281EA030382EADA
:1003D000000083EA010180EA020281EA0303362D6C
:1003E00088BF30BD11F0004F4FEA01314FF4801C3F
:1003F0004CEA113102D0404261EB410113F0004F51
:100400004FEA03334CEA133302D0524263EB430307
:1004100094EA050F00F0A780A4F10104D5F1200EA5
:100420000DDB02FA0EFC22FA05F2801841F1000100
:1004300003FA0EF2801843FA05F359410EE0A5F1D4
:1004400020050EF1200E012A03FA0EFC28BF4CF005
:10045000020C43FA05F3C01851EBE37101F00045BB
:1004600007D54FF0000EDCF1000C7EEB00006EEBC8
:100470000101B1F5801F1BD3B1F5001F0CD3490852
:100480005FEA30004FEA3C0C04F101044FEA4452A9
:1004900012F5800F80F09A80BCF1004F08BF5FEA30
:1004A000500C50F1000041EB045141EA050130BD10
:1004B0005FEA4C0C404141EB0101013C28BFB1F522
:1004C000801FE9D291F0000F04BF01460020B1FA6D
:1004D00081F308BF2033A3F10B03B3F120020CDA40
:1004E0000C3208DD02F1140CC2F10C0201FA0CF01E
:1004F00021FA02F10CE002F11402D8BFC2F1200C83
:1005000001FA02F120FA0CFCDCBF41EA0C01904038
:10051000E41AA2BF01EB0451294330BD6FEA040481
:100520001F3C1CDA0C340EDC04F11404C4F120026C
:1005300020FA04F001FA02F340EA030021FA04F37E
:1005400045EA030130BDC4F10C04C4F1200220FAD5
:1005500002F001FA04F340EA0300294630BD21FA13
:1005600004F0294630BD94F0000F83F4801306BFD9
:1005700081F480110134013D4EE77FEA645C18BFCD
:100580007FEA655C29D094EA050F08BF90EA020F64
:1005900005D054EA000C04BF1946104630BD91EA5C
:1005A000030F1EBF0021002030BD5FEA545C05D15F
:1005B0004000494128BF41F0004130BD14F580049E
:1005C0003CBF01F5801130BD01F0004545F0FE4112
:1005D00041F470014FF0000030BD7FEA645C1ABF47
:1005E000194610467FEA655C1CBF0B46024650EA7E
:1005F000013406BF52EA033591EA030F41F40021AA
:1006000030BD00BF90F0000F04BF0021704730B52F
:100610004FF4806404F132044FF000054FF0000104
:1006200050E700BF90F0000F04BF0021704730B5C5
:100630004FF4806404F1320410F0004548BF40429A
:100640004FF000013EE700BF42004FEAE2014FEAEF
:1006500031014FEA02701FBF12F07F4393F07F4FCA
:1006600081F06051704732F07F4208BF704793F0CD
:100670007F4F04BF41F40021704730B54FF46074E0
:1006800001F0004521F000411CE700BF50EA0102E3
:1006900008BF704730B54FF000050AE050EA01028C
:1006A00008BF704730B511F0004502D5404261EBFC
:1006B00041014FF4806404F132045FEA915C3FF43D
:1006C000D8AE4FF003025FEADC0C18BF03325FEADA
:1006D000DC0C18BF033202EBDC02C2F1200300FA8B
:1006E00003FC20FA02F001FA03FE40EA0E0021FAB0
:1006F00002F11444BDE600BFFEE700BF0B480C4A00
:10070000904203D0121A0B490DF090FF0A480B4A91
:10071000904203D0121A00210DF096FF03F0FCFA6C
:100720000DF058FF00F02AF8FEE700BF000000249B
:100730008403002434FF000888030024D4470024E5
:10074000704700BF704700BFA2B170B50D46164696
:10075000002409480DF058FBD5E9000300EB8400A4
:1007600003EB8403013480ED000AA64283ED000A06
:10077000EFD170BD704700BFE003002410B55348AF
:10078000534C2DED048B94B0B6EE008A00F0D0F8F7
:1007900000214E4800F070F9002001F06BFB1C2096
:1007A00000F0E4F8ADF804009FED4A0A0022019938
:1007B00004A801F07DFA0F2000F0D8F803460BA83A
:1007C000ADF80830029901F03DFC102000F0CEF8A1
:1007D00003460DF13D00ADF80C30039901F032FCF9
:1007E0000BA9022204233C4801F03AFC3A4801F0EC
:1007F0001BFE364800F0D4F8F7EE006AF0EE407ABF
:1008000000239FED360A2046636186EEA77AC4ED89
:10081000037A84ED020A84ED018A84ED047A0DF0F6
:10082000D5FCF0EE407A002240F201139FED2C0A35
:1008300020462270C4ED067AA38484ED018A84EDFB
:10084000020A0DF0C3FC2148264984ED060A00F097
:10085000A3F8254801F000FB00211F4801F0FAFD34
:10086000DFED227AB0EE408A9FED1A9A20EE270A39
:10087000174884ED018A84ED020A0DF0A7FC0121DE
:10088000154884ED060A01F0E5FD68EE097A18487E
:10089000F0EE408AFDEEE77A17EE901A01F0DCFAEE
:1008A00028EE890A1348FDEEC07A17EE901A01F07F
:1008B000D3FAB0EE480A04A801F01EFA04A801F029
:1008C0002DFA012003F07AF8C6E700BFA403002444
:1008D000E003002400007A44BC0300240000C84266
:1008E0000000DC4349070008C8FA00080000FA4489
:1008F000DCFA0008E8FA000808B508480023084AAE
:1009000008490360436103620DF06CFC044A064928
:100910000648BDE808400DF065BC00BFA4030024F4
:10092000000000244107000845070008E0030024F8
:100930000B4901230B4A038280F8273080F82B30C3
:1009400010B4C0E90112084C40F2027140F6066290
:10095000C460A0F825105DF8044BA0F8292070476A
:100960000508050905070506050A06061F2882B0C1
:1009700009D8084B03EB400213F81030507843EAD3
:10098000002002B0704701230C2043EA002002B08F
:10099000704700BFF4FA0008143001F05FB900BFDF
:1009A000143001F057B900BFF0B5032399B0002708
:1009B0000125129306462C4B09A81595CDE90E7317
:1009C00040F20453ADF84030284BCDE9135709935A
:1009D00001F048FE09A801F021FF002835D1244B81
:1009E00004AF04460090CDF84230102339460495F8
:1009F0008DF820301F4BCDE91650CDE906506846E2
:100A0000059302F099F80823009A01A909A8ADF806
:100A100004508DF8064009940295039300F0CAF83B
:100A200000230EA938463024049302F04DFE032221
:100A30004FF07E5309A906F114000B93CDE909424A
:100A4000049A01F0D1F819B0F0BD40F60132084B1C
:100A5000169704AFADF824200998CDF842301795C9
:100A600000F068F8DCE700BF04020404030300019F
:100A7000040604030704010B30B504462DED028B78
:100A800083B079B3012140F2011200230091ADF847
:100A900004208DF8063003F0F5F8054670B3012305
:100AA000694604F130008DF8063003F053F8072D45
:100AB0003AD104F114052046FFF776FF284601F0ED
:100AC000C9F82846B0EE408A01F0C0F8D0ED007AAF
:100AD000F8EE677A88EE277A84ED0E7A03B0BDECE3
:100AE000028B30BD40F2011300918DF80610ADF875
:100AF000043003F0C7F805460028D0D1694604F158
:100B0000300003F027F8211D204602F05DFA04F1C1
:100B1000250001F0A7FD04F1290001F0A3FD04F177
:100B2000120000F071F9C4E7211D204602F04CFAD2
:100B3000BFE700BF10B584B003460124ADF8040040
:100B400003A8ADF80C30ADF80E4001F08BFD214646
:100B500003A801F071FE204602F030FF002103A837
:100B600001F06AFE204602F029FF214603A801F0A9
:100B700063FE04B010BD00BF10B5C2F3002384B003
:100B80000C46017C8DF80D2043EA4402FA2402232E
:100B90008DF80C2003AA009402F064F818B1012427
:100BA000204604B010BD04460A2002F007FF20468C
:100BB00004B010BD034670B543F8042B044684B05E
:100BC00007C983E80700A37983B91A210B461E22BF
:100BD000FA2523742046ADF80C20022303AA0095C1
:100BE00002F040F828B1012004B070BD1B210B4673
:100BF000EDE70A2002F0E2FE4FF4B852009502231E
:100C0000ADF80C20204603AA217C02F02BF8002826
:100C1000E9D10A2002F0D2FE41F2027200950223CD
:100C2000ADF80C20204603AA217C02F01BF8002816
:100C3000D9D10A2002F0C2FE042200950223ADF8A9
:100C40000C20204603AA217C02F00CF80028CAD10F
:100C50000A2002F0B3FE062200950223ADF80C2014
:100C6000204603AA217C01F0FDFF0028BBD10A2009
:100C700002F0A4FE41F2082200950223ADF80C20F8
:100C8000204603AA217C01F0EDFF0028ABD10A2009
:100C9000064602F093FE0095022303AA217C20461B
:100CA000ADF80C6001F0DEFF00289CD1304602F068
:100CB00085FE009522790C232046002A8DF80C3001
:100CC00003AA4FF0020314BF622142218DF80D10D8
:100CD000217C01F0C7FF002885D1304602F06EFE6E
:100CE0002279D4E902310B43DBB20AB943F0400365
:100CF00062790AB143F020030E22FA258DF80D30F7
:100D00002046009502238DF80C2003AA217C01F0D7
:100D1000A9FF00287FF467AF0A2002F04FFE1022DF
:100D200000950223ADF80C20204603AA217C01F097
:100D300099FF00287FF457AF0A2002F03FFE1221EE
:100D400000950223ADF80C1003AA217C204601F087
:100D500089FF00287FF447AF0A2002F02FFE01220E
:100D600009212046FFF708FF003818BF01203BE7A4
:100D7000F0B5102387B0234C01220025012600275F
:100D800002A920460195CDE902234FF48052CDE916
:100D9000046709F0E1FD642003F08EFD02A94FF421
:100DA00080522046CDE9046702261027CDE902676C
:100DB00009F0D2FD0322102302A92046CDE9022327
:100DC00000230422CDE904234FF4805209F0C4FD2E
:100DD00040F23223042202A9019310232046CDE9D8
:100DE0000223019A012305924FF48052049309F0E3
:100DF000B3FD40F60601204609F0CEFD284607B0B7
:100E0000F0BD00BF100400241C4B00221C494FF011
:100E1000400C30B5054689B00220596007219A6020
:100E20001A620124DA620A224FF4006EDC60069234
:100E30002022CDE9000104200821CDE90201032090
:100E40001021CDE9040108206946C3E904024FF4EA
:100E5000C072181DC3E906C24FF48052C3E909E20B
:100E600009F050FD38B92846FFF782FF003818BF57
:100E7000012009B030BD204609B030BD0C0400246B
:100E800040410052614A0021D0B513688EB00A91EA
:100E9000002B40F0B9805E4B01214FF683700C248B
:100EA00011600221D3F8D4200026032742F4805297
:100EB000C3F8D420D3F8D42002F480520092009AD0
:100EC000D3F8E02042F01002C3F8E020D3F8E0208D
:100ED00002F010020192019AD3F8E02042F04002A1
:100EE000C3F8E020D3F8E02002F040020292029A18
:100EF000D3F8E02042F00802C3F8E020D3F8E02065
:100F000002F008020392039AD3F8E02042F48072C0
:100F1000C3F8E020D3F8E02002F480720492049A2F
:100F2000D3F8E02042F08002C3F8E020D3F8E020BC
:100F300002F080020592059AD3F8E02042F02002E8
:100F4000C3F8E020D3F8E02002F020020692069ACF
:100F5000D3F8E02042F00402C3F8E020D3F8E030F8
:100F60000C9403F0040307930323079A0B93CDE932
:100F7000080108A9274805F025FB48F2371202238B
:100F800008A925480C94CDE90823CDE90A6705F0A6
:100F900019FB4CF20372022308A920480C94CDE9F6
:100FA0000823CDE90A6705F00DFB40F2FF6202233A
:100FB00008A91B480C94CDE90823CDE90A6705F080
:100FC00001FB4FF60C72022308A916480C94CDE9D8
:100FD0000823CDE90A6705F0F5FA4FF63F02022330
:100FE00008A911480C94CDE90823CDE90A6705F05A
:100FF000E9FA2022022308A90A480C94CDE90A67DD
:10100000CDE9082305F0DEFA0EB0D0BD08040024B7
:10101000004402580010025800180258000C0258F0
:1010200000200258001C0258001402582DE9F04F0D
:10103000DFF8108406460D46144608F114002DED25
:10104000028B89B000AF02F037FCD8F8143073B3CC
:10105000D8F81830D8F80490002B43690BBF4FF034
:10106000080A4FF0100A4FF0020B4FF0040BB9F1D1
:10107000000F2AD0A200EA46012B02F1070222F05B
:101080000702ADEB020D6846ADEB020D694600F0BC
:101090003F81022B00F0D680002B6FD02246C8473C
:1010A000D5462437BD46BDEC028BBDE8F08FD8F89D
:1010B0001830002BF5D0D8F804904FF0080A4FF004
:1010C000020B4369B9F1000FD4D1FB61D8F80030AD
:1010D000BB61002BE5D0D54802F060FC6B46BBF14C
:1010E000020F786108EE103AFB6900F083816A46CE
:1010F0005146A2EBC40295466200EA46B2FBFBF2FF
:10110000AAEBC40085460AEB8200EE46F861ADEB1F
:10111000010DF8690EEB820CC7F810C0EC46ADEB80
:10112000010D00EB8201CCF80400CCF8081001EBB3
:1011300082013869E946CCF80C1000EB8201CCF84A
:1011400000A001EB8202C9E900E0C9E90212012B0B
:1011500000F06483022B00F06C82002B00F0808191
:10116000620849466046BB69984718EE103A243732
:101170009D46BD46BDEC028BBDE8F08F002C8DD0A6
:101180001A46D8ED0B6A9FEDB27A8446331D36F9C4
:1011900022E00CF1080C07EE90EA33F922E002326B
:1011A000F8EEE77A944267EE877A67EEA67A4CED1E
:1011B000027A07EE90EAF8EEE77A67EE877A67EE52
:1011C000A67A4CED017AE2D8F9612246C847984EDA
:1011D000D8ED046A0020F9692B1D9FED9E7A9FEDE2
:1011E0009E6ADFED9E5A22E0F4EEC67AF1EE10FA26
:1011F000C0F2C88447F6FE72D1ED017A45F820208E
:1012000066EEA77AF4EEC77AF1EE10FA40F2F080BB
:10121000F4EEC67AF1EE10FAC0F2D58447F6FE720B
:1012200043F820200230083184427FF639AFD1EDF7
:10123000007A66EEA77AF4EEC77AF1EE10FAD3D808
:101240003246D9E7002C3FF429AFD8ED0B6A84462B
:101250009FED787A0022331D8E4656F822100CF14D
:10126000080C07EE901A53F822100232F8EEE77AD3
:10127000944267EE877A67EEA67A4CED027A07EE23
:10128000901AF8EEE77A67EE877A67EEA67A4CED69
:10129000017AE2D871462246C7F81CE0C847664E7C
:1012A000D8ED046A0020F9692B1D9FED6A7A9FED45
:1012B0006A6ADFF894C120E0F4EEC67AF1EE10FA23
:1012C000C0F279843246D1ED017A45F8202066EEED
:1012D000A77AF4EEC77AF1EE10FA40F28780F4EEC6
:1012E000C67AF1EE10FAC0F25E84324643F820204E
:1012F0000230083184427FF6D3AED1ED007A66EE3B
:10130000A77AF4EEC77AF1EE10FAD5D86246DAE79A
:10131000002C3FF4C3AED8ED0B6A86469FED477AAA
:101320004FF0000C331D56F82C200EF1080E82F4FD
:101330000002A2F5000207EE902A53F82C200CF1CF
:10134000020CF8EEE77A82F400026445A2F500028E
:1013500067EE877A67EEA67A4EED027A07EE902A5C
:10136000F8EEE77A67EE877A67EEA67A4EED017AB5
:10137000D9D8F9612246C847314ED8ED046A002019
:10138000F9692B1D9FED337A9FED336ADFF8BCC0FE
:101390001FE0F4EEC67AF1EE10FAC0F2FC8332469A
:1013A000D1ED017A45F8202066EEA77AF4EEC77AEF
:1013B000F1EE10FA18D9F4EEC67AF1EE10FAC0F296
:1013C000DA83324643F820200230083184427FF627
:1013D00067AED1ED007A66EEA77AF4EEC77AF1EE49
:1013E00010FAD6D86246DBE76246EBE762467DE755
:1013F000324615E7A100D6466208073121F0070101
:10140000ADEB010DEA46ADEB010D6946ADEB0E0DFE
:101410000AEB8200EC46ADEB0E0D01EB8202F861A7
:10142000E946CCE900A0C9E9001290E65C0400247A
:101430000280FFFF000000300082FF7F00000034C8
:1014400082FF7F0044040024007E00807E0080FF35
:101450000000003804FF7FBF04FF7F3F00FEFF460F
:10146000002C00F0C982BBF1020FD8F8202000F058
:10147000FA827969C7F8049002EB810E5FED0C5A8D
:101480008A00DCF808100EF104007A611A46DCF8D4
:101490000C303B61331DD7F810903D61FD69C7E901
:1014A00002CB8C46834636F92210D8ED0B7A06EE35
:1014B000101A33F9221006EE901A3EF92210B8EEF7
:1014C000C66A07EE101AF8EEE66A3BF92210B8EE8B
:1014D000C77A26EE256A66EEA56A27EE257A26EEFD
:1014E000276A66EEA76A27EE277A07EE901A510858
:1014F0000232F8EEE77A0AEB8100944280ED006A4E
:1015000005EB810067EEA57AC0ED006A0CEB810067
:1015100009EB810180ED007A98ED0B7A67EE877A0E
:10152000C1ED007ABFD8D7F804903D69D7E902CB66
:1015300060466208BB6949469847D8F828307A69FE
:10154000D8ED046A1A441FED3D7A1FED3D6A2B1D4C
:10155000904602F1040A5FED3F5A0022A84ED9E9F5
:1015600000EC51E0F4EEC67AF1EE10FAC0F2C78258
:1015700047F6FE7045F822000CEB0100D0ED007A32
:1015800066EEA77AF4EEC77AF1EE10FA4BD9F4EED4
:10159000C67AF1EE10FAC0F2BA8247F6FE70BBF1DD
:1015A000020F43F822002BD0D9F808000844D0EDF0
:1015B000007A66EEA77AF4EEC77AF1EE10FA36D921
:1015C000F4EEC67AF1EE10FAC0F2CD8247F6FE7064
:1015D00048F82200D9F80C000144D1ED007A66EEFB
:1015E000A77AF4EEC77AF1EE10FA1ED9F4EEC67AB5
:1015F000F1EE10FAC0F2AF8247F6FE714AF82210FF
:10160000023294427FF6B1AD51080EEB81008900A1
:10161000D0ED007A66EEA77AF4EEC77AF1EE10FA12
:10162000A0D83046A6E73046B9E73146E6E730466F
:10163000CEE7002C00F0E081BBF1020FD8F820309B
:1016400000F0E1817A69DCF8081003EB820EC7F83C
:1016500004909300DFED6B5A0EF1040000227B61D1
:10166000DCF80C303B61331DD7F810903D61FD690B
:10167000C7E902CB8C46834656F82210D8ED0B7A88
:1016800007EE101A53F82210B8EEC76A07EE101AC8
:101690005EF82210F8EEC76A07EE101A26EE256AE9
:1016A0005BF82210B8EEC77A66EEA56A26EE276AC6
:1016B00027EE257A66EEA76A27EE277A07EE901ABC
:1016C00051080232F8EEE77A0AEB8100944280ED8D
:1016D000006A05EB810067EEA57AC0ED006A0CEBAD
:1016E000810009EB810180ED007A98ED0B7A67EEBD
:1016F000877AC1ED007ABFD8D7F804903D69D7E961
:1017000002CB60466208BB6949469847D8F8283042
:101710007A69D8ED046A1A449FED3E7A9FED3E6ADD
:10172000131D9246DFF8E4C00022FB612B1D364EEC
:10173000D9E9008E4EE0F4EEC67AF1EE10FAC0F26E
:10174000FC81304645F822000EEB0100D0ED007A16
:1017500066EEA77AF4EEC77AF1EE10FA49D9F4EE04
:10176000C67AF1EE10FAC0F2EF813046BBF1020FFB
:1017700043F822002AD0D9F808000844D0ED007AB6
:1017800066EEA77AF4EEC77AF1EE10FA35D9F4EEE8
:10179000C67AF1EE10FAC0F2C98130464AF822004A
:1017A000D9F80C000144D1ED007A66EEA77AF4EE88
:1017B000C77AF1EE10FA1ED9F4EEC67AF1EE10FAFD
:1017C000C0F2AD813146F86940F8221002329442ED
:1017D0007FF6CBAC510808EB81008900D0ED007A90
:1017E00066EEA77AF4EEC77AF1EE10FAA3D8604657
:1017F000A8E76046BAE76146E5E76046CEE700BF86
:101800000280FFFF000000300082FF7F007E00802A
:101810000000003404FF7FBF04FF7F3F002C00F076
:10182000EB807A690021D8F82030C7F8109003EBDC
:10183000820ED7F81C909300FD610EF104021FED9B
:101840000C6A7B61331D154656F821204808D8EDF7
:101850000B6ABBF1020F82F40002A2F5000207EE50
:10186000902A53F8212082F40002B8EEE77AA2F51C
:10187000000227EE067A07EE902A0AEB8002F8EEC5
:10188000E77A27EE267A67EE867A82ED007A09EB10
:1018900080024FEA800067EEA67AC2ED007A27D078
:1018A0005EF8212082F40002A2F5000207EE902AE1
:1018B00055F8212082F40002B8EEE77AA2F5000282
:1018C00027EE067A07EE902ADCF80820F8EEE77A91
:1018D000024427EE267A67EE867A82ED007A98ED4A
:1018E0000B7ADCF80C2067EE877A0244C2ED007AAE
:1018F00002318C42A8D8D7F8109060466208BB69C4
:101900004946FD699847D8F828307A69D8ED046AC5
:101910001A441FED407A1FED406A131D9246DFF80E
:10192000C4C20022FB612B1DAB4ED9E9008E4EE0F4
:10193000F4EEC67AF1EE10FAC0F2C580304645F8F2
:1019400022000EEB0100D0ED007A66EEA77AF4EEED
:10195000C77AF1EE10FA49D9F4EEC67AF1EE10FA30
:10196000C0F2BF803046BBF1020F43F822002AD0FC
:10197000D9F808000844D0ED007A66EEA77AF4EEB4
:10198000C77AF1EE10FA35D9F4EEC67AF1EE10FA14
:10199000C0F2AE8030464AF82200D9F80C0001446B
:1019A000D1ED007A66EEA77AF4EEC77AF1EE10FA7E
:1019B0001ED9F4EEC67AF1EE10FAC0F28B803146F1
:1019C000F86940F82210023294427FF6CEAB5108FB
:1019D00008EB81008900D0ED007A66EEA77AF4EE7C
:1019E000C77AF1EE10FAA3D86046A8E76046BAE7D6
:1019F0006146E5E76046CEE7224649466046BB6958
:101A00009847FFF7B2BBC7F810B0002298ED0B6AF9
:101A1000331DDFED726AD7F81CB0786956F82210D2
:101A200007EE901A53F82210B8EEE77A07EE901AF4
:101A300051080232F8EEE77A27EE267A0AEB810E99
:101A400094420BEB810167EEA67A27EE067A67EEE9
:101A5000867A8EED007AC1ED007ADFD88300D7F860
:101A600010B07B614DE61A46C7F810B098ED0B6ACE
:101A7000331DDFED5B6AD7F81CB0786936F92210A8
:101A800007EE101A33F9221007EE901AB8EEC77A53
:101A900051080232F8EEE77A27EE267A0AEB810E39
:101AA00094420BEB810167EEA67A27EE067A67EE89
:101AB000867A8EED007AC1ED007ADFD88300D7F800
:101AC00010B07B6134E5F0EE675AFEEEE45A15EE95
:101AD000900A34E7F0EE675AFEEEE45A15EE901ADB
:101AE0006EE7F0EE675AFEEEE45A15EE900A3AE71A
:101AF000F0EE675AFEEEE45A15EE900A4BE767EEF9
:101B0000A57AFDEEE77A17EE900A00B232E567EEAD
:101B1000A57AFDEEE77A17EE900A00B23FE5F0EE07
:101B2000675AFEEEE05A15EE901A4CE6F0EE675A50
:101B3000FEEEE05A15EE900A30E6F0EE675AFEEE41
:101B4000E05A15EE900AFDE5F0EE675AFEEEE05A17
:101B500015EE900A0AE667EEA57AFDEEE77A17EE33
:101B6000901A09B24AE567EEA57AFDEEE77A17EE1C
:101B7000900A00B22CE5F0EE675AFEEEE45A15EE3C
:101B8000902A1FE467EEA57AFDEEE77A17EE902A19
:101B900012B2FFF731BBF0EE675AFEEEE45A15EED3
:101BA000902AFFF7FDBBF0EE675AFEEEE05A15EE05
:101BB000902AFFF79BBBF0EE675AFEEEE05A15EE57
:101BC000902AFFF780BB67EEA57AFDEEE77A17EE65
:101BD000902A12B2FFF724BB82FF7F000000003082
:101BE000000000387E0080FF30B5154C154685B0EA
:101BF000046004F1080C01AB07C98CE80700D4EDC0
:101C0000047AF5EEC07A83E80700F1EE10FA14DDED
:101C1000F7EE006A86EEA77A84ED0B7A6DB1204666
:101C200040F8145F01F048FE064903690020064AA7
:101C3000E1616262E36005B030BD012005B030BDF6
:101C40004404002400200030000000300068083008
:101C5000704700BF0068143001F08EBE30B50468D4
:101C600083B00D46A3694BB1A3680020A26A216A24
:101C70009B00009004F1180001F020FEA3680748C3
:101C8000626A9B00E169009004F1140001F016FE05
:101C90000020C4E9005003B030BD00BF2D10000883
:101CA000024B0022C3E90522704700BF4404002410
:101CB00030B52DED028B83B0044601231546ADF8F7
:101CC00004101730BDF80410B0EE408A018063762E
:101CD00000F0C8FCB5FA85F3002200215B092575E8
:101CE000A16084ED048AA5756375C4E9002203B080
:101CF000BDEC028B30BD00BF20EE007ADFED067A2E
:101D000027EE000A60EE277A80ED020AFCEEE77A01
:101D1000C0ED017A704700BF00FF7F4790ED046A75
:101D2000B7EE007ADFED0E5A0346D0ED036AC5EE3A
:101D3000867A77EEA67AF4EEC77AF1EE10FAC8BF8B
:101D400077EEC77A90ED027AB4EEE77AC0ED037AC7
:101D50001730F1EE10FACCBF597D997D00F06CBDC3
:101D60000000F042704700BFF8B5134F3C687F2C6D
:101D700007D98023114A42F224411C463B60A2F855
:101D80007E100F4D2B68012B0AD90C4E0D4D2246AB
:101D90003146284600F028F90028F8D13860F8BD0F
:101DA00022460649074800F01FF90028F7D12B68A2
:101DB000386001332B60F8BD780400247C040024D3
:101DC00074040024FC04002430B4154C2168F1B1E3
:101DD0004B1E144DE81810F801298C4619460A2AA2
:101DE00001D00D2A02D14BB1013BF4E70CF1020303
:101DF0007F2B10D98023236030BC7047012202233F
:101E000023600D200A236854AB5430BC7047012274
:101E10000223044DF4E70CF101026146F0E700BF34
:101E2000780400247C04002410B5094C02460B46BB
:101E3000084821680844C1F180010CF06DFD236859
:101E400018442060FFF7C0FFFFF78EFF10BD00BFF2
:101E5000780400247C0400240FB400B583B004A9E6
:101E600051F8040B0191FFF7DFFF03B05DF804EBBD
:101E700004B0704710B504460021084800F02EF861
:101E8000002C074B14BF0222002206481A60FFF7FD
:101E9000E3FF0548FFF7E0FF10BD00BFFC0400248E
:101EA0007404002434FB000844FB0008064A074978
:101EB000074808B50CF096F9034A04490548BDE8FF
:101EC00008400CF08FB900BF00000024651D000819
:101ED000FC04002400050024704700BF012910B550
:101EE00006D0022915D051B1BDE8104005F078BEEA
:101EF0000A463448344909F079FDE8B1FEE7334B2E
:101F00000A46334C334934481C6009F06FFD68B110
:101F1000FEE701222C492B4809F068FD00B1FEE7DD
:101F20002E49284809F084FDC0B1FEE72B492A4814
:101F300009F07EFD60B1FEE72849224809F078FDEE
:101F400000B1FEE726491F4809F000FD08B3FEE78F
:101F50002449214809F0FAFCA8B1FEE720491948B4
:101F600009F0F4FC00B1FEE7164809F077FD0246DF
:101F700040B9164B164C174917481C6009F036FD3E
:101F800068B1FEE7FEE7144809F068FD0028ABD011
:101F9000FEE70C4809F062FD0028A5D0FEE70F49D6
:101FA0000D4809F045FD00B1FEE70E490A4809F069
:101FB000CDFC00B1FEE7084809F050FD002893D0A1
:101FC000FEE700BFA0070024A00000243C0A002474
:101FD000D91E000884000024040500240801002400
:101FE0006400002454000024084691B208B501F0B2
:101FF00083FF003818BF012008BD00BF014805F06D
:10200000CDB800BF28390024014805F0C7B800BF8B
:1020100028390024014805F0C1B800BF2839002440
:10202000014805F0BBB800BF20350024014805F089
:10203000B5B800BF20350024014805F0AFB800BF97
:102040002035002482B04FF0000C0323ADF80410BB
:10205000BDF8042080F810C00280438002B07047B1
:102060002DE9F04FBE4E00258FB0BE4C037006F137
:1020700040034260074601928846202229463046A6
:10208000C4F85831C4F85461CDE90355CDE905557C
:10209000CDE90755CDE90955CDE90B550CF0D4FA3A
:1020A0002022294604F59970C4F82151C4F825511D
:1020B000C4F82951C4F82D510CF0C6FA019B84F8DC
:1020C000385284F820317A68002A5FD02B46414686
:1020D000B64604F5907599464FF0010A03EB0310DC
:1020E000D1F800B0D1F804800133D1F808C022182B
:1020F000CE6844F800B0C2F80480C2F808C0D660C8
:10210000087C2EF8029B10740A7C05F8012F002A27
:1021100069D07A68113184F838A29A42DED84FF437
:10212000802291489DF8043008214FF000084FF0BC
:102130000009C4F874310023C4E957020122C4F82D
:10214000643184F87031C4E95A2194F83812C4E932
:10215000608981B3C4F88821002284F8713184F841
:1021600078313B78C4E96322A3B301220020012126
:10217000013B84F89421C4E96801082B2CD8DFE8DE
:1021800003F0ABB0B5BABFC4C9CFD6009DF80430D8
:102190000121C4F86421C4F874314FF4802384F819
:1021A0007021714AC4E9572308230022C4E95A1355
:1021B0000023C4E960230123002284F87131002345
:1021C00084F878310323C4F888313B78C4E963226A
:1021D000002BCAD184F89431644802F0A5FF03466D
:1021E00038B1FFBEFEE77A6811319A423FF676AF0A
:1021F00095E703A95D48039303F0F4F8054600282A
:1022000068D1022240F2FF73CDE9082300230422A3
:10221000CDE90A2394F82031002B00F0D5804FF04F
:10222000060921E0022B00F08980012B40F0C480D8
:102230009AF80130012B00F0C180002B4C4B18BFE5
:10224000002306A94948CDE9063902F099FB002888
:1022500040F0BF80013594F82031EDB2AB4240F23E
:10226000B380444B53F825902FB207EB071704EBCC
:10227000070A504600F0F6F905EB051323441B7CD2
:10228000042B7DDC022B00F3918000F08D8063191C
:10229000002283F81021E35D002BC3D19AF80130AE
:1022A000062B00F08580072B00F08A80022B00F0BF
:1022B0009680032B00F09580002B00F09680012B78
:1022C00000F09180042B00F09280052B2A4B18BF60
:1022D0000023B6E7FFBEFEE703224023C4E96623DE
:1022E0007AE707226023C4E9662375E70F2280237B
:1022F000C4E9662370E71F22A023C4E966236BE7C5
:102300003F22C023C4E9662366E77F22E023C4E9B5
:10231000662361E7FF224FF48073C4E966235BE71D
:1023200040F2FF124FF49073C4E9662354E740F281
:10233000FF324FF4A073C4E966234DE79AF80130E9
:10234000042B37D0052B3DD0002B40D0012B42D0A1
:10235000022B42D0032B094B18BF002371E700BFAB
:1023600000400030400A0024002002409C0B002462
:102370000002B02554FB00080000B84F0020903642
:1023800003233E1D04EB05084FF0000B264488F89C
:10239000103130460BF1010B00F064F998F8103160
:1023A00004365B45F5DC76E70123EAE70223E8E73C
:1023B000104B46E7104B44E7002342E70F4B40E742
:1023C0000F4B3EE70F4B3CE70FB0BDE8F08F0E4BD5
:1023D00037E7FFBEFEE70D4B33E70D4B31E70D4B03
:1023E0002FE70D4B2DE70D4B2BE70D4B29E70D4B41
:1023F00027E700BF0800900C1000C0102000F01468
:102400008000501D000180210004002A0008302EA9
:10241000001060320040C03A0080F03E0000524799
:10242000000021430000844B38B5094C40F2FF7294
:102430004FF0011104F5AE75284602F081FF94F8C3
:102440002021D4F854112846BDE8384002F0ECBCF5
:10245000400A0024064B0F29D3F8543198BF03EBF0
:1024600041031B8800EE103ABBEEC80A704700BF5C
:10247000400A0024214B02689A4200D07047204A4B
:1024800000232048D2F8D81030B51F4C41F020016D
:1024900083B0C4F8C001092004F5E075C4E97103F4
:1024A0004FF48060C2F8D810D2F8D8204FF4006101
:1024B000C4E9733094F8380202F02002C4F8D41151
:1024C0004FF40051984201922846C4F8D811C4E94B
:1024D0007833019B14BF00234FF48073C4F8DC31C0
:1024E00003F0A6F908B1FFBEFEE704F5AE73C4F829
:1024F000A851C4F8F83103B030BD00BF002002403D
:102500000044025840000240400A0024014803F001
:1025100007BD00BF000C002402682DE9F84F4B4BAB
:102520009A4201D0BDE8F88F494D95F83832002B1A
:10253000F8D095F82031002B77D0002405F10C0954
:1025400005F5997605F59077A04613E003F00101B3
:1025500017F811BCA9F1080000F06EF9BBF1010FEA
:1025600025D895F82031013409F111090236A2B2BB
:1025700093422BD917F8012F002AF4D0D5F8543103
:102580000021327833F81400D5F8583103EB0413E6
:1025900023F81200338801339BB233805FFA83FA49
:1025A0003A789A42D2D88A46A6F80080D0E7CAF391
:1025B0004001A9F1040000F03FF9BBF1020FCAF39A
:1025C0008001CED0484600F037F9CAE7002395F8DD
:1025D0003802204909229842C5F8C8314FF480607A
:1025E000C5F8C011C5F8C4214FF400614FF4005282
:1025F000C5F8CC3108BF4FF48073C5F8D821C5E9C0
:10260000740100221448C5E97732C5F8E42103F0CB
:102610000FF908B1FFBEFEE795F82021D5F8541157
:102620000E48BDE8F84F02F0FFBB0A4909224FF4FB
:102630008060C5F8C831C5E970124FF400614FF4ED
:102640000052C5E97330C5E97512DAE7002002408F
:10265000400A002440000240000C00249C0B00248F
:10266000704700BF30B583788FB00446022B37D057
:10267000032B33D0012B31D000230A93E378012BB5
:102680002AD0022B28D000230B93002320460C9342
:1026900001F0F0FF0546204601F0F4FF2378099091
:1026A000082B13D8DFE803F01F3245586B7E91A446
:1026B0000500594BD3F8E02042F48072C3F8E020C3
:1026C000D3F8E03003F480730893089B09A92846E7
:1026D00003F078FF0FB030BD0B93D6E70A93CDE738
:1026E00011230A93CAE74C4B09A92846D3F8E020E6
:1026F00042F00102C3F8E020D3F8E03003F0010318
:102700000093009B03F05EFF0FB030BD424B09A960
:102710002846D3F8E02042F00202C3F8E020D3F8C4
:10272000E03003F002030193019B03F04BFF0FB075
:1027300030BD394B09A92846D3F8E02042F0040205
:10274000C3F8E020D3F8E03003F004030293029BC7
:1027500003F038FF0FB030BD2F4B09A92846D3F83E
:10276000E02042F00802C3F8E020D3F8E03003F0A4
:1027700008030393039B03F025FF0FB030BD264BE6
:1027800009A92846D3F8E02042F01002C3F8E0205F
:10279000D3F8E03003F010030493049B03F012FF1E
:1027A0000FB030BD1C4B09A92846D3F8E02042F0F9
:1027B0002002C3F8E020D3F8E03003F020030593B3
:1027C000059B03F0FFFE0FB030BD134B09A928464F
:1027D000D3F8E02042F04002C3F8E020D3F8E03024
:1027E00003F040030693069B03F0ECFE0FB030BDF0
:1027F000094B09A92846D3F8E02042F08002C3F82B
:10280000E020D3F8E03003F080030793079B03F048
:10281000D9FE0FB030BD00BF0044025838B50546A0
:1028200001F028FF0446284601F02CFF014620460F
:10283000BDE8384004F0CEB870B506460D4601F04C
:1028400019FF0446304601F01DFF2A1E01462046AE
:1028500018BF0122BDE8704004F0C2B80023122264
:1028600070B586B0CDE9022304930368032B01D829
:1028700004230593061D841D304601F0FBFE05462A
:10288000304601F0FFFE034601A92846019303F0FC
:1028900099FE204601F0EEFE034620461C4601F05C
:1028A000F1FE01A903462046019303F08BFE06B01A
:1028B00070BD00BF634A0368934210B58CB028D046
:1028C000614A934258D0614A934200F09480604A32
:1028D000934201D00CB010BD5E4C5F48D4F8E0309C
:1028E00043F00203C4F8E030D4F8E03003F0020310
:1028F0000A930A9BFFF7B2FFD4F8F43043F0800349
:10290000C4F8F430D4F8F43003F080030B930B9B3D
:10291000E0E7504C5148D4F8E03043F00203C4F8EB
:10292000E030D4F8E03003F002030193019BFFF79D
:1029300095FFD4F8E83000221F2043F4001311461D
:10294000C4F8E830D4F8E83003F400130293029B93
:10295000D4F8D83043F00103C4F8D830D4F8D830D4
:1029600003F001030393039B02F0B0FD1F200CB0A2
:10297000BDE8104002F0E8BD364C3948D4F8E030EC
:1029800043F08003C4F8E030D4F8E03003F0800373
:102990000493049BD4F8E03043F00203C4F8E03021
:1029A000D4F8E03003F002030593059BFFF756FFD0
:1029B000D4F8E8300022212043F480031146C4F803
:1029C000E830D4F8E83003F480030693069BD4F88B
:1029D000D83043F00103C4F8D830D4F8D83003F02D
:1029E00001030793079B02F071FD21200CB0BDE8A5
:1029F000104002F0A9BD1B48FFF730FF154B002225
:102A00004820D3F8E840114644F40004C3F8E840F5
:102A1000D3F8E84004F400040894089CD3F8D840A4
:102A200044F00104C3F8D840D3F8D83003F00103D0
:102A30000993099B02F04AFD48200CB0BDE8104004
:102A400002F082BD0054004000580040005C00408D
:102A5000001C005800440258080F0024800C002479
:102A6000580D0024300E00242DE9F0431A4B87B096
:102A700000254FF010099E46EC46184BFF22E04619
:102A800067461A700EF118060EF13004CDE90055B4
:102A9000CDE90255ADF80090BCE80F00CDE9045532
:102AA000AEE80F009CE803000095ADF800908EE8BA
:102AB0000300B8E80F000FC69CE803000095ADF8CE
:102AC000009086E803000FCF0FC49CE8030084E861
:102AD000030007B0BDE8F083040000247C0C002450
:102AE00010B5EFF3108472B6084B1A78120602D5AF
:102AF00004B962B610BD1B78D82205485BB202FB50
:102B00000300143003F00CFAF2E700BF7C0C002441
:102B1000800C0024014804F027BA00BF0C0D0024EB
:102B2000014804F021BA00BFE40D0024014804F07C
:102B30001BBA00BFBC0E00242DE9F0430F68D82457
:102B40003F4D85B007FB04F4032F05EB040303603E
:102B500040DCCB680E46012B3CD84DD04FF0D80856
:102B6000B646DFF8FC9008FB0758BEE80F00C446E5
:102B7000ACE80F00DEF800300DF1100ECCF800309C
:102B8000D8F808C099E80F000EE90F000EEB870394
:102B9000BCF1010F53F8103CC8F88C3031D0BCF1B7
:102BA000020F42D0BCF1000F35D0317C8C34D823D9
:102BB000002201202C4403FB07534900C3E92602ED
:102BC000C3F894102046C3E92822C3E92A2203F05F
:102BD000BDFF18B1012005B0BDE8F08301462046D5
:102BE00004F0CEF90028F5D10146204604F0F2F9B0
:102BF000003818BF0120EEE70B7C103B672BADD9E6
:102C0000E8E701F03DF80F4B98420CBF0E4B0F4B1D
:102C1000C8F89030C9E701F033F80A4B98420CBF6E
:102C20000B4B0C4BC8F89030BFE701F029F8054B6F
:102C300098420CBF084B094BC8F89030B5E700BF6D
:102C4000800C0024000E27072D0FB0303211D02049
:102C50005F4390608A62E030200BA0101A09801058
:102C6000A8FA00082DE9F041D0F8008082B00D46A6
:102C700017461E4608F18C04204604F07DF92028F2
:102C8000FAD1D8F80C3073B96D002046089C334651
:102C90003A46A9B2009403F0AFFF003818BF0120F4
:102CA00002B0BDE8F081089B32463946204604F068
:102CB00077F8F2E7044B10221A7483F8E82083F8BF
:102CC000C02183F898227047800C002430B500237F
:102CD00095B04FF48071062204460B93069213932D
:102CE000CDE90C13CDE90E33CDE9113300F0CAFF65
:102CF00007282BD004F1100541F2883206A9284696
:102D000005F0BAF828B10123184684F85C3015B0F4
:102D100030BD0222022306A92846CDE90023102255
:102D20000123CDE9022300224FF48003CDE90423DF
:102D300005224FF0807306926A460F9341F2883362
:102D400005F006FA0028DED115B030BD03230120BE
:102D500084F85C3015B030BD70B50023A4B04FF0DE
:102D600080724FF480750446ADF806300D93CDE9BE
:102D700010320122CDE90E53CDE91223CDE91433EF
:102D8000002943D0F02300F1100508AEADF806305D
:102D9000C02341F2883231462846089305F06CF88A
:102DA00028B10123184684F85C3024B070BD41F28C
:102DB00088320DF10601284605F0C8F803460028C0
:102DC000EFD105224FF480711E93284616924FF0E2
:102DD00080721B9321931F9202AA9FED1F7BCDE966
:102DE0001C13CDE922338DED027B9FED1D7B41F25B
:102DF000883316A98DED047B9FED1B7B8DED067B43
:102E000005F0A6F90028CCD124B070BD00F1100562
:102E100008AE612341F2883231462846089305F016
:102E20002BF80028BDD141F288320DF10601284669
:102E300005F00AF90028B4D1BDF80630204623F089
:102E4000780343F04003ADF80630FFF73FFF00285A
:102E50009ED0A6E7AFF30080000000000100000054
:102E60001000000001000000000000000000400011
:102E70002DE9F04F00234FF4807501264FF0807844
:102E800004462DED028BABB08DF8073013932193E0
:102E9000299314950E96CDF85C80CDE91533CDE9D4
:102EA0001863CDE91A33CDE92253CDE92433CDE9B6
:102EB000273306231C9300F0E5FE072808D004F111
:102EC000100741F288321CA9384604F0D5FF40B102
:102ED0000123184684F85C302BB0BDEC028BBDE8B2
:102EE000F08F4FF0020A4FF0020B4FF0050941F24C
:102EF000883308AA1CA93846CDF89480CDF8709084
:102F00009FED2D8BCDE908AB4FF0000A4FF4800BFD
:102F10008DED0A8BCDE90CAB05F01AF90028D7D15D
:102F200041F2883238460EA904F0A6FF0028CFD11E
:102F3000402341F288320DF1070138468DF8073001
:102F400005F004F80028C3D141F288330EA902AA83
:102F50003846CDF83890CDF85C809FED197B8DED2B
:102F6000048BCDE906AB8DED027B05F0F1F803464D
:102F70000028ADD1CDF870904FF00109CDF89480C4
:102F80004FF00008219308AA29931CA938462295DE
:102F9000CDE92333CDE9273341F288338DED0A8B18
:102FA000CDE90CABCDE9088905F0D2F8002893D023
:102FB000304684F85C608FE71000000001000000DC
:102FC00040000000400000002DE9F043624CA3B037
:102FD0000D46046000F056FE072800F0A98028681E
:102FE00023466968AA6807C31E46AB8926F8043BD6
:102FF0003046257B677B04F021FFE0B9574B012D5C
:103000004FF00108E061236114BF4FF480134FF4C7
:103010000003C4E9058893FAA3F3B3FA83F34FF4EA
:103020008079013BC4F82490C4E90B003046236248
:1030300004F098FE38B10122134684F85C2018464B
:1030400023B0BDE8F08366230B90139041F28832E1
:1030500006A90693CDE90C90CDE90E00CDE911004B
:10306000304604F009FF0028E5D1992341F2883267
:1030700006A93046069304F0FFFE0028DBD10523A5
:103080001C9019906A4614934FF08073219014A9F4
:103090001D9341F288339FED2A7BCDE91A90CDE94B
:1030A0001F008DED007B9FED287B30468DED027B70
:1030B0009FED277B8DED047B05F04AF80028BAD1FF
:1030C00029462046FFF748FE0028B4D12046FFF7E6
:1030D000CFFE03460028AED1002FB0D11893304662
:1030E0000027002606AA14A9CDF86890CDE91F3361
:1030F000EB2314934FF440631B934FF40053179347
:103100004FF440431C93A0231693062319934FF0CA
:10311000805321934FF04073CDE906671D9305F06E
:103120008FF8034600288AD0434684F85C8086E7FF
:1031300001230322184684F85C2023B0BDE8F08305
:10314000000000000100000010000000010000006D
:103150000000000000004000E00F0024005000527A
:103160002DE9F04F8FB0414B0024026800AF9A4226
:103170007C63C7E90944C7E90B4403D03C37BD462B
:10318000BDE8F08F3A4B40F609213A48EB46D3F8B8
:10319000D42007F11C0607F1220A4FF0020942F47D
:1031A00080424FF00308C3F8D420D3F8D42002F4AF
:1031B0008042BA60BA68D3F8E02042F04002C3F817
:1031C000E020D3F8E02002F04002FA60FA68D3F879
:1031D000E02042F02002C3F8E020D3F8E02002F023
:1031E00020023A613A69D3F8E02042F01002C3F8B5
:1031F000E020D3F8E02002F010027A617A69D3F877
:10320000E02042F00202C3F8E020D3F8E030F86199
:1032100003F002033984BB61174B7B60BB697B6899
:1032200053F8040F7B6001F025FA7B6805461868A7
:1032300001F028FA16F8013B786207F124012846CC
:10324000C7F830807B63C7E90A9403F0BBF95645A1
:10325000E5D100225C20114602F038F95C2002F032
:1032600073F93C37DD46BD46BDE8F08F0050005293
:10327000004402580A0A09093C100024114B026854
:103280009A4200D07047104A70B5D2F8D4300F4C33
:1032900023F4804304F11806C2F8D43054F8040F24
:1032A00001F0E8F90546206801F0ECF901462846EE
:1032B00003F0C8FAB442F1D15C20BDE8704002F0DE
:1032C00051B900BF00500052004402583C10002485
:1032D000014805F041B800BFF00F0024084B1A1D4B
:1032E000981D03F1080110B49C1C9A6603F10A02B0
:1032F000C3E91834C3E91B015DF8044B5A677047F2
:10330000E00F002438B5036871B9026A00F128059E
:1033100000F5AC74012A0CBF002140218BBB1D4B72
:103320005722C0F858310DE0426A00F1C00500F59F
:10333000E874012A0CBF00214021EBB1164B5A2240
:10334000C0F8D03100232046C4E901214FF4805257
:103350004FF48061636262614FF48042C4E90331DB
:103360004FF48073C4E906234FF40033236202F064
:103370005FFA58B1FFBEFEE7084B5822C0F8D031C3
:10338000E0E7074B5922C0F85831DBE7C5E9204494
:10339000A56338BD100002407000024028000240C2
:1033A000580002402DE9F043821D05468BB0031DF5
:1033B00005F10A010830CDE9052305F10C02AB69DE
:1033C000CDE907010992002B3DD0EB69B3FA83F8F0
:1033D0004FEA58180123022205AE0AAF4FF0060942
:1033E0000393CDE9012356F8044B2B7922789342BD
:1033F00016D02B68F3B1012B02D1F2B10A2304934A
:10340000204601F03FF903462046009301F032F9CF
:10341000694603F0D7F8BE42E5D10BB0BDE8F083B2
:10342000697963789942E4D1B8F1000FF3D02B6841
:10343000002BE0D1CDF81090E2E76378022B14BFA7
:103440000A230823DBE74FF00108C3E7534A036868
:10345000934230B505468BB055D02032934252D0BE
:103460004F4A934204D02032934201D00BB030BD7A
:103470004C4C4D48D4F8E03043F00103C4F8E03040
:10348000D4F8E03003F001030593059BD4F8E03055
:1034900043F00803C4F8E030D4F8E03003F0080348
:1034A0000693069BD4F8E03043F04003C4F8E030C4
:1034B000D4F8E03003F040030793079BD4F8F030D2
:1034C00043F40003C4F8F030D4F8F03003F4000300
:1034D0000893089BFFF766FFD4F8D830296843F0BB
:1034E00001032F4A3048C4F8D830891AD4F8D830AC
:1034F00018BF012103F001030993099B0BB0BDE83C
:103500003040FFF7FFBE274C2848D4F8E03043F0A6
:103510000103C4F8E030D4F8E03003F00103009375
:10352000009BD4F8E03043F01003C4F8E030D4F846
:10353000E03003F010030193019BD4F8E03043F036
:103540004003C4F8E030D4F8E03003F040030293C5
:10355000029BD4F8F03043F48003C4F8F030D4F880
:10356000F03003F480030393039BFFF71BFFD4F8B1
:10357000D830296843F00103084A0C48C4F8D83011
:10358000891AD4F8D83018BF012103F0010304933D
:10359000049B0BB0BDE83040FFF7B4BE04580140B7
:1035A000045C014000440258B41200245810002466
:1035B000014802F0B5BC00BFB0110024014802F080
:1035C000AFBC00BF28120024014802F0A9BC00BF14
:1035D0000C140024014802F0A3BC00BF8414002492
:1035E0001A4A0368934210B40BD02032934208D099
:1035F000174A934216D02032934213D05DF8044B01
:103600007047144B0022D3F85442C3F85822002CC0
:10361000F4D0D3F84802D3E9931223465DF8044B63
:10362000520818470B4B0022D3F8B044C3F8B42417
:10363000002CE3D0D3F8AC24D3F8A814D3F8A40416
:10364000520823465DF8044B184700BF0458014058
:10365000045C014058100024184A0368934210B4D7
:103660000BD02032934208D0154A934217D0203213
:10367000934214D05DF8044B7047124BD3E9942465
:103680005208C3F85822002CF4D0D3E99201234603
:1036900001EB820100EB82005DF8044B1847094BF7
:1036A000D3F8AC24D3F8B0445208C3F8B424002CA7
:1036B000E0D0D3F8A814D3F8A404E8E704580140F4
:1036C000045C0140581000242DE9F04F0C684FF4C1
:1036D0001776754F87B004FB06F6012C07EB060A38
:1036E000C0F800A000F3A0800D468E464FF0000801
:1036F000D44669A3D3E9002369A1D1E90001CDE94A
:10370000022306ABCAF8508203EB8403CDE904011F
:1037100053F810BC53F8083CCAE992880193BEE8FC
:103720000F00ACE80F00BEE80F00ACE80F00019BF3
:103730009EE80300CAF828B0CAF8C0308CE803003D
:103740002B69042B0CD8DFE803F0737D879103000D
:103750004FF41773554A03FB04739A64C3F8E020CF
:10376000AA692B6A002A43D0002B4FF4177308BFB5
:10377000022203FB047318BF0322DA6201221A63D8
:10378000EA696B6A002A40D1191E4FF4177318BFFB
:10379000012103FB0473C3E931126B69022B05D8C5
:1037A000434A12F80380434A52F823904FF41773A8
:1037B00006F128004246494603FB047400233844BE
:1037C00063646363E365C4F8DC30C4F8CC30C4F8E8
:1037D000F430C4E90F33C4E91533C4E93533C4E91F
:1037E0003B33022306F02CFE002849D0FFBEFEE743
:1037F000191E4FF4177318BF012103FB0473C3E9AB
:103800000B12EA696B6A002ABED0002B4FF41773C3
:1038100008BF022203FB047318BF0322C3F8C420AD
:103820000122C3F8C820B8E7012007B0BDE8F08F37
:103830004FF417734FF4FA5203FB04739A64C3F8FE
:10384000E0208DE74FF417734FF47A5203FB0473B3
:103850009A64C3F8E02083E74FF417734FF4FA42F9
:1038600003FB04739A64C3F8E02079E74FF41773FD
:103870004BF6803203FB04739A64C3F8E0206FE7D1
:1038800006F1C000022342464946384406F0D8FDFE
:103890000028CAD0FFBEFEE704580140045C014086
:1038A00024580140245C0140581000240077010096
:1038B00094FB000898FB00080068704770B5046826
:1038C00082B015460E46C4F85032C4E99212069AE8
:1038D000C4F85422A269012A26D0626A012A9AB247
:1038E00011D0294604F1C000019206F065FE236A5A
:1038F000019A012B10D0294604F1280006F05CFE45
:10390000002002B070BD04F1C000019206F0E6FE96
:10391000236A019A012BEED1314604F1280006F00A
:10392000DDFE002002B070BD226A012A9AB211D0D9
:10393000294604F12800019206F03EFE636A019ACE
:10394000012B10D0294604F1C00006F035FE0020FE
:1039500002B070BD04F12800019206F0BFFE636A58
:10396000019A012BEED1314604F1C00006F0B6FEFB
:10397000002002B070BD00BF03681B69042B05D88E
:10398000044A02EB830393ED000A70479FED020A9D
:10399000704700BFA4FB000800803B470368D3F8D2
:1039A00058027047704700BF08B500F073FFBDE8CC
:1039B000084001F053BE00BF704700BF00F07CBF5D
:1039C0002DE9F041CEB004464C2200210AA80AF0AD
:1039D0003BFE2022002102A80AF036FEBC22002174
:1039E0001EA80AF031FE022004F0D4F82368012B4F
:1039F0004FF0000354D0534A02250193C820D16AE6
:103A0000514B21F00101D162D26A02F00102019210
:103A10009A6942F440429A619B6903F440430193DE
:103A2000019B494A93699B04FCD548490224002222
:103A300001268B6A04274FF0080823F00303234371
:103A40008B62052316900AA818934FF480331096C2
:103A5000179419941597CDF86880CDE91B2221227F
:103A6000CDE91344CDE90A2304F07EFD00B1FEE761
:103A70003F220323294602A8CDE90223002208237E
:103A8000CDE9042340224023CDE9062340234FF40F
:103A90008062CDE9082305F095F80346B8B1FEE74A
:103AA000294A04250093F0209169264B41F44041B6
:103AB0009161926902F440420092DA6A42F0010296
:103AC000DA62DB6A03F001030093009BA9E720227E
:103AD0004FF4805125934FF440152B9280222D9363
:103AE0001EA83093269135914FF480712492349220
:103AF0000C223394439140F2271120921022CDF8EA
:103B000084802A971F96CDE92E34CDE93B334FF4BC
:103B10008033CDE922463193002446930623CDE934
:103B20003E4527934FF48063094C2C931E94CDE9B6
:103B3000281205F087FA00B1FEE704F051F84EB004
:103B4000BDE8F081000400580048025800440258C3
:103B50000F130F032DE9F0410D46044684B0D1E95F
:103B6000000184E8030000F065FEAE797EB36F4685
:103B700009F080F9FEF778FF08F0C6FE2B79002BDC
:103B80004ED16B799BB1BFF34F8FBFF36F8F394B22
:103B90000022C3F85022BFF34F8FBFF36F8F5A69D3
:103BA00042F400325A61BFF34F8FBFF36F8F002290
:103BB000002339463048CDE9002309F0EFF82E48BC
:103BC00009F04EF908F078FB04B0BDE8F08120461A
:103BD0006F46FFF7F5FE012401F0EEFC4FF0405375
:103BE0004FF4807838460193244BADF80040CDE97E
:103BF000023801F0FFFC19224FF0404338468DF89F
:103C00000F40ADF80D808DF801408DF80A608DF8F9
:103C10000820019301F0EEFC042001F0DBFCA7E793
:103C2000144C0023C4F88430BFF34F8FD4F8803095
:103C300043F6E07EC3F3C906C3F34E334FEA431C99
:103C40000CEA0E00334640EA8372013BC4F860225E
:103C50005A1CF8D1ACF1200C1CF1200FF0D1BFF3AD
:103C60004F8F636943F480336361BFF34F8FBFF3BA
:103C70006F8F86E700ED00E0101500240E000103B1
:103C800005F0D0B81C4B9B6803F17842B2F5003FB9
:103C900025D3B3F5803F20D303F16042B2F5003F56
:103CA0001FD303F15C42B2F5002F1CD303F1704225
:103CB000B2F5902F19D303F14842B2F5803F16D3E5
:103CC00003F18042B2F1806F13D303F1E043B3F507
:103CD000000F2CBF082007207047012070470020EC
:103CE000704702207047032070470420704705206A
:103CF00070470620704700BF00ED00E00348002336
:103D0000034A044903600AF06DBA00BF101500248D
:103D100000000024A539000810B4204C0022204BDC
:103D200083B0D4F888101F4841F47001C4F888109B
:103D300019681D4C41F0010119601A6119680840A9
:103D40001A4918609A61DA611A629A62DA621A6331
:103D50005A639A63DA631A645A64186820F48020FC
:103D600018601A66D3F8DC2042F06042C3F8DC2009
:103D7000D3F8DC300193019B23681940B1F1005F57
:103D800003D20B4B0122C3F80821044B4FF0006211
:103D90009A6003B05DF8044B704700BF00ED00E08F
:103DA000004402587FEDF6EA0010005C0000FFFFBF
:103DB00000800051704700BF0020704770B5044676
:103DC000074E0D463046214607F0D2FD304607F03B
:103DD000F1FD044B204629461B689847002070BD22
:103DE000040500241435002470B50446074E0D4622
:103DF0003046214607F0BCFD304607F0DBFD044BA2
:103E0000204629461B689847002070BDA007002463
:103E10001835002400220949094808B507F09EFD1D
:103E20000849074807F0A4FD074B1A680AB10020AB
:103E300008BD064A00201A6008BD00BF14250024F2
:103E4000040500241415002414350024B53D000891
:103E500000220949094808B507F080FD08490748CC
:103E600007F086FD074B1A680AB1002008BD064A14
:103E700000201A6008BD00BF142D0024A0070024F4
:103E8000141D002418350024B53D000820280AD050
:103E9000212806D1094B18689A889B7908608A8086
:103EA0008B7100207047054B0868B1F804C08A790F
:103EB00018600020A3F804C09A71704774000024B1
:103EC00020280AD0212806D1094B18689A889B79A6
:103ED00008608A808B7100207047054B0868B1F834
:103EE00004C08A7918600020A3F804C09A71704752
:103EF0007C0000240020704710B5094CD4F89032A3
:103F0000D3F814320BB1012010BD0A4601462046F9
:103F100007F024FD2046BDE8104007F031BD00BF8A
:103F2000040500244B4A036830B593428BB04FF030
:103F30000004CDE90444CDE90644089404D0464A7F
:103F4000934249D00BB030BD444D4FF4C052444869
:103F5000D5F8E03043F00103C5F8E030D5F8E030A3
:103F600003F0010300930223009904A9CDE904237F
:103F70000A23089302F026FB4FF40072002304A9E1
:103F800037480694CDE9042302F01CFBD5F8D8305D
:103F90002246214643F000636220C5F8D830D5F8A8
:103FA000D83003F000630193019B01F08FFA622087
:103FB00001F0CAFA22462146632001F087FA632005
:103FC00001F0C2FA22462146652001F07FFA652001
:103FD00001F0BAFA0BB030BD204D4FF4404204A9B5
:103FE000D5F8E03043F00203C5F8E030D5F8E03012
:103FF00003F002030293022302981A48CDE9042336
:104000000C23089302F0DEFAD5F8D8302246214678
:104010004A2043F00073C5F8D830D5F8D83003F003
:1040200000730393039B01F051FA4A2001F08CFACC
:10403000224621464B2001F049FA4B2001F084FA38
:10404000224621464D2001F041FA4D2001F07CFA34
:104050000BB030BD0000084000000440004402588E
:10406000000002580004025800F57171D0F80404F1
:1040700007F00CBDC1EBC10300EB8303D0F80404CF
:10408000D3F8082207F030BDC1EBC10300EB830376
:10409000D0F804049A6C07F065BD00BFD0F80404A2
:1040A00007F004BEC16810B5044619B1022900D05A
:1040B000FEE70121D4F8040407F0E2FDD4F804047B
:1040C000BDE8104007F0B4BD10B50446D0F80404B4
:1040D00007F0DAFD2268D2F8003E43F00103C2F88F
:1040E000003E236A23B1034A136943F006031361B8
:1040F00010BD00BF00ED00E0D0F8040407F0CEBD15
:10410000D0F8040407F0E2BDD0F8040407F0DCBDE9
:10411000D0F8040407F0DCBDD0F8040407F0DABDE1
:1041200070B5067804461EB1012E30D0002070BD57
:10413000304D0923304AC5F80404C0F89852284687
:104140002E612E63C5E9002302230222EB600023C7
:10415000C5E9062300220023C5E908230122012323
:10416000C5E90A2302F062FF00B1FEE7802128467C
:1041700003F0F0FC31464022284603F0C1FC8022C7
:104180000121284603F0BCFC2678012ECED11B4D20
:1041900009221B4B00216A6002222B600223C5F812
:1041A00004442846EB600023C4F898522961C5E90D
:1041B000062300220023C5E90823C5E90C230122B8
:1041C0000023C5E90A2302F031FF044600B1FEE7EF
:1041D0004FF40071284603F0BDFC2146802228469A
:1041E00003F08EFC4FF4BA723146284603F088FC87
:1041F0009CE700BF20350024000008402839002437
:1042000000000440D0F8980208B502F0A5FF03288A
:1042100002D8024B185C08BD022008BDC8FB00088C
:104220009446D0F898021A4608B5634603F01AFB84
:10423000032802D8024B185C08BD022008BD00BF4D
:10424000C8FB0008D0F8980208B503F049FB032822
:1042500002D8024B185C08BD022008BDC8FB00084C
:10426000D0F8980208B503F0CBFB032802D8024B24
:10427000185C08BD022008BDC8FB0008D0F89802F1
:1042800008B503F001FC032802D8024B185C08BDF6
:10429000022008BDC8FB00080A06D0F8983206D4F0
:1042A000C1EBC10103EB810191F8FE01704701F000
:1042B0007F01C1EBC10103EB810191F83E00704722
:1042C000D0F8980208B503F0B7FA032802D8024BD9
:1042D000185C08BD022008BDC8FB0008D0F8980291
:1042E00008B503F065FB032802D8024B185C08BD33
:1042F000022008BDC8FB0008D0F8980208B503F0FA
:1043000025FB032802D8024B185C08BD022008BD1B
:10431000C8FB0008D0F8980203F040BB1223014804
:104320000B807047D0000024122301480B80704797
:10433000BC000024042301480B807047E4000024E3
:1043400010B5044C0A460448214607F043FF2046B6
:1043500010BD00BF303D0024CCFB000810B5044C5C
:104360000A460448214607F035FF204610BD00BF2D
:10437000303D0024DCFB000810B5044C0A4604481C
:10438000214607F027FF204610BD00BF303D002426
:10439000F0FB000810B5044C0A460448214607F01B
:1043A00019FF204610BD00BF303D0024FCFB000873
:1043B00010B5044C0A460448214607F00BFF20467E
:1043C00010BD00BF303D00240CFC00080423014850
:1043D0000B807047E400002410B5044C0A460448E2
:1043E000214607F0F7FE204610BD00BF303D0024F7
:1043F000CCFB0008464A4FF01A0CD2F80008D2F85D
:104400000838A1F800C0C31801D142487047180FFE
:10441000B3F1204FD2F804184FF0000C3D4A2CBFE6
:104420003730303082F803C04FF0000C9070C3F387
:10443000036082F805C04FF0000C092882F807C01D
:104440004FF0000C8CBF3730303082F809C04FF08D
:10445000000C1071C3F3035082F80BC04FF0000C36
:10446000092882F80DC08CBF373030309071C3F30B
:10447000034009288CBF373030301072C3F303304B
:1044800009288CBF373030309072C3F303200928DD
:104490008CBF373030301073C3F3031003F00F03B9
:1044A00009288CBF37303030092B90734FF0000053
:1044B00094BF30333733B1F1204FD07313744FEAC8
:1044C00011734FF000002CBF37333033507400208D
:1044D0009374C1F30363D0740020092B50754FF01F
:1044E00000008CBF37333033D0751375C1F30353DD
:1044F0000848092B8CBF373330339375C1F303431E
:10450000092B94BF3033373313760023537670472B
:1045100000E0F11FE8000024464A4FF01A0CD2F8E0
:104520000008D2F80838A1F800C0C31801D14248E9
:104530007047180FB3F1204FD2F804184FF0000C59
:104540003D4A2CBF3730303082F803C04FF0000CAA
:104550009070C3F3036082F805C04FF0000C092887
:1045600082F807C04FF0000C8CBF3730303082F833
:1045700009C04FF0000C1071C3F3035082F80BC058
:104580004FF0000C092882F80DC08CBF3730303056
:104590009071C3F3034009288CBF3730303010725C
:1045A000C3F3033009288CBF373030309072C3F327
:1045B000032009288CBF373030301073C3F3031049
:1045C00003F00F0309288CBF37303030092B90736C
:1045D0004FF0000094BF30333733B1F1204FD07328
:1045E00013744FEA11734FF000002CBF3733303390
:1045F000507400209374C1F30363D0740020092B1E
:1046000050754FF000008CBF37333033D0751375C1
:10461000C1F303530848092B8CBF373330339375EC
:10462000C1F30343092B94BF303337331376002390
:104630005376704700E0F11FE800002410B5044CE9
:104640000A460448214607F0C5FD204610BD00BFBC
:10465000303D0024FCFB000810B5044C0A46044819
:10466000214607F0B7FD204610BD00BF303D0024B5
:10467000F0FB0008024B027853F82200704700BF9D
:1046800040FC0008024B427833F81200704700BF2C
:1046900020FC00088CB00A2814D8DFE800F01523AD
:1046A000313F4D5B6977859306004D4BD3F8E02091
:1046B00042F48062C3F8E020D3F8E03003F4806372
:1046C0000B930B9B0CB07047454BD3F8E02042F0A6
:1046D0000102C3F8E020D3F8E03003F001030193B6
:1046E000019BEFE73E4BD3F8E02042F00202C3F813
:1046F000E020D3F8E03003F002030293029BE1E7ED
:10470000374BD3F8E02042F00402C3F8E020D3F89E
:10471000E03003F004030393039BD3E7304BD3F85B
:10472000E02042F00802C3F8E020D3F8E03003F0C4
:1047300008030493049BC5E7294BD3F8E02042F01B
:104740001002C3F8E020D3F8E03003F01003059323
:10475000059BB7E7224BD3F8E02042F02002C3F8D4
:10476000E020D3F8E03003F020030693069BA9E78E
:104770001B4BD3F8E02042F04002C3F8E020D3F80E
:10478000E03003F040030793079B9BE7144BD3F8FB
:10479000E02042F08002C3F8E020D3F8E03003F0DC
:1047A00080030893089B8DE70D4BD3F8E02042F47B
:1047B0008072C3F8E020D3F8E03003F480730993EB
:1047C000099B7FE7064BD3F8E02042F40072C3F860
:1047D000E020D3F8E03003F400730A930A9B71E7FA
:1047E00000440258704700BF0F4B1B780BB90120E3
:1047F000704710B504464FF47A700C4AB0FBF3F3DF
:104800001068B0FBF3F000F0C1FE0F2C00D808B127
:10481000012010BD002221464FF0FF3000F056FE6F
:10482000034B00201C6010BD020100244C0000243A
:104830000401002438B50320124D00F035FE124C5F
:1048400004F020F9114A12499369C3F30323CB5CA6
:1048500003F01F0320FA03F30F202B60926902F08C
:104860000F028A5C02F01F02D3402360FFF7BCFFF7
:1048700010B10124204638BD0446FFF7B3FF20469F
:1048800038BD00BF4C0000245000002400440258F2
:10489000B8FB0008034A044B11681B780B441360F3
:1048A000704700BF303F002402010024014B18680C
:1048B000704700BF303F002438B50446FFF7F6FFCD
:1048C0000546631C02D0044B1B781C44FFF7EEFF27
:1048D000431BA342FAD338BD02010024014B1868E0
:1048E000000C70470010005C704700BF806B08B57B
:1048F000FFF7FAFF08BD00BF836B5A6D12F0500F2F
:104900005A6D10B51DD1196842F400725A650A68D3
:1049100012F0080FCA681BD012F4406F0DD1CA689C
:1049200094040AD45A6D22F480725A655A6DD104E7
:1049300003D45A6D42F001025A651846FDF7ECFDAA
:1049400010BDD2060AD4DB6CBDE81040DB6C184702
:104950009007E7D01846FDF7DFFDF1E71846FDF7B1
:104960007FFE10BD806B08B5436D43F04003436587
:10497000836D43F004038365FDF772FE08BD00BF3D
:10498000F0B5002283B0019290F85020012A00F087
:104990001C81034601201A6883F85000946864075C
:1049A00000F18A800C68C4F31305002D40F08F805D
:1049B000C4F38464A0404D684FF01F0ED6694FEADF
:1049C000951C30430CF00C0CD06105F01F0002F177
:1049D000300584400EFA00FE5CF8050020EA0E0067
:1049E00004434CF80540906840076ED4956815F074
:1049F000080547D10C68072002F11406B94F4FEAA9
:104A0000D45CC4F304540CF0040C00FA04FE88686F
:104A100000FA04F45CF8060020EA0E0020434CF88B
:104A20000600386800F07040B0F1805F00F0C5808B
:104A3000D068D668C70600F1E880C6F382064869E8
:104A4000760000FA06F60F69042F00F0C18002F12B
:104A50006004086854F827C000F0F8400CF0004CDF
:104A600040EA0C00304344F82700487E0E690128D4
:104A700054F8260008BF4FF0004520F000400543E1
:104A800044F826509068C40714D4CE68086806F02D
:104A90001807954CD2F8C050FC40C0F313070440EF
:104AA00025EA07052C43C2F8C040904CA64246D0E8
:104AB000002816DB002003E05A6D42F020025A6500
:104AC000002283F8502003B0F0BD9068DAE794FA32
:104AD000A4F5B5FA85F5C4F3846405F01F05A84074
:104AE00069E783498A4200F0B68001F580718A4205
:104AF00000F0B1807F4D804CA968A46801F0E07699
:104B0000E44304F00104002C00F0B4807B4CA0428C
:104B100000F0FC807A4CA04200F01A81794CA0424F
:104B2000C8D14902C6D474498A42C3D1AA680020B8
:104B300022F0E072324342F48002AA60C0E7002F04
:104B40006AD090FAA0F4B4FA84F4013404F01F049B
:104B5000092C00F2A48090FAA0F4B4FA84F490FA3C
:104B6000A0F5B5FA85F5013401260135A40605F056
:104B70001F0504F0F84406FA05F52C4390FAA0F05E
:104B8000B0FA80F0304400F01F0000EB4000000558
:104B90002043C60D02F11405C0F30450072406F0AB
:104BA000040604FA00F7745924EA07048F6807FA28
:104BB00000F02043705108687AE7D6684869C6F368
:104BC0008206760000FA06F63DE7022003B0F0BD4B
:104BD000106E0C6800F0F840A506B0EB846F30D082
:104BE000506E00F0F840854226D0906E00F0F840FC
:104BF00085422BD0D06E00F0F84085427FF442AF62
:104C0000D06E20F00040D0663CE77608486906F098
:104C1000080600FA06F616E7800E441C04F01F068C
:104C2000092E2DD8A406012004F0F844B040044316
:104C300006EB46000005ABE7506E20F000405066E2
:104C4000D3E7106E20F000401066C9E7906E20F0A8
:104C500000409066CEE7264C2B4D04F58074A96881
:104C600054F8F86CA468344301F0E076E44304F0AF
:104C7000010448E75A6D012042F020025A651FE7FF
:104C800006EB4600A50601241E3805F0F84504FA97
:104C900006F60005354340F00070284379E790FAA6
:104CA000A0F5B5FA85F590FAA0F4B4FA84F40135CC
:104CB00001260134AD0604F01F0405F0F84506FA9C
:104CC00004F4254390FAA0F4B4FA84F4344404F0D4
:104CD0001F0404EB4404A4F11E00000540F0007022
:104CE000DBE700BF0010005CFFFF0F000000FF4784
:104CF000002002400063025800600258000084CB8C
:104D0000000052C70000B8CF0023024008023FF560
:104D1000D1AE17498A427FF4CDAE164AA96812680F
:104D2000154821F0E07192093143A0FB020241F4E1
:104D300000019209A96052000192019A002A3FF4F1
:104D4000B9AE019A013A0192019A002AF9D1B1E66D
:104D500011F080707FF4AEAE05498A427FF4AAAEAE
:104D6000AA6822F0E072324342F08072AA60A7E69D
:104D7000006002584C000024632D3E0503689A68C9
:104D8000D20701D5002070479968214A114270B5B9
:104D9000044608D0636D012043F010036365A36DE2
:104DA0000343A36570BD99681A4A0A4042F00102A4
:104DB0009A60FFF77BFD2368174A054693421ED091
:104DC00002F5807293421AD0144A9268114E0AE09A
:104DD0009A68324042F001029A60FFF767FD401B7B
:104DE0000228D7D823681A68D2070FD49A68D10747
:104DF000EED5FFF75BFD401B0228F3D9CAE7084A4E
:104E00009268D006E2D0074A9342DFD1002070BDFD
:104E10003F000080C0FFFF7F002002400063025877
:104E200000230240002102402DE9F0413A4D0446A2
:104E300000680F461646A84219D0384B984216D043
:104E4000374DAB688068420716D494F85020012A89
:104E500012D003F01F080122B8F1090F84F8502086
:104E60000DD90023012084F85030BDE8F0812D4D8C
:104E7000AB6880684207E8D50220BDE8F08140F2C7
:104E8000212323FA08F3DB4313EA0205E9D1204684
:104E9000FFF774FF002839D1626D234B216813405E
:104EA00043F480736365B8F1000F02D01B4B994245
:104EB00003D0636D23F480136365636D13F4805333
:104EC00028D0A36D23F00603A365E06C3346174D8D
:104ED0003A464031C563164D0564164DC5641C2520
:104EE00041F8405C002584F8505051F83C5C45F096
:104EF000100541F83C5C00F059FE22680E4B9168A9
:104F00000B4043F004039360BDE8F08184F85050F7
:104F1000BDE8F081A365D8E70020024000210240EF
:104F20000063025800230240FEF0FFFFF94800082A
:104F3000ED48000865490008C0FFFF7F38B50368E9
:104F40009A68910702D59B68002038BD9A68D207FD
:104F500023D59A68044602F00D02012A08D0636D39
:104F6000012043F010036365A36D0343A36538BDBF
:104F7000986803210A4A024042F002029A601960CE
:104F8000FFF794FC054604E0FFF790FC401B022865
:104F9000E5D823689B68DB07F6D4002038BD00BF46
:104FA000C0FFFF7F38B5574A04460368934226D0B6
:104FB00002F58072934222D0534B9B6813F4403F1A
:104FC00022D003F019FF63680546B3F5003F00F0F7
:104FD0008880B3F5403F70D0B3F5803F00F081800A
:104FE000FFF77CFC41F2030398422DD8474B9D42CA
:104FF0005DD92268936843F48073936038BD444B55
:105000009B6813F4403FDCD14FF4002004F092FF82
:1050100063680546B3F5101F6DD008D8B3F5E01FDF
:1050200055D01AD9B3F5001FDAD14509D8E7B3F541
:10503000201F4AD0B3F5301FD2D1FFF74FFC41F209
:105040000303984233D92D0A324B9D421DD8226862
:10505000936823F44073936038BDB3F5801F06D086
:105060000AD9B3F5A01F02D0B3F5C01FB8D19B0C6D
:105070005B00B5FBF3F5B3E7B3F5002FF7D023F4EE
:105080000022B2F5802FF2D0AAE7234B234A2B440B
:1050900093421ED9224B234A2B44934222689368A1
:1050A0002BD823F4407343F40073936038BD226817
:1050B000936823F48073936038BD8508FFF70EFC76
:1050C00041F203039842BFD890E7C50988E7050974
:1050D00086E72268936823F4407343F480739360F7
:1050E00038BD1B0CB5FBF3F5FFF7F8FB41F20303EA
:1050F0009842A9D87AE7850972E743F44073936030
:1051000038BD00BF0020024000630258002D31016D
:1051100000230240105E5F00EFA1A0FF0F5E5F0062
:10512000DF4341FF1FBCBE0030B5002383B00193B5
:10513000002800F0D080456D0446002D00F0BA80B4
:10514000226893689B0003D59168714B0B40936074
:105150009368DD0015D46F4B90686F491B68014060
:105160006E489B0941F08051A0FB030391609B09AD
:105170000193019B2BB1019B013B0193019B002BF0
:10518000F9D19368D80024D4636D012543F010034E
:105190006365A36D2B43A365936813F0040F636DE0
:1051A0001DD1D9061BD4636D23F4817343F0020330
:1051B00063659368DB0728D4594B9A4217D003F5EF
:1051C00080739A4213D0574B9B68D9071DD4564A17
:1051D00015E09368002513F0040F636DE1D0636D53
:1051E000012543F010032846636503B030BD4C4AE7
:1051F0004E4B92689B681343D80706D44C4A936879
:10520000616823F47C130B439360FFF767FB41F263
:105210000303A1689842237F52D894F815C01A045A
:10522000206B42EA4C3202430A43012B03D1236A2A
:10523000013B42EA4342636A23B103F47873A16AF3
:105240000B431A4323683B49D86801400A43DA609C
:105250009A6812F0040F9A681CD112071AD4D86801
:10526000354A217D024042EA8132E16A0A43DA602E
:1052700094F83820012A3AD01A6922F001021A6102
:105280001A692046616B22F070420A431A61FFF7E7
:1052900089FE2368E268012A21D01A6B22F00F02EE
:1052A0001A63636D284623F0030343F0010363652B
:1052B00003B030BDFDF7DEF8A56584F850503FE738
:1052C0001029AAD1617D1A0442EA4132216B0A43B6
:1052D00042F01C02A9E70125284603B030BD196B36
:1052E000A26921F00F01013A0A431A63D9E7D4E910
:1052F000102118690A43114901400A43A16C0A436D
:10530000E16B42EA014242F001021A61B8E700BFD4
:10531000C0FFFF5F4C000024C0FFFF6F632D3E0500
:105320000020024000600258006302580021024041
:105330000023024003C0F0FFFCBFFFFF1EF800FC8B
:10534000F0B5002383B0019390F85030012B40D08A
:10535000012304460E46154680F85030FFF7EEFD57
:10536000E8B9676D05F080421B4B06F480311B4D98
:105370003B401B4F43F00203636523689E68354042
:1053800015430D4345F000459D609A68002A0FDBE8
:10539000636D23F0030343F00103636503E0636D72
:1053A00043F010036365002384F8503003B0F0BD70
:1053B000019A01320192019ABA42E6D9636D002244
:1053C000012023F0120384F8502043F0100363659A
:1053D000ECE7022003B0F0BDFDEEFFFFC0FFFE3F93
:1053E000FF955A55F0B490F850200E68012A49D024
:1053F0000346294A01201C6883F85000944208D0D3
:105400005A6D002142F0200283F850105A65F0BC1A
:105410007047224DAA6852070AD5A2685A6D01202A
:1054200042F020025A65002283F85020F0BC7047F9
:10543000A06810F00400F1D1C6B1DFF868C04F6871
:10544000DCF8082022F440423A43CCF80820A46853
:10545000AA682243D40713D48A68DCF808101643DC
:105460000F4A0A401643CCF80860DCE70D498A6809
:1054700022F440428A60A068AA680243D00704D59B
:105480000020D0E70220F0BC70478C683046044A08
:1054900022408A60C7E700BF00200240002102408E
:1054A000E0F0FFFF0023024006494FF6FF0C000228
:1054B000054BCA6800F4E06002EA0C0210430343A3
:1054C000CB60704700ED00E00000FA051B4BDB6885
:1054D000C3F3022300B5C3F1070E03F1040CBEF1C0
:1054E000040F28BF4FF0040EBCF1060F1AD9033B7E
:1054F0004FF0FF3C0CFA03FC22EA0C024FF0FF3C99
:1055000000280CFA0EFC21EA0C0101FA03F141EA31
:1055100002010ADB09010A4BC9B2034483F80013F4
:105520005DF804FB00221346E8E700F00F000901D4
:10553000044BC9B2034419765DF804FB00ED00E0AA
:1055400000E100E0FCEC00E0002807DB00F01F01B8
:1055500001234009024A8B4042F82030704700BFC7
:1055600000E100E000280DDB4309012200F01F00EC
:105570000549203302FA00F041F82300BFF34F8FB2
:10558000BFF36F8F704700BF00E100E0431EB3F12F
:10559000807F0CD24FF0E022002006494FF0F00C43
:1055A0005361072381F823C0906113617047012084
:1055B000704700BF00ED00E0BFF35F8F044B002198
:1055C0005A6A22F480325A62C3F89410704700BFBE
:1055D00000ED00E0064B40F00100C3F894005A6A69
:1055E00042F480325A62BFF34F8FBFF36F8F704720
:1055F00000ED00E0174A4378C2F89830017821B3F3
:10560000436800B5C2F89C30C37A90F80CC01B0602
:1056100090F80FE043EA0C7390F80AC00B43817BCB
:1056200043EACC4390F80DC043EA8C4390F809C09C
:1056300043EA4143017A43EA0E4343EA0C2343EA37
:105640004103C2F8A0305DF804FBC2F89C10C2F818
:10565000A010704700ED00E0704700BF08B5FFF7ED
:10566000FBFF08BD0268344B344930B4344D354C2F
:10567000AA4218BF9A420CBF012300238A4208BFE6
:1056800043F001033031A24208BF43F0010330343C
:105690008A4208BF43F001033031A24208BF43F001
:1056A000010330348A4208BF43F0010301F55C7105
:1056B000A24208BF43F0010304F55C748A4208BFAC
:1056C00043F001033031A24208BF43F001033034FC
:1056D0008A4208BF43F001033031A24208BF43F0C1
:1056E000010330348A4208BF43F001033031A24243
:1056F00008BF43F001038A4208BF43F0010313B916
:10570000114B9A4213D1D3B21049114C103BA1FB5B
:1057100003515F2B0F4BC1F3021103EA0203615CDB
:1057200088BF0433C1658365184630BC704722F0DA
:10573000FF038365F8E700BF10000240400002400D
:105740002800024058000240B8040240ABAAAAAAAE
:1057500070FC000800FCFFFF0368294A294930B4A7
:10576000294D2A4CAB4218BF93420CBF01220022A4
:105770008B4208BF42F001022831A34208BF42F029
:10578000010228348B4208BF42F001022831A342B3
:1057900008BF42F001028B4208BF42F0010212B979
:1057A0001B4A934213D1DBB21A4C1B4A0121083B1E
:1057B0001A4DA4FB0343456602EB1312C3F3041313
:1057C000920001FA03F30266836630BC7047DAB2D6
:1057D0001349144C1944103AA829A4FB02234FEA98
:1057E000131300D80833104A03F01F0501210F4C92
:1057F0001A44A9404466920081660266E5E700BF4C
:1058000008540258305402581C5402584454025848
:1058100094540258CDCCCCCC009600168058025837
:10582000F0FBFDBFABAAAAAA0082001080080240CC
:1058300070B50446FFF73AF8002C00F0C6802368E4
:105840000546954A934248D01832934245D03032AB
:1058500092498B4218BF934201F130010CBF0122E3
:1058600000228B4208BF42F0010218318B4208BF70
:1058700042F0010218318B4208BF42F00102183198
:105880008B4208BF42F0010201F556718B4208BFFE
:1058900042F0010218318B4208BF42F00102183178
:1058A0008B4208BF42F0010218318B4208BF42F020
:1058B000010218318B4208BF42F0010218318B42BD
:1058C00008BF42F0010218318B4208BF42F00102CA
:1058D0001AB9734A934240F0F5800222002184F8FD
:1058E000352084F834101A6822F001021A6005E0AD
:1058F000FEF7DCFF431B052B40D823681A68D1074D
:10590000F6D4D4E9022521692A43A0691D680A4317
:1059100061690A43E16902430A4362492940256AF1
:105920002A430A43616A04292FD01A605A6922F077
:105930000702114359612046FFF794FEE26D3F23B1
:1059400002F01F02934083602046FFF705FFA36823
:10595000802B3CD06368A06EDAB2013BD4E91851C9
:10596000072B2A60486026D90023C4E91B336367EC
:1059700000200123606584F8353070BD20220323A8
:105980000120626584F8353070BDD4E90B5129439C
:105990000A431A605969A26A21F00701114341F0D4
:1059A0000401002DC6D000284FD1012A6ED032F05C
:1059B0000202BFD151E0501E072810D9626FD4E90E
:1059C0001B31002018604A60D2E7012070BD00231F
:1059D000A16ED4E91802636003605160C4E72168D6
:1059E000314B324DA94218BF994205F114050CBF45
:1059F00001230023A94208BF43F001031435A94243
:105A000008BF43F001031435A94208BF43F0010366
:105A10001435A94208BF43F001031435A94208BF59
:105A200043F001033BB9224B994204D0214B224958
:105A300013449B0003E0214B214913449B000122A6
:105A40008240C4E91B316267BBE7B0F5005F0ED04E
:105A5000022A05D9032A7FF46DAFEA017FF56AAF08
:105A6000012340221846626584F8353070BD032A50
:105A70003FF660AF01A050F822F000BF615A000865
:105A80005B5A0008615A00088D5A0008B5F1C07FC2
:105A90007FF450AFE4E700BF100002404000024036
:105AA000B80402403F8010FE085402581C540258AB
:105AB000945402583F820010400902403F9600165D
:105AC00040590258324A33483349834218BF9342FF
:105AD00000F128000CBF012200228B4208BF42F0D7
