:020000040800F2
:1000000000000220DD020008D9020008392A000899
:10001000D9020008D9020008D90200080000000037
:10002000000000000000000000000000D9020008ED
:10003000D902000800000000D9020008292A00089F
:10004000D9020008D9020008D9020008D902000824
:10005000D9020008D9020008D9020008D902000814
:10006000D9020008D9020008D90200083126000888
:100070003D260008D9020008492600085526000838
:10008000D90200085D1B0008D9020008D902000847
:10009000D9020008D9020008D9020008D9020008D4
:1000A000D9020008D9020008D9020008D9020008C4
:1000B000D9020008D9020008D9020008911B0008E3
:1000C000D90200089D1B0008D902000849820008D7
:1000D000D9020008D9020008D9020008D902000894
:1000E000D9020008D902000800000000D902000867
:1000F000D9020008D9020008D90200085582000878
:10010000D9020008D9020008D9020008D902000863
:10011000D9020008D9020008D9020008D902000853
:10012000D9020008D9020008D9020008D902000843
:10013000D9020008D9020008D9020008D902000833
:1001400000000000000000000000000000000000AF
:10015000D9020008D9020008D9020008D902000813
:10016000A91B0008D9020008D9020008D90200081A
:10017000D9020008D9020008D9020008D9020008F3
:10018000D9020008D9020008D9020008D9020008E3
:10019000D9020008D9020008D9020008D9020008D3
:1001A000D9020008D9020008D9020008D9020008C3
:1001B00051230008D9020008D9020008D90200081A
:1001C000D9020008D9020008D9020008D9020008A3
:1001D000D9020008D9020008D9020008D902000893
:1001E000D9020008D9020008D9020008D902000883
:1001F000D9020008D9020008D9020008D902000873
:10020000D9020008D9020008D9020008D902000862
:10021000D9020008D9020008D9020008D902000852
:10022000D9020008D9020008D90200080000000025
:10023000D9020008D902000800000000D902000815
:10024000D9020008D9020008D9020008D902000822
:10025000D9020008D9020008D9020008D902000812
:10026000D9020008D9020008D9020008D902000802
:10027000D9020008D9020008D902000800000000D5
:10028000D9020008D9020008D902000800000000C5
:0802900000000000D902000883
:1002980010B5054C237833B9044B13B10448AFF3B8
:1002A80000800123237010BD6001002400000000BD
:1002B800A098000808B5034B1BB103490348AFF3E6
:1002C800008008BD0000000064010024A098000818
:1002D800FEE700BF0B480C4A904203D0121A0B49A4
:1002E80009F030FA0A480B4A904203D0121A00214A
:1002F80009F036FA02F04CFD09F000FA00F024F893
:10030800FEE700BF0000002460010024C098000838
:100318006001002448130024704700BF9AB10368A5
:10032800406803EB820C10B40C68496853F8042B3E
:1003380044F8042B634550F8042B41F8042BF5D1FD
:100348005DF8044B70477047064808B500F01EF882
:100358000021044800F0A4F80349024800F034F8EA
:10036800FEE700BF7C0100242503000804480023A1
:10037800044A054903604361036209F0ABB900BF51
:100388007C01002400000024210300080B490123FC
:100398000B4A038280F8273080F82B3010B4C0E96C
:1003A8000112084C40F2027140F60662C460A0F8DF
:1003B80025105DF8044BA0F82920704705080509A9
:1003C80005070506050A0606143001F05BB900BFEB
:1003D800F0B5032399B000270125129306462C4B4C
:1003E80009A81595CDE90E7340F20453ADF84030D5
:1003F800284BCDE91357099301F06EF909A801F0CC
:1004080047FA002835D1244B04AF04460090CDF8B4
:1004180042301023394604958DF820301F4BCDE922
:100428001650CDE906506846059301F0BFFB082336
:10043800009A01A909A8ADF804508DF8064009945E
:100448000295039300F0CAF800230EA93846302419
:10045800049302F075F903224FF07E5309A906F1BF
:1004680014000B93CDE90942049A01F0D1F819B0B0
:10047800F0BD40F60132084B169704AFADF82420C2
:100488000998CDF84230179500F068F8DCE700BF0E
:100498000402040403030001040604030704010B17
:1004A80030B504462DED028B83B079B3012140F2BB
:1004B800011200230091ADF804208DF8063002F0F7
:1004C8001DFC054670B30123694604F130008DF820
:1004D800063002F07BFB072D3AD104F114052046C3
:1004E800FFF776FF284601F0C9F82846B0EE408AA3
:1004F80001F0C0F8D0ED007AF8EE677A88EE277A36
:1005080084ED0E7A03B0BDEC028B30BD40F20113CE
:1005180000918DF80610ADF8043002F0EFFB0546A7
:100528000028D0D1694604F1300002F04FFB211DAC
:10053800204601F085FD04F1250001F0CDF804F115
:10054800290001F0C9F804F1120000F071F9C4E7BC
:10055800211D204601F074FDBFE700BF10B584B02F
:1005680003460124ADF8040003A8ADF80C30ADF83B
:100578000E4001F0B1F8214603A801F097F9204692
:1005880002F058FA002103A801F090F9204602F081
:1005980051FA214603A801F089F904B010BD00BF43
:1005A80010B5C2F3002384B00C46017C8DF80D20F1
:1005B80043EA4402FA2402238DF80C2003AA00948B
:1005C80001F08AFB18B10124204604B010BD04468E
:1005D8000A2002F02FFA204604B010BD034670B579
:1005E80043F8042B044684B007C983E80700A379BD
:1005F80083B91A210B461E22FA2523742046ADF82A
:100608000C20022303AA009501F066FB28B1012003
:1006180004B070BD1B210B46EDE70A2002F00AFA70
:100628004FF4B85200950223ADF80C20204603AAD7
:10063800217C01F051FB0028E9D10A2002F0FAF9E7
:1006480041F2027200950223ADF80C20204603AA5D
:10065800217C01F041FB0028D9D10A2002F0EAF9F7
:10066800042200950223ADF80C20204603AA217C21
:1006780001F032FB0028CAD10A2002F0DBF9062279
:1006880000950223ADF80C20204603AA217C01F036
:1006980023FB0028BBD10A2002F0CCF941F2082242
:1006A80000950223ADF80C20204603AA217C01F016
:1006B80013FB0028ABD10A20064602F0BBF90095CF
:1006C800022303AA217C2046ADF80C6001F004FB4C
:1006D80000289CD1304602F0ADF9009522790C2310
:1006E8002046002A8DF80C3003AA4FF0020314BFED
:1006F800622142218DF80D10217C01F0EDFA0028CD
:1007080085D1304602F096F92279D4E902310B43BB
:10071800DBB20AB943F0400362790AB143F020031F
:100728000E22FA258DF80D302046009502238DF80B
:100738000C2003AA217C01F0CFFA00287FF467AFD0
:100748000A2002F077F9102200950223ADF80C2058
:10075800204603AA217C01F0BFFA00287FF457AF96
:100768000A2002F067F9122100950223ADF80C1057
:1007780003AA217C204601F0AFFA00287FF447AF96
:100788000A2002F057F9012209212046FFF708FF45
:10079800003818BF01203BE7F0B5102387B0234C81
:1007A800012200250126002702A920460195CDE94E
:1007B80002234FF48052CDE9046707F0FFF8642064
:1007C80002F056FC02A94FF480522046CDE9046796
:1007D80002261027CDE9026707F0F0F8032210235C
:1007E80002A92046CDE9022300230422CDE90423EF
:1007F8004FF4805207F0E2F840F23223042202A9B3
:10080800019310232046CDE90223019A0123059282
:100818004FF48052049307F0D1F840F606012046C1
:1008280007F0ECF8284607B0F0BD00BFC00100246F
:100838001C4B00221C494FF0400C30B5054689B0CE
:100848000220596007219A601A620124DA620A229A
:100858004FF4006EDC6006922022CDE900010420EE
:100868000821CDE9020103201021CDE90401082067
:100878006946C3E904024FF4C072181DC3E906C2F1
:100888004FF48052C3E909E207F06EF838B92846F8
:10089800FFF782FF003818BF012009B030BD20469D
:1008A80009B030BDBC01002440410052614A00211A
:1008B800D0B513688EB00A91002B40F0B9805E4B1A
:1008C80001214FF683700C2411600221D3F8D42043
:1008D8000026032742F48052C3F8D420D3F8D4204A
:1008E80002F480520092009AD3F8E02042F01002FD
:1008F800C3F8E020D3F8E02002F010020192019A38
:10090800D3F8E02042F04002C3F8E020D3F8E0201A
:1009180002F040020292029AD3F8E02042F0080264
:10092800C3F8E020D3F8E02002F008020392039A0B
:10093800D3F8E02042F48072C3F8E020D3F8E02036
:1009480002F480720492049AD3F8E02042F0800204
:10095800C3F8E020D3F8E02002F080020592059A5F
:10096800D3F8E02042F02002C3F8E020D3F8E020DA
:1009780002F020020692069AD3F8E02042F0040220
:10098800C3F8E020D3F8E0300C9403F00403079395
:100998000323079A0B93CDE9080108A9274803F018
:1009A8000DFC48F23712022308A925480C94CDE91A
:1009B8000823CDE90A6703F001FC4CF20372022315
:1009C80008A920480C94CDE90823CDE90A6703F06B
:1009D800F5FB40F2FF62022308A91B480C94CDE9FD
:1009E8000823CDE90A6703F0E9FB4FF60C720223EE
:1009F80008A916480C94CDE90823CDE90A6703F045
:100A0800DDFB4FF63F02022308A911480C94CDE9FB
:100A18000823CDE90A6703F0D1FB2022022308A9A5
:100A28000A480C94CDE90A67CDE9082303F0C6FB10
:100A38000EB0D0BDB801002400440258001002587E
:100A480000180258000C025800200258001C0258D6
:100A5800001402582DE9F04FDFF8108406460D46C1
:100A6800144608F114002DED028B89B000AF01F097
:100A78005FFFD8F8143073B3D8F81830D8F804905A
:100A8800002B43690BBF4FF0080A4FF0100A4FF0D4
:100A9800020B4FF0040BB9F1000F2AD0A200EA466E
:100AA800012B02F1070222F00702ADEB020D6846A6
:100AB800ADEB020D694600F03F81022B00F0D680B5
:100AC800002B6FD02246C847D5462437BD46BDEC1B
:100AD800028BBDE8F08FD8F81830002BF5D0D8F885
:100AE80004904FF0080A4FF0020B4369B9F1000F68
:100AF800D4D1FB61D8F80030BB61002BE5D0D548D4
:100B080001F088FF6B46BBF1020F786108EE103ADE
:100B1800FB6900F083816A465146A2EBC402954600
:100B28006200EA46B2FBFBF2AAEBC40085460AEB78
:100B38008200EE46F861ADEB010DF8690EEB820C10
:100B4800C7F810C0EC46ADEB010D00EB8201CCF804
:100B58000400CCF8081001EB82013869E946CCF8AA
:100B68000C1000EB8201CCF800A001EB8202C9E96D
:100B780000E0C9E90212012B00F06483022B00F0A7
:100B88006C82002B00F08081620849466046BB6990
:100B9800984718EE103A24379D46BD46BDEC028BA7
:100BA800BDE8F08F002C8DD01A46D8ED0B6A9FED6A
:100BB800B27A8446331D36F922E00CF1080C07EEB0
:100BC80090EA33F922E00232F8EEE77A944267EECF
:100BD800877A67EEA67A4CED027A07EE90EAF8EE8D
:100BE800E77A67EE877A67EEA67A4CED017AE2D863
:100BF800F9612246C847984ED8ED046A0020F96981
:100C08002B1D9FED9E7A9FED9E6ADFED9E5A22E096
:100C1800F4EEC67AF1EE10FAC0F2C88447F6FE7216
:100C2800D1ED017A45F8202066EEA77AF4EEC77A6E
:100C3800F1EE10FA40F2F080F4EEC67AF1EE10FA16
:100C4800C0F2D58447F6FE7243F8202002300831FE
:100C580084427FF639AFD1ED007A66EEA77AF4EEDA
:100C6800C77AF1EE10FAD3D83246D9E7002C3FF410
:100C780029AFD8ED0B6A84469FED787A0022331DA0
:100C88008E4656F822100CF1080C07EE901A53F80D
:100C980022100232F8EEE77A944267EE877A67EE1E
:100CA800A67A4CED027A07EE901AF8EEE77A67EE2C
:100CB800877A67EEA67A4CED017AE2D87146224629
:100CC800C7F81CE0C847664ED8ED046A0020F969E9
:100CD8002B1D9FED6A7A9FED6A6ADFF894C120E0C8
:100CE800F4EEC67AF1EE10FAC0F279843246D1ED0C
:100CF800017A45F8202066EEA77AF4EEC77AF1EE7D
:100D080010FA40F28780F4EEC67AF1EE10FAC0F2DB
:100D18005E84324643F820200230083184427FF650
:100D2800D3AED1ED007A66EEA77AF4EEC77AF1EE8B
:100D380010FAD5D86246DAE7002C3FF4C3AED8EDF6
:100D48000B6A86469FED477A4FF0000C331D56F824
:100D58002C200EF1080E82F40002A2F5000207EE24
:100D6800902A53F82C200CF1020CF8EEE77A82F462
:100D780000026445A2F5000267EE877A67EEA67A5C
:100D88004EED027A07EE902AF8EEE77A67EE877A58
:100D980067EEA67A4EED017AD9D8F9612246C8479E
:100DA800314ED8ED046A0020F9692B1D9FED337A86
:100DB8009FED336ADFF8BCC01FE0F4EEC67AF1EEAF
:100DC80010FAC0F2FC833246D1ED017A45F82020B2
:100DD80066EEA77AF4EEC77AF1EE10FA18D9F4EEB7
:100DE800C67AF1EE10FAC0F2DA83324643F82020D0
:100DF8000230083184427FF667AED1ED007A66EEA4
:100E0800A77AF4EEC77AF1EE10FAD6D86246DBE795
:100E18006246EBE762467DE7324615E7A100D64613
:100E28006208073121F00701ADEB010DEA46ADEB91
:100E3800010D6946ADEB0E0D0AEB8200EC46ADEBF9
:100E48000E0D01EB8202F861E946CCE900A0C9E980
:100E5800001290E60C0200240280FFFF0000003020
:100E68000082FF7F0000003482FF7F00F40100242D
:100E7800007E00807E0080FF0000003804FF7FBFF6
:100E880004FF7F3F00FEFF46002C00F0C982BBF143
:100E9800020FD8F8202000F0FA827969C7F8049088
:100EA80002EB810E5FED0C5A8A00DCF808100EF197
:100EB80004007A611A46DCF80C303B61331DD7F820
:100EC80010903D61FD69C7E902CB8C46834636F92F
:100ED8002210D8ED0B7A06EE101A33F9221006EE1E
:100EE800901A3EF92210B8EEC66A07EE101AF8EE0C
:100EF800E66A3BF92210B8EEC77A26EE256A66EE56
:100F0800A56A27EE257A26EE276A66EEA76A27EEF7
:100F1800277A07EE901A51080232F8EEE77A0AEBC0
:100F28008100944280ED006A05EB810067EEA57AA6
:100F3800C0ED006A0CEB810009EB810180ED007ABD
:100F480098ED0B7A67EE877AC1ED007ABFD8D7F8AB
:100F580004903D69D7E902CB60466208BB694946FF
:100F68009847D8F828307A69D8ED046A1A441FEDF2
:100F78003D7A1FED3D6A2B1D904602F1040A5FED94
:100F88003F5A0022A84ED9E900EC51E0F4EEC67AA7
:100F9800F1EE10FAC0F2C78247F6FE7045F822005B
:100FA8000CEB0100D0ED007A66EEA77AF4EEC77A72
:100FB800F1EE10FA4BD9F4EEC67AF1EE10FAC0F25F
:100FC800BA8247F6FE70BBF1020F43F822002BD01D
:100FD800D9F808000844D0ED007A66EEA77AF4EE56
:100FE800C77AF1EE10FA36D9F4EEC67AF1EE10FAB5
:100FF800C0F2CD8247F6FE7048F82200D9F80C00FE
:101008000144D1ED007A66EEA77AF4EEC77AF1EEE4
:1010180010FA1ED9F4EEC67AF1EE10FAC0F2AF82D9
:1010280047F6FE714AF82210023294427FF6B1ADBB
:1010380051080EEB81008900D0ED007A66EEA77AA0
:10104800F4EEC77AF1EE10FAA0D83046A6E730469B
:10105800B9E73146E6E73046CEE7002C00F0E081FC
:10106800BBF1020FD8F8203000F0E1817A69DCF892
:10107800081003EB820EC7F804909300DFED6B5A5B
:101088000EF1040000227B61DCF80C303B61331D5B
:10109800D7F810903D61FD69C7E902CB8C468346BD
:1010A80056F82210D8ED0B7A07EE101A53F82210D2
:1010B800B8EEC76A07EE101A5EF82210F8EEC76A93
:1010C80007EE101A26EE256A5BF82210B8EEC77AEA
:1010D80066EEA56A26EE276A27EE257A66EEA76AE7
:1010E80027EE277A07EE901A51080232F8EEE77ACF
:1010F8000AEB8100944280ED006A05EB810067EEFF
:10110800A57AC0ED006A0CEB810009EB810180ED46
:10111800007A98ED0B7A67EE877AC1ED007ABFD82E
:10112800D7F804903D69D7E902CB60466208BB69ED
:1011380049469847D8F828307A69D8ED046A1A449D
:101148009FED3E7A9FED3E6A131D9246DFF8E4C09C
:101158000022FB612B1D364ED9E9008E4EE0F4EEDD
:10116800C67AF1EE10FAC0F2FC81304645F822004A
:101178000EEB0100D0ED007A66EEA77AF4EEC77A9E
:10118800F1EE10FA49D9F4EEC67AF1EE10FAC0F28F
:10119800EF813046BBF1020F43F822002AD0D9F87C
:1011A80008000844D0ED007A66EEA77AF4EEC77A14
:1011B800F1EE10FA35D9F4EEC67AF1EE10FAC0F273
:1011C800C98130464AF82200D9F80C000144D1ED13
:1011D800007A66EEA77AF4EEC77AF1EE10FA1ED915
:1011E800F4EEC67AF1EE10FAC0F2AD813146F86934
:1011F80040F82210023294427FF6CBAC510808EB3B
:1012080081008900D0ED007A66EEA77AF4EEC77AFD
:10121800F1EE10FAA3D86046A8E76046BAE761463F
:10122800E5E76046CEE700BF0280FFFF0000003020
:101238000082FF7F007E00800000003404FF7FBF33
:1012480004FF7F3F002C00F0EB807A690021D8F87A
:101258002030C7F8109003EB820ED7F81C9093004B
:10126800FD610EF104021FED0C6A7B61331D15460A
:1012780056F821204808D8ED0B6ABBF1020F82F41A
:101288000002A2F5000207EE902A53F8212082F40A
:101298000002B8EEE77AA2F5000227EE067A07EE1A
:1012A800902A0AEB8002F8EEE77A27EE267A67EEB4
:1012B800867A82ED007A09EB80024FEA800067EEB9
:1012C800A67AC2ED007A27D05EF8212082F40002C7
:1012D800A2F5000207EE902A55F8212082F40002B8
:1012E800B8EEE77AA2F5000227EE067A07EE902A12
:1012F800DCF80820F8EEE77A024427EE267A67EE53
:10130800867A82ED007A98ED0B7ADCF80C2067EE8D
:10131800877A0244C2ED007A02318C42A8D8D7F805
:10132800109060466208BB694946FD699847D8F83D
:1013380028307A69D8ED046A1A441FED407A1FED07
:10134800406A131D9246DFF8C4C20022FB612B1DC0
:10135800AB4ED9E9008E4EE0F4EEC67AF1EE10FA03
:10136800C0F2C580304645F822000EEB0100D0EDF2
:10137800007A66EEA77AF4EEC77AF1EE10FA49D948
:10138800F4EEC67AF1EE10FAC0F2BF803046BBF137
:10139800020F43F822002AD0D9F808000844D0EDFB
:1013A800007A66EEA77AF4EEC77AF1EE10FA35D92C
:1013B800F4EEC67AF1EE10FAC0F2AE8030464AF882
:1013C8002200D9F80C000144D1ED007A66EEA77A24
:1013D800F4EEC77AF1EE10FA1ED9F4EEC67AF1EE01
:1013E80010FAC0F28B803146F86940F822100232B8
:1013F80094427FF6CEAB510808EB81008900D0ED0E
:10140800007A66EEA77AF4EEC77AF1EE10FAA3D85E
:101418006046A8E76046BAE76146E5E76046CEE77A
:10142800224649466046BB699847FFF7B2BBC7F8F2
:1014380010B0002298ED0B6A331DDFED726AD7F801
:101448001CB0786956F8221007EE901A53F822104B
:10145800B8EEE77A07EE901A51080232F8EEE77A0A
:1014680027EE267A0AEB810E94420BEB810167EE98
:10147800A67A27EE067A67EE867A8EED007AC1EDB7
:10148800007ADFD88300D7F810B07B614DE61A46A2
:10149800C7F810B098ED0B6A331DDFED5B6AD7F81B
:1014A8001CB0786936F9221007EE101A33F92210A9
:1014B80007EE901AB8EEC77A51080232F8EEE77ACA
:1014C80027EE267A0AEB810E94420BEB810167EE38
:1014D800A67A27EE067A67EE867A8EED007AC1ED57
:1014E800007ADFD88300D7F810B07B6134E5F0EEDE
:1014F800675AFEEEE45A15EE900A34E7F0EE675AA2
:10150800FEEEE45A15EE901A6EE7F0EE675AFEEE1C
:10151800E45A15EE900A3AE7F0EE675AFEEEE45AFE
:1015280015EE900A4BE767EEA57AFDEEE77A17EE1F
:10153800900A00B232E567EEA57AFDEEE77A17EE7B
:10154800900A00B23FE5F0EE675AFEEEE05A15EE5B
:10155800901A4CE6F0EE675AFEEEE05A15EE900A45
:1015680030E6F0EE675AFEEEE05A15EE900AFDE519
:10157800F0EE675AFEEEE05A15EE900A0AE667EEBC
:10158800A57AFDEEE77A17EE901A09B24AE567EEFA
:10159800A57AFDEEE77A17EE900A00B22CE5F0EE98
:1015A800675AFEEEE45A15EE902A1FE467EEA57A14
:1015B800FDEEE77A17EE902A12B2FFF731BBF0EE94
:1015C800675AFEEEE45A15EE902AFFF7FDBBF0EEDF
:1015D800675AFEEEE05A15EE902AFFF79BBBF0EE35
:1015E800675AFEEEE05A15EE902AFFF780BB67EEC9
:1015F800A57AFDEEE77A17EE902A12B2FFF724BB20
:1016080082FF7F0000000030000000387E0080FF6D
:1016180030B5154C154685B0046004F1080C01ABD3
:1016280007C98CE80700D4ED047AF5EEC07A83E8A0
:101638000700F1EE10FA14DDF7EE006A86EEA77ADD
:1016480084ED0B7A6DB1204640F8145F01F070F913
:10165800064903690020064AE1616262E36005B059
:1016680030BD012005B030BDF40100240020003059
:101678000000003000680830704700BF0068143070
:1016880001F0B6B930B5046883B00D46A3694BB113
:10169800A3680020A26A216A9B00009004F1180048
:1016A80001F048F9A3680748626A9B00E169009065
:1016B80004F1140001F03EF90020C4E9005003B021
:1016C80030BD00BF5D0A0008024B0022C3E90522B5
:1016D800704700BFF401002430B583788FB004460A
:1016E800022B37D0032B33D0012B31D000230A93A0
:1016F800E378012B2AD0022B28D000230B93002358
:1017080020460C9301F092FB0546204601F096FB1B
:1017180023780990082B13D8DFE803F01F324558C7
:101728006B7E91A40500594BD3F8E02042F48072F7
:10173800C3F8E020D3F8E03003F480730893089BE3
:1017480009A9284602F03AFD0FB030BD0B93D6E741
:101758000A93CDE711230A93CAE74C4B09A92846F7
:10176800D3F8E02042F00102C3F8E020D3F8E030DB
:1017780003F001030093009B02F020FD0FB030BD81
:10178800424B09A92846D3F8E02042F00202C3F8E8
:10179800E020D3F8E03003F002030193019B02F04C
:1017A8000DFD0FB030BD394B09A92846D3F8E0200C
:1017B80042F00402C3F8E020D3F8E03003F0040359
:1017C8000293029B02F0FAFC0FB030BD2F4B09A91F
:1017D8002846D3F8E02042F00802C3F8E020D3F806
:1017E800E03003F008030393039B02F0E7FC0FB01B
:1017F80030BD264B09A92846D3F8E02042F0100254
:10180800C3F8E020D3F8E03003F010030493049BFE
:1018180002F0D4FC0FB030BD1C4B09A92846D3F800
:10182800E02042F02002C3F8E020D3F8E03003F0D3
:1018380020030593059B02F0C1FC0FB030BD134B8C
:1018480009A92846D3F8E02042F04002C3F8E02076
:10185800D3F8E03003F040030693069B02F0AEFC99
:101868000FB030BD094B09A92846D3F8E02042F053
:101878008002C3F8E020D3F8E03003F08003079338
:10188800079B02F09BFC0FB030BD00BF004402581C
:1018980038B5054601F0CAFA0446284601F0CEFAE2
:1018A80001462046BDE8384002F090BE70B50646B5
:1018B8000D4601F0BBFA0446304601F0BFFA2A1E75
:1018C8000146204618BF0122BDE8704002F084BEE0
:1018D8000023122270B586B0CDE902230493036871
:1018E800032B01D804230593061D841D304601F0FF
:1018F8009DFA0546304601F0A1FA034601A928469B
:10190800019302F05BFC204601F090FA0346204662
:101918001C4601F093FA01A903462046019302F000
:101928004DFC06B070BD00BF634A0368934210B512
:101938008CB028D0614A934258D0614A934200F053
:101948009480604A934201D00CB010BD5E4C5F4851
:10195800D4F8E03043F00203C4F8E030D4F8E030C3
:1019680003F002030A930A9BFFF7B2FFD4F8F4309E
:1019780043F08003C4F8F430D4F8F43003F0800363
:101988000B930B9BE0E7504C5148D4F8E03043F000
:101998000203C4F8E030D4F8E03003F00203019306
:1019A800019BFFF795FFD4F8E83000221F2043F48D
:1019B80000131146C4F8E830D4F8E83003F40013F3
:1019C8000293029BD4F8D83043F00103C4F8D8300E
:1019D800D4F8D83003F001030393039B01F072FBA2
:1019E8001F200CB0BDE8104001F0AABB364C3948A6
:1019F800D4F8E03043F08003C4F8E030D4F8E030A5
:101A080003F080030493049BD4F8E03043F002030E
:101A1800C4F8E030D4F8E03003F002030593059BE6
:101A2800FFF756FFD4F8E8300022212043F4800362
:101A38001146C4F8E830D4F8E83003F4800306937C
:101A4800069BD4F8D83043F00103C4F8D830D4F852
:101A5800D83003F001030793079B01F033FB2120E3
:101A68000CB0BDE8104001F06BBB1B48FFF730FF1E
:101A7800154B00224820D3F8E840114644F40004EE
:101A8800C3F8E840D3F8E84004F400040894089C3C
:101A9800D3F8D84044F00104C3F8D840D3F8D8307C
:101AA80003F001030993099B01F00CFB48200CB0DB
:101AB800BDE8104001F044BB00540040005800400D
:101AC800005C0040001C005800440258B004002488
:101AD8002802002400030024D80300242DE9F04341
:101AE8001A4B87B000254FF010099E46EC46184B5C
:101AF800FF22E04667461A700EF118060EF1300410
:101B0800CDE90055CDE90255ADF80090BCE80F00CD
:101B1800CDE90455AEE80F009CE803000095ADF848
:101B280000908EE80300B8E80F000FC69CE8030099
:101B38000095ADF8009086E803000FCF0FC49CE82D
:101B4800030084E8030007B0BDE8F0830400002424
:101B58002402002410B5EFF3108472B6084B1A78EB
:101B6800120602D504B962B610BD1B78D822054802
:101B78005BB202FB0300143001F0CEFFF2E700BFB6
:101B88002402002428020024014802F0E9BF00BF13
:101B9800B4020024014802F0E3BF00BF8C03002414
:101BA800014802F0DDBF00BF640400242DE9F043C2
:101BB8000F68D8243F4D85B007FB04F4032F05EBCD
:101BC8000403036040DCCB680E46012B3CD84DD0A3
:101BD8004FF0D808B646DFF8FC9008FB0758BEE877
:101BE8000F00C446ACE80F00DEF800300DF1100E0F
:101BF800CCF80030D8F808C099E80F000EE90F00BB
:101C08000EEB8703BCF1010F53F8103CC8F88C3079
:101C180031D0BCF1020F42D0BCF1000F35D0317C7D
:101C28008C34D823002201202C4403FB075349009D
:101C3800C3E92602C3F894102046C3E92822C3E961
:101C48002A2202F07FFD18B1012005B0BDE8F0831B
:101C58000146204602F090FF0028F5D101462046B3
:101C680002F0B4FF003818BF0120EEE70B7C103BF0
:101C7800672BADD9E8E701F03FF80F4B98420CBF4E
:101C88000E4B0F4BC8F89030C9E701F035F80A4BF6
:101C980098420CBF0B4B0C4BC8F89030BFE701F0D3
:101CA8002BF8054B98420CBF084B094BC8F89030ED
:101CB800B5E700BF28020024000E27072D0FB0301B
:101CC8003211D0205F4390608A62E030200BA01070
:101CD8001A098010789700082DE9F041D0F80080A3
:101CE80082B00D4617461E4608F18C04204602F0C5
:101CF8003FFF2028FAD1D8F80C3073B96D00204680
:101D0800089C33463A46A9B2009402F071FD0038A7
:101D180018BF012002B0BDE8F081089B3246394661
:101D2800204602F039FEF2E7044B10221A7483F8B9
:101D3800E82083F8C02183F89822704728020024FD
:101D480030B5002395B04FF48071062204460B93FA
:101D580006921393CDE90C13CDE90E33CDE9113377
:101D680000F0CCFF07282BD004F1100541F288328F
:101D780006A9284603F0C8F828B10123184684F8B4
:101D88005C3015B030BD0222022306A92846CDE9F1
:101D9800002310220123CDE9022300224FF48003FF
:101DA800CDE9042305224FF0807306926A460F930B
:101DB80041F2883303F014FA0028DED115B030BDA3
:101DC8000323012084F85C3015B030BD000000000A
:101DD80070B50023A4B04FF080724FF480750446AC
:101DE800ADF806300D93CDE910320122CDE90E533E
:101DF800CDE91223CDE91433002943D0F02300F1B3
:101E0800100508AEADF80630C02341F288323146DD
:101E18002846089303F078F828B10123184684F877
:101E28005C3024B070BD41F288320DF106012846BD
:101E380003F0D4F803460028EFD105224FF480714F
:101E48001E93284616924FF080721B9321931F927F
:101E580002AA9FED1F7BCDE91C13CDE922338DED3E
:101E6800027B9FED1D7B41F2883316A98DED047B23
:101E78009FED1B7B8DED067B03F0B2F90028CCD1DA
:101E880024B070BD00F1100508AE612341F288321C
:101E980031462846089303F037F80028BDD141F2AF
:101EA80088320DF10601284603F016F90028B4D14E
:101EB800BDF80630204623F0780343F04003ADF820
:101EC8000630FFF73DFF00289ED0A6E7AFF300805D
:101ED80000000000010000001000000001000000E8
:101EE80000000000000040002DE9F04F00234FF4EF
:101EF800807501264FF0807804462DED028BABB03B
:101F08008DF8073013932193299314950E96CDF8E5
:101F18005C80CDE91533CDE91863CDE91A33CDE9F5
:101F28002253CDE92433CDE9273306231C9300F04F
:101F3800E5FE072808D004F1100741F288321CA9F1
:101F4800384602F0E1FF40B10123184684F85C30BE
:101F58002BB0BDEC028BBDE8F08F4FF0020A4FF0BA
:101F6800020B4FF0050941F2883308AA1CA938462C
:101F7800CDF89480CDF870909FED2D8BCDE908AB0E
:101F88004FF0000A4FF4800B8DED0A8BCDE90CABB6
:101F980003F026F90028D7D141F2883238460EA935
:101FA80002F0B2FF0028CFD1402341F288320DF170
:101FB800070138468DF8073003F010F80028C3D120
:101FC80041F288330EA902AA3846CDF83890CDF8E8
:101FD8005C809FED197B8DED048BCDE906AB8DED13
:101FE800027B03F0FDF803460028ADD1CDF87090D0
:101FF8004FF00109CDF894804FF00008219308AA0A
:1020080029931CA938462295CDE92333CDE92733F6
:1020180041F288338DED0A8BCDE90CABCDE9088907
:1020280003F0DEF8002893D0304684F85C608FE730
:102038001000000001000000400000004000000007
:102048002DE9F043624CA3B00D46046000F056FE43
:10205800072800F0A980286823466968AA6807C38A
:102068001E46AB8926F8043B3046257B677B02F089
:102078002DFFE0B9574B012D4FF00108E0612361B6
:1020880014BF4FF480134FF40003C4E9058893FA92
:10209800A3F3B3FA83F34FF48079013BC4F8249097
:1020A800C4E90B003046236202F0A4FE38B10122D5
:1020B800134684F85C20184623B0BDE8F0836623F5
:1020C8000B90139041F2883206A90693CDE90C9043
:1020D800CDE90E00CDE91100304602F015FF0028C9
:1020E800E5D1992341F2883206A93046069302F0D9
:1020F8000BFF0028DBD105231C9019906A46149326
:102108004FF08073219014A91D9341F288339FEDFD
:102118002A7BCDE91A90CDE91F008DED007B9FED5C
:10212800287B30468DED027B9FED277B8DED047B70
:1021380003F056F80028BAD129462046FFF748FE92
:102148000028B4D12046FFF7CFFE03460028AED1C1
:10215800002FB0D1189330460027002606AA14A9EC
:10216800CDF86890CDE91F33EB2314934FF4406307
:102178001B934FF4005317934FF440431C93A02331
:102188001693062319934FF0805321934FF0407311
:10219800CDE906671D9303F09BF8034600288AD013
:1021A800434684F85C8086E701230322184684F8B6
:1021B8005C2023B0BDE8F0830000000001000000AF
:1021C80010000000010000000000000000004000B6
:1021D80088050024005000522DE9F04F8FB0414B84
:1021E8000024026800AF9A427C63C7E90944C7E942
:1021F8000B4403D03C37BD46BDE8F08F3A4B40F660
:1022080009213A48EB46D3F8D42007F11C0607F118
:10221800220A4FF0020942F480424FF00308C3F843
:10222800D420D3F8D42002F48042BA60BA68D3F834
:10223800E02042F04002C3F8E020D3F8E02002F0AA
:102248004002FA60FA68D3F8E02042F02002C3F8AE
:10225800E020D3F8E02002F020023A613A69D3F88E
:10226800E02042F01002C3F8E020D3F8E02002F0AA
:1022780010027A617A69D3F8E02042F00202C3F8CA
:10228800E020D3F8E030F86103F002033984BB6141
:10229800174B7B60BB697B6853F8040F7B6000F0C9
:1022A800C5FD7B680546186800F0C8FD16F8013BB7
:1022B800786207F124012846C7F830807B63C7E9B4
:1022C8000A9401F07BFF5645E5D100225C201146B7
:1022D80000F0F8FE5C2000F033FF3C37DD46BD46D9
:1022E800BDE8F08F00500052004402580A0A09095C
:1022F800E4050024114B02689A4200D07047104A46
:1023080070B5D2F8D4300F4C23F4804304F118068A
:10231800C2F8D43054F8040F00F088FD0546206850
:1023280000F08CFD0146284602F088F8B442F1D14D
:102338005C20BDE8704000F011BF00BF00500052A3
:1023480000440258E4050024014803F04DB800BFDA
:1023580098050024084B1A1D981D03F1080110B4B4
:102368009C1C9A6603F10A02C3E91834C3E91B01ED
:102378005DF8044B5A6770478805002438B5036830
:1023880071B9026A00F1280500F5AC74012A0CBF86
:10239800002140218BBB1D4B5722C0F858310DE05E
:1023A800426A00F1C00500F5E874012A0CBF00215B
:1023B8004021EBB1164B5A22C0F8D03100232046F9
:1023C800C4E901214FF480524FF480616362626175
:1023D8004FF48042C4E903314FF48073C4E9062303
:1023E8004FF40033236201F01FF858B1FFBEFEE737
:1023F800084B5822C0F8D031E0E7074B5922C0F803
:102408005831DBE7C5E92044A56338BD1000024018
:102418007000024028000240580002402DE9F043B5
:10242800821D05468BB0031D05F10A010830CDE970
:10243800052305F10C02AB69CDE907010992002BD0
:102448003DD0EB69B3FA83F84FEA5818012302220A
:1024580005AE0AAF4FF006090393CDE9012356F8FC
:10246800044B2B792278934216D02B68F3B1012BB9
:1024780002D1F2B10A230493204600F0DFFC0346A0
:102488002046009300F0D2FC694601F097FEBE4258
:10249800E5D10BB0BDE8F083697963789942E4D15E
:1024A800B8F1000FF3D02B68002BE0D1CDF81090D5
:1024B800E2E76378022B14BF0A230823DBE74FF017
:1024C8000108C3E7534A0368934230B505468BB009
:1024D80055D02032934252D04F4A934204D02032F2
:1024E800934201D00BB030BD4C4C4D48D4F8E0308D
:1024F80043F00103C4F8E030D4F8E03003F00103FE
:102508000593059BD4F8E03043F00803C4F8E030A5
:10251800D4F8E03003F008030693069BD4F8E030C3
:1025280043F04003C4F8E030D4F8E03003F040034F
:102538000793079BD4F8F03043F40003C4F8F03055
:10254800D4F8F03003F400030893089BFFF766FF04
:10255800D4F8D830296843F001032F4A3048C4F82A
:10256800D830891AD4F8D83018BF012103F00103F4
:102578000993099B0BB0BDE83040FFF7FFBE274C1D
:102588002848D4F8E03043F00103C4F8E030D4F828
:10259800E03003F001030093009BD4F8E03043F0EF
:1025A8001003C4F8E030D4F8E03003F010030193CE
:1025B800019BD4F8E03043F04003C4F8E030D4F88D
:1025C800E03003F040030293029BD4F8F03043F468
:1025D8008003C4F8F030D4F8F03003F48003039398
:1025E800039BFFF71BFFD4F8D830296843F0010399
:1025F800084A0C48C4F8D830891AD4F8D83018BF1B
:10260800012103F001030493049B0BB0BDE83040A3
:10261800FFF7B4BE04580140045C0140004402586E
:102628005C08002400060024014801F075BA00BFC8
:1026380058070024014801F06FBA00BFD0070024F2
:10264800014801F069BA00BFB4090024014801F04B
:1026580063BA00BF2C0A00241A4A0368934210B4D4
:102668000BD02032934208D0174A934216D020321A
:10267800934213D05DF8044B7047144B0022D3F8F3
:102688005442C3F85822002CF4D0D3F84802D3E9B6
:10269800931223465DF8044B520818470B4B00224F
:1026A800D3F8B044C3F8B424002CE3D0D3F8AC2456
:1026B800D3F8A814D3F8A404520823465DF8044BB1
:1026C800184700BF04580140045C0140000600247C
:1026D800184A0368934210B40BD02032934208D0B2
:1026E800154A934217D02032934214D05DF8044B18
:1026F8007047124BD3E994245208C3F85822002C8F
:10270800F4D0D3E99201234601EB820100EB820069
:102718005DF8044B1847094BD3F8AC24D3F8B04400
:102728005208C3F8B424002CE0D0D3F8A814D3F886
:10273800A404E8E704580140045C014000060024B2
:102748002DE9F04F0C684FF41776754F87B004FBEE
:1027580006F6012C07EB060AC0F800A000F3A080DB
:102768000D468E464FF00008D44669A3D3E90023EE
:1027780069A1D1E90001CDE9022306ABCAF850826C
:1027880003EB8403CDE9040153F810BC53F8083C6B
:10279800CAE992880193BEE80F00ACE80F00BEE8D2
:1027A8000F00ACE80F00019B9EE80300CAF828B0B0
:1027B800CAF8C0308CE803002B69042B0CD8DFE87A
:1027C80003F0737D879103004FF41773554A03FB99
:1027D80004739A64C3F8E020AA692B6A002A43D0DC
:1027E800002B4FF4177308BF022203FB047318BFB2
:1027F8000322DA6201221A63EA696B6A002A40D16D
:10280800191E4FF4177318BF012103FB0473C3E9A2
:1028180031126B69022B05D8434A12F80380434AE8
:1028280052F823904FF4177306F1280042464946A0
:1028380003FB04740023384463646363E365C4F8EA
:10284800DC30C4F8CC30C4F8F430C4E90F33C4E940
:102858001533C4E93533C4E93B33022304F022FEBF
:10286800002849D0FFBEFEE7191E4FF4177318BFA2
:10287800012103FB0473C3E90B12EA696B6A002A9E
:10288800BED0002B4FF4177308BF022203FB04735A
:1028980018BF0322C3F8C4200122C3F8C820B8E730
:1028A800012007B0BDE8F08F4FF417734FF4FA52C8
:1028B80003FB04739A64C3F8E0208DE74FF41773A1
:1028C8004FF47A5203FB04739A64C3F8E02083E759
:1028D8004FF417734FF4FA4203FB04739A64C3F876
:1028E800E02079E74FF417734BF6803203FB04734B
:1028F8009A64C3F8E0206FE706F1C000022342465D
:102908004946384404F0CEFD0028CAD0FFBEFEE791
:1029180004580140045C014024580140245C0140F3
:102928000006002400770100989700089C9700088B
:102938000068704770B5046882B015460E46C4F842
:102948005032C4E99212069AC4F85422A269012AA4
:1029580026D0626A012A9AB211D0294604F1C00031
:10296800019204F05BFE236A019A012B10D02946DC
:1029780004F1280004F052FE002002B070BD04F1FA
:10298800C000019204F0DCFE236A019A012BEED10B
:10299800314604F1280004F0D3FE002002B070BDD7
:1029A800226A012A9AB211D0294604F1280001921C
:1029B80004F034FE636A019A012B10D0294604F111
:1029C800C00004F02BFE002002B070BD04F1280006
:1029D800019204F0B5FE636A019A012BEED13146EB
:1029E80004F1C00004F0ACFE002002B070BD00BFCE
:1029F80003681B69042B05D8044A02EB830393ED93
:102A0800000A70479FED020A704700BFA8970008A8
:102A180000803B470368D3F858027047704700BFEF
:102A280008B500F013FBBDE8084000F013BC00BF78
:102A3800704700BF00F01CBB2DE9F041CEB0044642
:102A48004C2200210AA806F08BFE2022002102A8B1
:102A580006F086FEBC2200211EA806F081FE022098
:102A680002F0E0F82368012B4FF0000354D0534ADA
:102A780002250193C820D16A514B21F00101D1628E
:102A8800D26A02F0010201929A6942F440429A61C4
:102A98009B6903F440430193019B494A93699B0452
:102AA800FCD548490224002201268B6A04274FF0EE
:102AB800080823F0030323438B62052316900AA812
:102AC80018934FF480331096179419941597CDF8EE
:102AD8006880CDE91B222122CDE91344CDE90A23E0
:102AE80002F08AFD00B1FEE73F220323294602A82F
:102AF800CDE9022300220823CDE904234022402304
:102B0800CDE9062340234FF48062CDE9082303F082
:102B1800A1F80346B8B1FEE7294A04250093F0203E
:102B28009169264B41F440419161926902F4404217
:102B38000092DA6A42F00102DA62DB6A03F001030A
:102B48000093009BA9E720224FF4805125934FF46E
:102B580040152B9280222D931EA8309326913591F3
:102B68004FF48071249234920C223394439140F2B2
:102B7800271120921022CDF884802A971F96CDE93C
:102B88002E34CDE93B334FF48033CDE922463193DF
:102B9800002446930623CDE93E4527934FF48063EE
:102BA800094C2C931E94CDE9281203F07DFA00B14C
:102BB800FEE702F05DF84EB0BDE8F0810004005871
:102BC80000480258004402580F130F032DE9F04142
:102BD8000D46044684B0D1E9000184E8030000F002
:102BE80005FAAE797EB36F4605F0AAFDFEF776FFCB
:102BF80005F0F0FA2B79002B4ED16B799BB1BFF31E
:102C08004F8FBFF36F8F394B0022C3F85022BFF3A9
:102C18004F8FBFF36F8F5A6942F400325A61BFF386
:102C28004F8FBFF36F8F0022002339463048CDE91C
:102C3800002305F019FD2E4805F078FD04F0A2FFE9
:102C480004B0BDE8F08120466F46FFF7F5FE012489
:102C580000F0AEFA4FF040534FF4807838460193B5
:102C6800244BADF80040CDE9023800F0BFFA192234
:102C78004FF0404338468DF80F40ADF80D808DF881
:102C880001408DF80A608DF80820019300F0AEFA33
:102C9800042000F09BFAA7E7144C0023C4F8843002
:102CA800BFF34F8FD4F8803043F6E07EC3F3C906F4
:102CB800C3F34E334FEA431C0CEA0E00334640EA96
:102CC8008372013BC4F860225A1CF8D1ACF1200C85
:102CD8001CF1200FF0D1BFF34F8F636943F48033A9
:102CE8006361BFF34F8FBFF36F8F86E700ED00E09E
:102CF800B80A00240E00010303F0C6B81C4B9B68F9
:102D080003F17842B2F5003F25D3B3F5803F20D3D5
:102D180003F16042B2F5003F1FD303F15C42B2F504
:102D2800002F1CD303F17042B2F5902F19D303F191
:102D38004842B2F5803F16D303F18042B2F1806F6A
:102D480013D303F1E043B3F5000F2CBF082007208D
:102D58007047012070470020704702207047032009
:102D6800704704207047052070470620704700BF51
:102D780000ED00E003480023034A0449036006F01D
:102D8800A9BC00BFB80A002400000024252A0008B6
:102D980010B4204C0022204B83B0D4F888101F4870
:102DA80041F47001C4F8881019681D4C41F0010104
:102DB80019601A61196808401A4918609A61DA613D
:102DC8001A629A62DA621A635A639A63DA631A6455
:102DD8005A64186820F4802018601A66D3F8DC203A
:102DE80042F06042C3F8DC20D3F8DC300193019B49
:102DF80023681940B1F1005F03D20B4B0122C3F8DD
:102E08000821044B4FF000629A6003B05DF8044B50
:102E1800704700BF00ED00E0004402587FEDF6EA7D
:102E28000010005C0000FFFF00800051024B027898
:102E380053F82200704700BFEC970008024B427815
:102E480033F81200704700BFCC9700088CB00A28EE
:102E580014D8DFE800F01523313F4D5B697785937F
:102E680006004D4BD3F8E02042F48062C3F8E0201E
:102E7800D3F8E03003F480630B930B9B0CB07047DE
:102E8800454BD3F8E02042F00102C3F8E020D3F824
:102E9800E03003F001030193019BEFE73E4BD3F8C9
:102EA800E02042F00202C3F8E020D3F8E03003F05B
:102EB80002030293029BE1E7374BD3F8E02042F08C
:102EC8000402C3F8E020D3F8E03003F004030393CE
:102ED800039BD3E7304BD3F8E02042F00802C3F855
:102EE800E020D3F8E03003F008030493049BC5E71F
:102EF800294BD3F8E02042F01002C3F8E020D3F8C1
:102F0800E03003F010030593059BB7E7224BD3F895
:102F1800E02042F02002C3F8E020D3F8E03003F0CC
:102F280020030693069BA9E71B4BD3F8E02042F049
:102F38004002C3F8E020D3F8E03003F040030793E1
:102F4800079B9BE7144BD3F8E02042F08002C3F8BC
:102F5800E020D3F8E03003F080030893089B8DE766
:102F68000D4BD3F8E02042F48072C3F8E020D3F888
:102F7800E03003F480730993099B7FE7064BD3F88D
:102F8800E02042F40072C3F8E020D3F8E03003F404
:102F980000730A930A9B71E700440258704700BF08
:102FA8000F4B1B780BB90120704710B504464FF43E
:102FB8007A700C4AB0FBF3F31068B0FBF3F000F042
:102FC800E1F80F2C00D808B1012010BD00222146DD
:102FD8004FF0FF3000F076F8034B00201C6010BD66
:102FE800540000244C0000245800002438B5032065
:102FF800124D00F055F8124C02F08CFD114A12499E
:103008009369C3F30323CB5C03F01F0320FA03F394
:103018000F202B60926902F00F028A5C02F01F02F7
:10302800D3402360FFF7BCFF10B10124204638BD10
:103038000446FFF7B3FF204638BD00BF4C0000240C
:103048005000002400440258BC970008034A044B6F
:1030580011681B780B441360704700BFBC0A00243A
:1030680054000024014B1868704700BFBC0A0024B4
:1030780038B50446FFF7F6FF0546631C02D0044B3B
:103088001B781C44FFF7EEFF431BA342FAD338BD5D
:1030980054000024014B1868000C70470010005CB5
:1030A80006494FF6FF0C0002054BCA6800F4E060C1
:1030B80002EA0C0210430343CB60704700ED00E0C6
:1030C8000000FA051B4BDB68C3F3022300B5C3F10C
:1030D800070E03F1040CBEF1040F28BF4FF0040ED5
:1030E800BCF1060F1AD9033B4FF0FF3C0CFA03FC66
:1030F80022EA0C024FF0FF3C00280CFA0EFC21EAF1
:103108000C0101FA03F141EA02010ADB09010A4B49
:10311800C9B2034483F800135DF804FB0022134688
:10312800E8E700F00F000901044BC9B2034419761F
:103138005DF804FB00ED00E000E100E0FCEC00E0DD
:10314800002807DB00F01F0101234009024A8B40D9
:1031580042F82030704700BF00E100E000280DDB96
:103168004309012200F01F000549203302FA00F04C
:1031780041F82300BFF34F8FBFF36F8F704700BF35
:1031880000E100E0431EB3F1807F0CD24FF0E02253
:10319800002006494FF0F00C5361072381F823C043
:1031A8009061136170470120704700BF00ED00E097
:1031B800BFF35F8F044B00215A6A22F480325A62AF
:1031C800C3F89410704700BF00ED00E0064B40F0D4
:1031D8000100C3F894005A6A42F480325A62BFF37D
:1031E8004F8FBFF36F8F704700ED00E0174A4378A9
:1031F800C2F89830017821B3436800B5C2F89C3012
:10320800C37A90F80CC01B0690F80FE043EA0C73E1
:1032180090F80AC00B43817B43EACC4390F80DC079
:1032280043EA8C4390F809C043EA4143017A43EAF0
:103238000E4343EA0C2343EA4103C2F8A0305DF889
:1032480004FBC2F89C10C2F8A010704700ED00E023
:10325800704700BF08B5FFF7FBFF08BD0268344B95
:10326800344930B4344D354CAA4218BF9A420CBF89
:10327800012300238A4208BF43F001033031A242F0
:1032880008BF43F0010330348A4208BF43F001030A
:103298003031A24208BF43F0010330348A4208BFEC
:1032A80043F0010301F55C71A24208BF43F001033A
:1032B80004F55C748A4208BF43F001033031A2422E
:1032C80008BF43F0010330348A4208BF43F00103CA
:1032D8003031A24208BF43F0010330348A4208BFAC
:1032E80043F001033031A24208BF43F001038A4290
:1032F80008BF43F0010313B9114B9A4213D1D3B25B
:103308001049114C103BA1FB03515F2B0F4BC1F32C
:10331800021103EA0203615C88BF0433C165836557
:10332800184630BC704722F0FF038365F8E700BFFA
:1033380010000240400002402800024058000240AD
:10334800B8040240ABAAAAAA1C98000800FCFFFF18
:103358000368294A294930B4294D2A4CAB4218BF81
:1033680093420CBF012200228B4208BF42F00102A7
:103378002831A34208BF42F0010228348B4208BF1B
:1033880042F001022831A34208BF42F001028B42F9
:1033980008BF42F0010212B91B4A934213D1DBB2B3
:1033A8001A4C1B4A0121083B1A4DA4FB03434566EE
:1033B80002EB1312C3F30413920001FA03F302663B
:1033C800836630BC7047DAB21349144C1944103A7A
:1033D800A829A4FB02234FEA131300D80833104A84
:1033E80003F01F0501210F4C1A44A94044669200BE
:1033F80081660266E5E700BF085402583054025857
:103408001C5402584454025894540258CDCCCCCC85
:103418000096001680580258F0FBFDBFABAAAAAA76
:10342800008200108008024070B50446FFF71AFEBB
:10343800002C00F0C68023680546954A934248D080
:103448001832934245D0303292498B4218BF93428A
:1034580001F130010CBF012200228B4208BF42F06B
:10346800010218318B4208BF42F0010218318B4229
:1034780008BF42F0010218318B4208BF42F0010236
:1034880001F556718B4208BF42F0010218318B4298
:1034980008BF42F0010218318B4208BF42F0010216
:1034A80018318B4208BF42F0010218318B4208BF25
:1034B80042F0010218318B4208BF42F00102183174
:1034C8008B4208BF42F001021AB9734A934240F096
:1034D800F5800222002184F8352084F834101A6817
:1034E80022F001021A6005E0FFF7BCFD431B052B23
:1034F80040D823681A68D107F6D4D4E9022521698F
:103508002A43A0691D680A4361690A43E1690243C5
:103518000A4362492940256A2A430A43616A042901
:103528002FD01A605A6922F00702114359612046C8
:10353800FFF794FEE26D3F2302F01F029340836081
:103548002046FFF705FFA368802B3CD06368A06E78
:10355800DAB2013BD4E91851072B2A60486026D912
:103568000023C4E91B33636700200123606584F8E6
:10357800353070BD202203230120626584F8353080
:1035880070BDD4E90B5129430A431A605969A26AEC
:1035980021F00701114341F00401002DC6D0002895
:1035A8004FD1012A6ED032F00202BFD151E0501E35
:1035B800072810D9626FD4E91B31002018604A60CF
:1035C800D2E7012070BD0023A16ED4E91802636020
:1035D80003605160C4E72168314B324DA94218BFDE
:1035E800994205F114050CBF01230023A94208BF25
:1035F80043F001031435A94208BF43F00103143511
:10360800A94208BF43F001031435A94208BF43F09B
:1036180001031435A94208BF43F001033BB9224B0B
:10362800994204D0214B224913449B0003E0214BCB
:10363800214913449B0001228240C4E91B3162677F
:10364800BBE7B0F5005F0ED0022A05D9032A7FF444
:103658006DAFEA017FF56AAF012340221846626523
:1036680084F8353070BD032A3FF660AF01A050F8EA
:1036780022F000BF613600085B360008613600089A
:103688008D360008B5F1C07F7FF450AFE4E700BF86
:103698001000024040000240B80402403F8010FE83
:1036A800085402581C540258945402583F8200107F
:1036B800400902403F96001640590258324A3348A2
:1036C8003349834218BF934200F128000CBF0122FE
:1036D80000228B4208BF42F001022831834208BF12
:1036E80042F0010228308B4208BF42F00102283123
:1036F800834208BF42F001028B4208BF42F0010238
:1037080012B9244A934238D102220021224D84F86A
:10371800341084F835201A681540A268402A2AD047
:10372800802A0CBF4FF480400846266AD4E9031269
:10373800D20842EAD102616942EAD102A16942EAA9
:10374800D102E16942EAD102144942EA1612194447
:103758002A4302431248A0FB010120461A600B09C4
:103768009B00E365FFF77AFDE26D012302F01F027B
:1037780093404360E4E61020D7E74022032301206A
:10378800626584F8353070BD085402581C540258DC
:1037980030540258945402580F00FEFFF8ABFDA7AE
:1037A800CDCCCCCC002800F0BC80844690F8340006
:1037B800012800F0B88001202DE9F0419CF835403F
:1037C8008CF83400844208D000224FF400638CF84F
:1037D8003420CCF85430BDE8F0810220DCF80050E9
:1037E8007A4C8CF835000020794ECCF85400794892
:1037F800854218BFA54200F118000CBF012400241F
:10380800854208BF44F001041830854208BF44F0DF
:1038180001041830854208BF44F00104183085427D
:1038280008BF44F0010400F55670854208BF44F013
:1038380001041830854208BF44F00104183085425D
:1038480008BF44F001041830854208BF44F0010461
:103858001830854208BF44F001041830854208BF7B
:1038680044F001041830854208BF44F001041830C0
:10387800854208BF44F00104A0F59560B54218BF21
:103888008542DCF86C600CBF0120002054EA000877
:10389800286820F001002860DCF86400DCF8684043
:1038A800DCF85870446040D016B1DCE91C04446070
:1038B800DCF85C004FF03F0E00F01F000EFA00F03D
:1038C800B860286820F4802028606B60DCF8083035
:1038D800402B23D0A960EA602B6823F01E0343F035
:1038E80016032B60DCF840301BB12B6843F008034B
:1038F8002B60DCF860301A68D20303D51A6842F4EA
:1039080080721A601EB1336843F4807333602B6889
:10391800002043F001032B60BDE8F081AA60E96054
:10392800DAE7012070470220704716B1DCE91C0471
:1039380044602948DFF8A8E0754518BF85420EF1B4
:10394800140E0CBF01200020754508BF40F001008F
:103958000EF1140E754508BF40F001000EF1140E6B
:10396800754508BF40F001000EF1140E754508BFFB
:1039780040F001000EF1140E754508BF40F001003B
:1039880010B9164885420ED1DCF85C0000F01F0E15
:10399800012000FA0EF078606B60DCF80830402BEC
:1039A80010D0A960EA602B6823F00E0343F00A03E5
:1039B8002B60DCF84030002B9BD02B6843F00403CD
:1039C8002B6096E7AA60E960EDE700BF400002407F
:1039D80028000240580002400854025894540258E3
:1039E8001C54025800285FD038B590F8352003469B
:1039F800022A55D10168444A914248D0183291426E
:103A080045D03032414C4248A14218BF914204F19E
:103A180048040CBF01220022814208BF42F0010283
:103A28003030A14208BF42F001023034814208BF61
:103A380042F0010200F55C70A14208BF42F00102A9
:103A480004F55C74814208BF42F001023030A142A3
:103A580008BF42F001023034814208BF42F001023F
:103A68003030A14208BF42F001023034814208BF21
:103A780042F001023030A14208BF42F00102814207
:103A880008BF42F0010212B9224A91420ED1042223
:103A9800002083F835200B6823F001030B6038BD44
:103AA800802201205A6538BD012070470A681C6EC3
:103AB80022F00E02D86D9D6D0A6000F01F000A68A2
:103AC80022F001020A6001222168824021F48071FB
:103AD80021606A60DA6ED3E91910486032B1116862
:103AE800D3E91C0421F48071116044600024012191
:103AF8001A6D83F8344083F835101AB11846904788
:103B0800204638BD104638BD100002404000024033
:103B180070000240B80402402DE9F04300229C4B9B
:103B280083B09C4E1D688146019203689A4A846D51
:103B3800934218BFB342276808BF0126216818BFFF
:103B4800002645D018329548834218BF934200F1A9
:103B580018000CBF01220022834208BF42F0010274
:103B68001830834208BF42F001021830834208BF70
:103B780042F001021830834208BF42F0010200F50A
:103B88005670834208BF42F001021830834208BFD2
:103B980042F001021830834208BF42F00102183097
:103BA800834208BF42F001021830834208BF42F046
:103BB80001021830834208BF42F0010218308342E4
:103BC80008BF42F001021AB9754A934240F0508288
:103BD800D9F85C10082201F01F0C02FA0CF2174207
:103BE80040F0888127FA0CF2D2070CD55A691006E2
:103BF80009D5012202FA0CF2A260D9F8542042F049
:103C08000202C9F854204FF0040E0EFA0CF03842A4
:103C18005BD0002E4FD1634ADFF88081434518BF3F
:103C2800934208F118080CBF01220022434508BF3F
:103C380042F0010208F11808434508BF42F00102AA
:103C480008F11808434508BF42F0010208F11808B6
:103C5800434508BF42F0010208F55678434508BFBE
:103C680042F0010208F11808434508BF42F001027A
:103C780008F11808434508BF42F0010208F1180886
:103C8800434508BF42F0010208F11808434508BF40
:103C980042F0010208F11808434508BF42F001024A
:103CA80008F11808434508BF42F001021AB93C4A16
:103CB800934240F019821A68920706D5A060D9F895
:103CC800542042F00402C9F85420102202FA0CFCD5
:103CD8001CEA070F6CD0002E45D1324A2F4EB34252
:103CE80018BF934206F118060CBF01220022B34206
:103CF80008BF42F001021836B34208BF42F0010281
:103D08001836B34208BF42F001021836B34208BF62
:103D180042F0010206F55676B34208BF42F00102AE
:103D28001836B34208BF42F001021836B34208BF42
:103D380042F001021836B34208BF42F001021836B9
:103D4800B34208BF42F001021836B34208BF42F03E
:103D580001021836B34208BF42F001021AB9104AEC
:103D6800934240F0C9811A68100721D5C4F808C0E9
:103D78001A68560300F14C811A68D20503D41A68F0
:103D880022F008021A60D9F840308BB10CE000BF6D
:103D98004C00002410000240280002405800024055
:103DA800B80402404000024048469847D9F85C10E1
:103DB80001F01F0120268E403E4268D0D9F800202D
:103DC800A54BA64FBA4218BF9A4207F118070CBF75
:103DD80001230023BA4208BF43F001031837BA424F
:103DE80008BF43F001031837BA4208BF43F0010384
:103DF8001837BA4208BF43F001031837BA4208BF60
:103E080043F001031837BA4208BF43F0010307F52E
:103E18005677BA4208BF43F001031837BA4208BFC1
:103E280043F001031837BA4208BF43F001031837BB
:103E3800BA4208BF43F001031837BA4208BF43F03B
:103E480001031837BA4208BF43F001031837BA42D2
:103E580008BF43F001031BB9814B9A4240F06281CD
:103E68001368DB0613D5A66099F83530042B136860
:103E780000F0AE8013F4802F136800F0D3801C0389
:103E880040F1DE80D9F83C300BB148469847D9F864
:103E98005430002B00F0B980D9F85430D8071FD51A
:103EA800D9F80020042189F83510136823F001039C
:103EB80013606C4BA3FB0535AD0A02E01368D90704
:103EC80004D5019B0133AB420193F7D9002389F84C
:103ED80034301368DB074CBF0323012389F83530DE
:103EE800D9F84C30002B00F09080484603B0BDE86C
:103EF800F0431847186840070AD5186820F00400EE
:103F08001860A260D9F8542042F00102C9F8542080
:103F180027FA0CF2D2077FF576AE534A534883420C
:103F280018BF934200F130000CBF012200228342E7
:103F380008BF42F001021830834208BF42F0010274
:103F48001830834208BF42F001021830834208BF8C
:103F580042F0010200F55670834208BF42F00102A8
:103F68001830834208BF42F001021830834208BF6C
:103F780042F001021830834208BF42F001021830B3
:103F8800834208BF42F001021830834208BF42F062
:103F980001021830834208BF42F001021830834200
:103FA80008BF42F00102002A7FF420AE002E7FF401
:103FB8001DAE1A68042202FA0CF23A4240F09480CC
:103FC800102202FA0CFC17EA0C0F3FF4F1AE84E65B
:103FD80023F016031360536923F080035361D9F863
:103FE80040309BB3136823F0080313603F23002578
:103FF800012203FA01F1D9F85030A16089F8345050
:1040080089F83520002B7FF470AF03B0BDE8F0834A
:104018001B6818037FF5B7AED9F84830002B7FF43A
:10402800C3AEC5E613F480737FF42CAF116821F09A
:1040380010011160012289F8343089F8352021E710
:10404800D9F84430002B7FF420AF20E7D9F8483066
:10405800002BC7D1CAE700BF100002402800024069
:10406800B8040240B5814E1B58000240400002408F
:104078004E4A4F4DAB4218BF934205F114050CBF91
:1040880001220022AB4208BF42F001021435AB42C4
:1040980008BF42F001021435AB4208BF42F00102EA
:1040A8001435AB4208BF42F001021435AB4208BFD9
:1040B80042F0010212B93F4A9342A6D1D9F85C50A6
:1040C80004261A6805F01F05AE400E4219D057079E
:1040D80017D5100466604BD5D1034FD4D9F84830B2
:1040E800002B7FF402AF90E71A68102202FA0CFC4A
:1040F80017EA0C0F3FF45CAE1A6852077FF558AE0A
:1041080034E60226AE400E4211D097070FD56660FE
:10411800140439D5D00343D4D9F84430002B7FF4A4
:10412800E4AE72E713689F077FF5B1AE9BE60826F9
:10413800AE400E423FF469AF11077FF566AF1A68CB
:10414800002122F00E021A600123D9F84C2003FA4C
:1041580005F56560C9F8543089F8341089F83530A8
:10416800002A3FF452AF484603B0BDE8F043104779
:10417800920603D41A6822F004021A60D9F8403073
:10418800002B7FF4B2AE40E712F0200208D1196884
:10419800012421F00A01196089F8342089F8354092
:1041A800D9F83C30002B7FF4A0AE2EE70854025813
:1041B8001C54025894540258406D70472DE9F04F32
:1041C8000D6883B0002D00F0D5800023DFF86882E9
:1041D80001229A4012EA050C00F0C7804E6826F0CA
:1041E8001009B9F1020F40F0C88003F007044FEA44
:1041F800D30E4FF00F0A4FEA840900EB8E0E0AFA2D
:1042080009FADEF8204024EA0A0A0C6904FA09F4DB
:1042180006F0030944EA0A04CEF820404FEA430EA8
:104228000324D0F800A009FA0EF904FA0EF42AEAD9
:10423800040AE44349EA0A09C0F80090D0F808A043
:10424800CF6804EA0A0A07FA0EF949EA0A09C0F827
:104258000890C6F30019D0F804A009FA03F92AEA6D
:10426800020249EA02024260C268F70004EA020454
:104278008A6802FA0EF242EA0402C26075D5644CFA
:1042880023F0030E03F00309D4F8F420C6444FEAE0
:10429800890942F00202C4F8F420D4F8F42002F0AC
:1042A80002020192019A0F22DEF8084002FA09F28E
:1042B80024EA0202574CA04225D004F58064A042AB
:1042C8007BD0554CA0427ED0544CA0426FD0544C69
:1042D800A04200F08480534CA04200F08680524CEB
:1042E800A04276D0514CA04200F08580504CA042AC
:1042F80000F087804F4CA0420CBF09240A2404FA1E
:1043080009F942EA0902CEF808204FF0B0426FEAF4
:104318000C0EF403D2F880204FF0B04454BF0EEADC
:1043280002024CEA0202C4F88020B203D4F88440A6
:104338004FF0B04254BF0EEA04044CEA0404F702FA
:10434800C2F8844014684FF0B04254BF0EEA040427
:104358004CEA04041460B40252684FF0B04454BFED
:104368000EEA02024CEA02026260013335FA03F2F5
:104378007FF42EAF03B0BDE8F08F4FEA430E03245D
:10438800D0F800B006F0030A04FA0EF409F1FF3978
:104398000AFA0EFA2BEA040BB9F1010F6FEA0404CA
:1043A8004AEA0B0AC0F800A03FF65EAF46E70324CE
:1043B80004FA09F942EA0902A5E7012404FA09F90D
:1043C80042EA09029FE7022404FA09F942EA0902CB
:1043D80099E7062404FA09F942EA090293E7042452
:1043E80004FA09F942EA09028DE7052404FA09F9F1
:1043F80042EA090287E7072404FA09F942EA0902AE
:1044080081E7082404FA09F942EA09027BE700BFB8
:10441800004402580000025800080258000C0258D4
:10442800001002580014025800180258001C0258C4
:10443800002002580024025800040058002900F007
:10444800A88000232DE9F04FDFF8689183B0DFF8EA
:104458006881DFF868A1DFF868B14FF0010E0EFA45
:1044680003F212EA010C6FD023F0030503F00304F2
:104478000F2640454D444FEAC404AF6806FA04F6D7
:1044880007EA0607019721D0504566D0584567D0FE
:10449800434FB8426ED0434FB84270D0424FB842F3
:1044A80063D0424FB84256D0414FB84272D0DFF87D
:1044B80014E1704568D0DFF810E1704514BF4FF083
:1044C8000A0E4FF0090E0EFA04F400E00024019FD2
:1044D800A74219D1AC6824EA06064FF0B044AE6092
:1044E800D4F8805025EA0C05C4F88050D4F88450DC
:1044F80025EA0C05C4F88450256825EA0C052560D2
:10450800656825EA0C05656003255C0003F007076C
:104518000F2605FA04F40568BF00254306FA07F7D5
:104528000560DD0800EB85052E6A26EA07062E627F
:10453800856825EA04058560456825EA0202426027
:10454800C26822EA0404C460013331FA03F284D158
:1045580003B0BDE8F08F4FF0060E0EFA04F4B6E78C
:104568004FF0020E0EFA04F4B1E74FF0050E0EFA02
:1045780004F4ACE74FF0030E0EFA04F4A7E74FF08B
:10458800040E0EFA04F4A2E74FF0080E0EFA04F433
:104598009DE770474FF0070E0EFA04F497E700BF47
:1045A800000C025800100258001402580018025853
:1045B800001C025800040058000002580004025869
:1045C80000080258002002580024025803691942C2
:1045D80014BF01200020704702B9090481617047A7
:1045E800F8B505460E461746701C2C682CD1A369F1
:1045F800990727D4A369DA06F9D5A3699A06FCD5E1
:1046080020231022E261E361A3699F0701D50023FB
:10461800A362A369DE0703D4A36943F00103A3617E
:10462800636800221B4820210340012063606B6CF3
:1046380085F8402043F004036B6485F8411085F841
:104648004220F8BD0020F8BDA3699B07FAD4A369EE
:10465800D9061BD4FEF706FDC01BB04201D8002EB8
:10466800C2D16B6C2021002201200B4385F8402029
:104678006B6485F8411085F84220F8BDFEF7F2FC1E
:10468800C01B8642EDD3002EEBD02C68A3699B0695
:10469800F4D5B5E700E800FEF8B505460E4617461E
:1046A8002C68A3699B0649D4A369DA0626D5731C2E
:1046B80038D1A3699E06FCD520231022E261E3616C
:1046C800A369990701D50023A362A369DA0703D474
:1046D800A36943F00103A3616368002218482021FD
:1046E8000340012063606B6C85F8402043F00403AD
:1046F8006B6485F8411085F84220F8BDFEF7B2FCDE
:10470800C01BB04201D8002ECAD16B6C20210022F8
:1047180001200B4385F840206B6485F8411085F82B
:104728004220F8BDA3699806C6D4FEF79BFCC01BBF
:104738008642EAD3002EE8D02C68B8E70020F8BDFE
:1047480000E800FE00284ED010B590F8413004462D
:1047580003F0FF02002B41D023682421626884F80B
:104768004110196822F07062E06821F00101012807
:1047780019601A619A6822F400429A60A26829D0E6
:1047880042F4044202289A6002D14FF400625A604F
:1047980058684FF0200C1549226901435960D968BF
:1047A80021F40041D960D4E90501024342EA01221B
:1047B800D4E90710DA60002201431046196019682D
:1047C80041F001011960626484F841C0226384F8F1
:1047D800422010BD42F400429A60D9E780F8402098
:1047E800FDF7A2F8B8E70120704700BF008000027B
:1047F8002DE9F047984690F84130089E202B40F06C
:10480800878090F840300446012B00F08180012316
:104818008946174680F84030FEF724FC054604E038
:10482800FEF720FC401B192875D82368986910F4F6
:104838000040F5D1212267626063C9F3090784F853
:104848004120102284F842206064A4F82A80628DF6
:1048580092B2FF2A6DD8628D494892B2D1B22285B0
:104868005A6802403A4342EA0142464911435960B4
:10487800DFF81C814FF0FF0ADFF81891638D2A4694
:10488800314620469BB2002B30D0FFF7A9FE002806
:1048980073D1606A216810F8012B238D8A62628DBA
:1048A800013B6062013A9BB292B223856285628DB8
:1048B80092B2002BE2D1002AE0D0701C43D18B6960
:1048C8001A06FCD5638D9BB2FF2B48D94B682A4644
:1048D800A4F828A0204603EA08033B4343EA090357
:1048E8004B603146638D9BB2002BCED1FFF7D4FECF
:1048F800002842D123682021234DD9615A682A40D3
:104908005A6084F8411084F8400084F8420000E0BE
:104918000220BDE8F087636C2021002201200B43B0
:1049280084F84020636484F8411084F84220BDE88C
:10493800F0875A6812490A4014493A431143FF2242
:104948002285596094E78B691B06BBD4FEF78AFB66
:10495800401B8642DFD3002EDDD02168ADE7638D92
:104968009BB2DAB223854B6803EA080343EA0243A1
:104978003B4343F000734B6080E70120BDE8F087BC
:10498800009800FC0020008200E800FE0020FF8163
:10499800009C00FC0000FF012DE9F0471F4690F83D
:1049A8004130202B40F08E8004460D46002900F04F
:1049B8008380B2FA82F916464FEA5919002A7BD049
:1049C8005FFA83FA90F84030012B7BD0012380F8FE
:1049D8004030FEF747FB212365628046256884F84E
:1049E800413084F842A0C4F8449066856B68C4F8E6
:1049F800349023F400436B607B1C66D1AE693607A4
:104A0800FCD50823EB61E368022B06D0AE69F603F8
:104A180028D4AE69F603F9D524E0AB691907FCD5AB
:104A28000823EB617B1CF1D0AB69DD031AD4FEF7D8
:104A380019FBA0EB0800874253D3002F51D02568FB
:104A4800F0E7424639462046FFF7CAFD00285BD109
:104A5800636A226813F8011B9162658D6362013DE8
:104A6800ADB26585638D9BB2002BEAD142463946CB
:104A78002046FFF711FE00284DD02268536843F402
:104A880000435360636C042B54D1002363642023D8
:104A9800D361781C41D193691904FCD4516800236F
:104AA800202041F40041516084F84100184684F800
:104AB800423084F8403003E04FF40073012063640F
:104AC800BDE8F0870220BDE8F087AB69180733D44A
:104AD800FEF7C8FAA0EB0800874202D30FB1256899
:104AE8008AE7636C202000212268034384F8401081
:104AF800636484F84100012084F84210536843F449
:104B080000435360BDE8F08722680120536843F4EE
:104B180000435360D4E72268B9E793691B04BDD505
:104B2800FEF7A0FAA0EB08008742DAD3002FD8D00E
:104B38002268AEE70120C3E70823EB61E368022B94
:104B48007FF470AF08E0FEF78DFAA0EB080087420B
:104B5800C7D3002FC5D02568AB691A07F3D55FE71F
:104B68000268436B9169126803B11847704700BF28
:104B780090F84100704700BF90F84120202A23D1C7
:104B88005FFA82FC90F840200346012A1CD0026894
:104B9800242000B583F841004FF0000E106820F083
:104BA80001001060106820F4805010601068014304
:104BB80070461160116841F00101116083F841C02D
:104BC80083F840E05DF804FB0220704790F841202C
:104BD800202A22D1034600B55FFA82FE90F84020D1
:104BE800012A1CD0026824204FF0000C83F84100F1
:104BF800106820F001001060106820F4706040EA2E
:104C0800012160461160116841F00101116083F8CB
:104C180041E083F840C05DF804FB022070470220A1
:104C28005DF804FB38B5114BDA68520704D4DB6829
:104C380003F00703834214D10C4CE36823F0070305
:104C48001843E060FEF70EFA054605E0FEF70AFA9B
:104C5800401BB0F57A7F06D863689B04F6D5002020
:104C680038BD012038BD032038BD00BF00480258B8
:104C7800024AD36843F08073D360704700480258F3
:104C880070B44D6A15B1B2F1406F3AD18B691BB35C
:104C98000C6A002C4CD08E680068C661CE69002E64
:104CA80069D02B4313432343CC6A334323430C6B10
:104CB80023434C6B23430C692343CC6823430C6880
:104CC80023434C69B2F1406F43EA8443436165D0A2
:104CD8004B6870BC836170470B6ABBB100682B439B
:104CE8008C68CE69C461002E6BD01343CC6A334301
:104CF80023430C6B23434C6B23430C692343CC683D
:104D0800DEE78B6A0468013B2361BFE7CB69002BB0
:104D180066D1002D42D0CB6A0C6B2B43006813433D
:104D28004A6923434C6B234343EA8243436135E09A
:104D3800CC6945EA030C002C32D003684CEA020027
:104D4800B2F1406F40EA0400CC6A40EA04000C6B00
:104D580040EA04004C6B40EA0400CC6840EA0400D6
:104D68000C6840EA04004C6940EA8440586115D058
:104D78004A689A6112E045EA030C0D694CEA02039D
:104D8800CA6A23431343D1E90C4223430C681343F3
:104D98004A692B43234343EA8243436170BC70470B
:104DA800CC6A4CEA020300682343D1E90C4223434E
:104DB8000C6813434A69234343EA824370BC436146
:104DC8007047CC6A13432343D1E90C42234313436E
:104DD800D1E90442234343EA824370BC43617047EC
:104DE8002B43CD6A0C6B134300682B4323434C6B56
:104DF80084E700BF70B50446FEF734F9002C54D0A0
:104E080094F84030012B52D00123064684F84030F4
:104E180094F8413003F0FF02002B34D0A56C2268CF
:104E2800A1681368013923F4706343EA012313600E
:104E380001E06B1C31D1936813F02003F9D1E069CC
:104E4800E16815680143206A0143606841EA00612E
:104E58001C482840014360691160A16955680143F5
:104E6800206941EA004118482840012501431846B5
:104E78005160116829431160636484F8415000232C
:104E880084F8403070BD204684F84020FDF7A4F92E
:104E980041F288331D46A364C1E7FEF7E3F8801B9F
:104EA800A84206D82DB12268C5E7012070BD0220AE
:104EB80070BD0423012084F84130636C03436364AC
:104EC800DDE700BF2FFFFF00FEF8E0FFC8B110B517
:104ED80090F840300446012B11D00268012380F875
:104EE8004030136823F001031360FDF703FA002331
:104EF8006364184684F8413084F8403010BD0220BD
:104F080010BD0120704700BF2DE9F04104460E4650
:104F18001546FEF7A7F894F84030012B3AD0012344
:104F280084F8403094F84130012BDFB206D00227D4
:104F38000023384684F84030BDE8F08100238046DD
:104F48006364022384F84130681C23680ED19A6890
:104F580012F02002FBD131462046FFF791FE736A1A
:104F6800E3B10123002784F84130E1E79A6812F0A1
:104F780020021ED0FEF776F8A0EB0800854201D388
:104F8800002DE1D1042384F84130636C43F0010320
:104F98006364CDE702273846BDE8F081226893684C
:104FA8009B07FCD5022101230027D16084F84130FA
:104FB800BEE731462046FFF763FE736A43B1D0E788
:104FC800FEF750F8A0EB08008542DBD3002DD9D0BE
:104FD800226893689907F3D5E4E700BF2DE9F84301
:104FE800044689461546FEF73DF894F84030276890
:104FF800012B67D0012384F8403094F84130012B0D
:105008005FFA83F807D04FF002080023404684F87F
:105018004030BDE8F88300236364B9F1000F56D02F
:105028001223064684F841303B690133E3623B6949
:10503800C4F824900133A3627B6923F040637B6149
:10504800E36A002B31D06A1C394611D18B685B07A3
:10505800FCD5636A1B7887F82030E26A636A013AF4
:105068000133E262E26A6362F2B16A1C2168EDD040
:105078008B685807EDD4FDF7F5FF801B854201D3F7
:10508800002DF2D1042384F84130636C43F001030E
:10509800636413E0BB689B070CD4FDF7E3FF801B38
:1050A8008542EFD3002DEDD02768691CF2D1BB688B
:1050B8009A07FCD502234FF00008FB60012384F80F
:1050C8004130A2E74FF002084046BDE8F883636C20
:1050D80043F00803636498E72DE9F843044615464E
:1050E8008946FDF7BFFF2768BA6994F84030012B5D
:1050F8006CD0012384F8403094F84130012B5FFADA
:1051080083F807D04FF002080023404684F8403067
:10511800BDE8F88300236364B9F1000F5BD0222354
:10512800064684F841303B690133A3633B69C4F800
:105138003090013363637B6923F0406343F08063FD
:105148007B61BA61A36B002B33D0681C394612D13E
:105158008B6813F0060FFBD097F82020236B1A708A
:10516800A26B236B013A0133A263A26B2363FAB1EA
:10517800681C2168ECD08B6813F0060FECD1FDF7A2
:1051880071FF801B854201D3002DF1D1042384F8DF
:105198004130636C43F00103636413E0BB689B0711
:1051A8000CD4FDF75FFF801B8542EFD3002DEDD0B7
:1051B8002768691CF2D1BB689A07FCD502234FF017
:1051C8000008FB60012384F841309DE74FF0020896
:1051D8004046BDE8F883636C43F00803636493E7D3
:1051E8002DE9F84F04461F4689469046FDF73AFFD9
:1051F80094F84030012B52D0012384F8403094F8C1
:105208004130012B5FFA83FB07D04FF0020B0023DC
:10521800584684F84030BDE8F88F0023824663641E
:10522800422384F841307A1C26682CD1B568AB0635
:10523800FCD4D8F8003049462046B362D8F8043088
:105248007362D8F80830F3623268D8F8103022F464
:1052580040021343D8F80C2043F480033360C9F8A4
:1052680028204FF00062FFF70BFD781C22681BD145
:1052780093681907FCD5082101234FF0000BD16072
:1052880084F84130C3E7B3689D06D2D5FDF7EAFE3E
:10529800A0EB0A00874212D3002FC4D10FE04FF0D1
:1052A800020B5846BDE8F88F93681B07E3D4FDF757
:1052B800D9FEA0EB0A00874201D3002FD5D10423E1
:1052C80084F84130636C43F0010363649FE700BFD7
:1052D8002DE9F04704460F461646FDF7C3FE94F83D
:1052E8004030012B45D0012384F8403094F84130F8
:1052F800012B5FFA83F907D04FF0020900234846D3
:1053080084F84030BDE8F08700238046D4F848A0F0
:105318006364822384F84130BAF1FF3F256814D1D1
:10532800AB689A06FCD42B68726823F00803082A35
:1053380043EA02032B6021D04FF0406239462046F1
:105348004FF00009FFF79CFCD8E7AB689B06EAD54D
:10535800FDF788FEA0EB0800824502D3BAF1000FE2
:10536800DAD1042384F84130636C43F001036364A9
:10537800C4E74FF002094846BDE8F08732681023B9
:105388002A63EB602B6843F480132B60D4E700BFDB
:10539800704700BF08B5006C00238363C36290F8B0
:1053A8004130082B0BD103680222DA601A6842F4F4
:1053B80000321A601A6842F002021A6008BD01231E
:1053C80080F84130FFF7E4FF08BD00BF704700BF19
:1053D800704700BF704700BF704700BF704700BFED
:1053E800704700BF704700BF38B5036804469A6825
:1053F800196855070ED548030CD594F84120122A90
:1054080075D094F84120222A00F0A1802046FFF7A9
:10541800E5FF38BD950726D5880324D50222DA6032
:105428001A6822F4E0221A6094F84120122A7AD0ED
:1054380094F84120222A00F0A98094F84120022AF9
:1054480000F0D08094F84120082AE2D15A6901215D
:10545800204622F040625A6184F84110636C3BBBDD
:10546800FFF7B4FF38BD150725D4D50735D5C803D0
:1054780033D50125DD601A6822F470221A60626C47
:1054880042F0020262641A68520779D51A68E06B22
:1054980022F004021A60574B836503F0C1F9002813
:1054A800B7D0636C204643F00403636484F841502A
:1054B800FFF76EFF38BD0803D7D50822DA601A68EF
:1054C800520206D51A68012122F410221A6084F8C3
:1054D80041102046FFF784FF38BDD00699D5CA028F
:1054E80097D510222046DA60FFF77CFF38BD9A680E
:1054F80050078BD518460EE0626A127883F8202090
:10550800E16A20680139626AE16201328168626297
:105518004D077FF57BAFE26A002AEDD1036823F4DB
:105528008023036072E71A68510709D51A68E16B8E
:1055380022F0040209681A60CB6823F00103CB60EB
:105548000123204684F84130FFF746FF38BD9A68AA
:1055580052077FF55BAF18460EE093F82010226BD8
:105568001170A16B20680139226BA1630132816837
:10557800226349077FF54AAFA26B002AEDD1CDE738
:10558800204684F84150FFF703FF38BD1A685207D8
:105598001DD49A6812F47C5F0FD111E093F82010A3
:1055A800226B1170A16B20680139226BA163013253
:1055B8008168226311F47C5F02D0A26B002AEDD1CE
:1055C8000123204684F84130FFF704FF38BD1A68EC
:1055D800E16B22F0040209681A60CB6823F001032A
:1055E800CB60EDE70123204684F84130FFF7F0FE59
:1055F80038BD00BF9D530008002800F0DE81F8B5D3
:1056080003680446D80730D59F490A69896A02F0B9
:105618003802102A00F00081182A00F0F880636828
:10562800B3F5803F00F02081002B00F05E81B3F5D8
:10563800A02F954B1A6800F02F8222F480321A604E
:105648001A6822F480221A60FDF70CFD8E4E41F292
:105658008837054605E0FDF705FD401BB84200F216
:10566800428133689A03F6D523689D0700F1858047
:10567800D9062FD5844A1369926A03F03803082B98
:1056880000F0DA80182B00F0D280E3697E4D002B01
:1056980000F065812B6843F080032B60FDF7E2FC86
:1056A800064605E0FDF7DEFC801B022800F21B81A0
:1056B8002B68DB05F6D5FDF7EDFC41F203039842B4
:1056C80000F20B826B68226A23F0F84343EA826394
:1056D8006B6023681D0716D563696B4D002B00F0BE
:1056E8001C816B6F43F001036B67FDF7BBFC06463B
:1056F80005E0FDF7B7FC801B022800F2F4806B6F11
:105708009807F6D523689A0616D5A3695E4D002B2F
:1057180000F014812B6843F480532B60FDF7A2FC42
:10572800064605E0FDF79EFC801B022800F2DB80A0
:105738002B689F04F6D52368590700F19B80636A9C
:10574800CBB1514D2A6902F03802182A6DD0022BCC
:105758002B6823F080732B6000F03981FDF782FC01
:10576800044605E0FDF77EFC001B022800F2BB8022
:105778002B689B01F6D40020F8BD434A1369926A4E
:1057880013F0380329D1404BE2681B68590701D54B
:10579800002A4AD03C4D2B6823F0190313432B6091
:1057A800FDF760FC064605E0FDF75CFC801B02285F
:1057B80000F299802B685B07F6D5FDF76BFC41F288
:1057C8000303226998426B6800F2F08023F47C336B
:1057D80043EA02336B6023684AE7182B00F0E28043
:1057E800294DE2682B68002A00F0CB8023F01903CA
:1057F80013432B60FDF736FC064604E0FDF732FC48
:10580800801B02286FD82B685F07F7D5D5E701F012
:10581800030102297FF403AF1B4A126891037FF545
:1058280024AF6268002A7FF420AF0120F8BD02F09F
:105838000302012A7FF429AF134B1B68DA0502D54E
:10584800E369802BF1D1FDF725FC41F203030E4AF1
:105858009842216A00F2B380536823F0F84343EA80
:1058680081635360236835E7074A136843F480333C
:105878001360E9E6054D2B6843F480732B60FDF750
:10588800F1FB064609E000BF0044025800480258F0
:10589800FDF7E8FB801B642825D82B68DA05F7D5C7
:1058A800A368012B00F02281002B00F0FD80052B5E
:1058B800954B1A6F00F0208122F001021A671A6FC7
:1058C80022F004021A67FDF7CDFB8F4E41F28837AC
:1058D800054604E0FDF7C6FB401BB84203D8336F0A
:1058E8009B07F7D52BE70320F8BD874D41F2883792
:1058F8002B6823F480332B602B6823F480232B60E0
:10590800FDF7B0FB064604E0FDF7ACFB801BB84290
:10591800E9D82B689B03F7D4A6E66B6F23F0010345
:105928006B67FDF79FFB064604E0FDF79BFB801BBA
:105938000228D8D86B6F9907F7D4E3E62B6823F4CD
:1059480080532B60FDF78EFB064604E0FDF78AFBCB
:10595800801B0228C7D82B689804F7D4EBE62B687D
:1059680023F080032B60FDF77DFB064604E0FDF77E
:1059780079FB801B0228B6D82B68DF05F7D423688B
:10598800A8E623F001032B60FDF76CFB064604E054
:10599800FDF768FB801B0228A5D82B685807F7D4A9
:1059A800236865E690077FF41BAFECE623F0FE431F
:1059B80043EA02636B6023685AE601207047D368A4
:1059C80023F07C5343EA0163D360236882E6FDF742
:1059D80049FB064604E0FDF745FB801B022882D8F8
:1059E8002B689901F7D4A96A484BA26A0B40484929
:1059F800454E1343E26A43EA0213AB62D4E90D321F
:105A0800013B013A5B0212049BB202F4FE0213430B
:105A1800226B013AC2F308021343E26B013A120601
:105A280002F0FE4213432B63EB6A23F00103EB629F
:105A38006A6BA36C114041EAC3016963EB6A226C8B
:105A480023F00C031343EB62EB6A626C23F002034E
:105A58001343EB62EB6A43F48033EB62EB6A43F483
:105A68000033EB62EB6A43F48023EB62EB6A43F0AA
:105A78000103EB622B6843F080732B60FDF7F2FAA9
:105A8800044605E0FDF7EEFA001B02283FF62BAFAF
:105A980033689A01F6D56EE642F480221A601A68D5
:105AA80042F480321A60CFE5174D41F288372B6FE8
:105AB80023F001032B672B6F23F004032B67FDF7FB
:105AC800D1FA064605E0FDF7CDFA801BB8423FF64D
